{"abi":[{"inputs":[],"stateMutability":"nonpayable","type":"constructor"},{"inputs":[{"internalType":"string","name":"v","type":"string"},{"internalType":"string","name":"a","type":"string"},{"internalType":"address","name":"g","type":"address"}],"name":"Register","outputs":[],"stateMutability":"nonpayable","type":"function"},{"inputs":[{"internalType":"string","name":"n","type":"string"},{"internalType":"string","name":"pn","type":"string"}],"name":"addCandidate","outputs":[],"stateMutability":"nonpayable","type":"function"},{"inputs":[{"internalType":"uint256","name":"","type":"uint256"}],"name":"applications","outputs":[{"internalType":"string","name":"votercardNumber","type":"string"},{"internalType":"string","name":"AdarcardNumber","type":"string"},{"internalType":"address","name":"govtRegisterAddress","type":"address"},{"internalType":"bool","name":"isApproved","type":"bool"}],"stateMutability":"view","type":"function"},{"inputs":[{"internalType":"uint256","name":"index","type":"uint256"}],"name":"approveApplication","outputs":[],"stateMutability":"nonpayable","type":"function"},{"inputs":[{"internalType":"uint256","name":"","type":"uint256"}],"name":"candidates","outputs":[{"internalType":"string","name":"name","type":"string"},{"internalType":"string","name":"partyName","type":"string"},{"internalType":"uint256","name":"voteCount","type":"uint256"}],"stateMutability":"view","type":"function"},{"inputs":[{"internalType":"address","name":"","type":"address"}],"name":"completeVoters","outputs":[{"internalType":"bool","name":"","type":"bool"}],"stateMutability":"view","type":"function"},{"inputs":[],"name":"getAllapplications","outputs":[{"components":[{"internalType":"string","name":"votercardNumber","type":"string"},{"internalType":"string","name":"AdarcardNumber","type":"string"},{"internalType":"address","name":"govtRegisterAddress","type":"address"},{"internalType":"bool","name":"isApproved","type":"bool"}],"internalType":"struct Voteing.Application[]","name":"","type":"tuple[]"}],"stateMutability":"view","type":"function"},{"inputs":[],"name":"getAllcandidates","outputs":[{"components":[{"internalType":"string","name":"name","type":"string"},{"internalType":"string","name":"partyName","type":"string"},{"internalType":"uint256","name":"voteCount","type":"uint256"}],"internalType":"struct Voteing.Candidate[]","name":"","type":"tuple[]"}],"stateMutability":"view","type":"function"},{"inputs":[],"name":"manager","outputs":[{"internalType":"address","name":"","type":"address"}],"stateMutability":"view","type":"function"},{"inputs":[],"name":"registerStart","outputs":[{"internalType":"bool","name":"","type":"bool"}],"stateMutability":"view","type":"function"},{"inputs":[{"internalType":"address","name":"","type":"address"}],"name":"registerVoter","outputs":[{"internalType":"bool","name":"","type":"bool"}],"stateMutability":"view","type":"function"},{"inputs":[],"name":"startRegistration","outputs":[],"stateMutability":"nonpayable","type":"function"},{"inputs":[],"name":"startVoteing","outputs":[],"stateMutability":"nonpayable","type":"function"},{"inputs":[],"name":"stopRegistration","outputs":[],"stateMutability":"nonpayable","type":"function"},{"inputs":[],"name":"stopVoteing","outputs":[],"stateMutability":"nonpayable","type":"function"},{"inputs":[],"name":"totalApprovers","outputs":[{"internalType":"uint256","name":"","type":"uint256"}],"stateMutability":"view","type":"function"},{"inputs":[{"internalType":"uint256","name":"index","type":"uint256"}],"name":"vote","outputs":[],"stateMutability":"nonpayable","type":"function"},{"inputs":[],"name":"voteStart","outputs":[{"internalType":"bool","name":"","type":"bool"}],"stateMutability":"view","type":"function"}],"devdoc":{"kind":"dev","methods":{},"version":1},"evm":{"assembly":"    /* \"voteing.sol\":60:3177  contract Voteing{\r... */\n  mstore(0x40, 0x80)\n    /* \"voteing.sol\":89:195  constructor(){\r... */\n  callvalue\n  dup1\n  iszero\n  tag_1\n  jumpi\n  0x00\n  dup1\n  revert\ntag_1:\n  pop\n    /* \"voteing.sol\":121:131  msg.sender */\n  caller\n    /* \"voteing.sol\":113:120  manager */\n  0x00\n  dup1\n    /* \"voteing.sol\":113:131  manager=msg.sender */\n  0x0100\n  exp\n  dup2\n  sload\n  dup2\n  0xffffffffffffffffffffffffffffffffffffffff\n  mul\n  not\n  and\n  swap1\n  dup4\n  0xffffffffffffffffffffffffffffffffffffffff\n  and\n  mul\n  or\n  swap1\n  sstore\n  pop\n    /* \"voteing.sol\":152:157  false */\n  0x00\n    /* \"voteing.sol\":142:151  voteStart */\n  dup1\n  0x14\n    /* \"voteing.sol\":142:157  voteStart=false */\n  0x0100\n  exp\n  dup2\n  sload\n  dup2\n  0xff\n  mul\n  not\n  and\n  swap1\n  dup4\n  iszero\n  iszero\n  mul\n  or\n  swap1\n  sstore\n  pop\n    /* \"voteing.sol\":182:187  false */\n  0x00\n    /* \"voteing.sol\":168:181  registerStart */\n  dup1\n  0x15\n    /* \"voteing.sol\":168:187  registerStart=false */\n  0x0100\n  exp\n  dup2\n  sload\n  dup2\n  0xff\n  mul\n  not\n  and\n  swap1\n  dup4\n  iszero\n  iszero\n  mul\n  or\n  swap1\n  sstore\n  pop\n    /* \"voteing.sol\":60:3177  contract Voteing{\r... */\n  dataSize(sub_0)\n  dup1\n  dataOffset(sub_0)\n  0x00\n  codecopy\n  0x00\n  return\nstop\n\nsub_0: assembly {\n        /* \"voteing.sol\":60:3177  contract Voteing{\r... */\n      mstore(0x40, 0x80)\n      callvalue\n      dup1\n      iszero\n      tag_1\n      jumpi\n      0x00\n      dup1\n      revert\n    tag_1:\n      pop\n      jumpi(tag_2, lt(calldatasize, 0x04))\n      shr(0xe0, calldataload(0x00))\n      dup1\n      0x481c6a75\n      gt\n      tag_21\n      jumpi\n      dup1\n      0xb3124a97\n      gt\n      tag_22\n      jumpi\n      dup1\n      0xb3124a97\n      eq\n      tag_16\n      jumpi\n      dup1\n      0xdfefadff\n      eq\n      tag_17\n      jumpi\n      dup1\n      0xe031535b\n      eq\n      tag_18\n      jumpi\n      dup1\n      0xf43abeab\n      eq\n      tag_19\n      jumpi\n      dup1\n      0xf5696165\n      eq\n      tag_20\n      jumpi\n      jump(tag_2)\n    tag_22:\n      dup1\n      0x481c6a75\n      eq\n      tag_12\n      jumpi\n      dup1\n      0x74b25b8e\n      eq\n      tag_13\n      jumpi\n      dup1\n      0x984fe4b4\n      eq\n      tag_14\n      jumpi\n      dup1\n      0x9d469c3b\n      eq\n      tag_15\n      jumpi\n      jump(tag_2)\n    tag_21:\n      dup1\n      0x23bf9f95\n      gt\n      tag_23\n      jumpi\n      dup1\n      0x23bf9f95\n      eq\n      tag_7\n      jumpi\n      dup1\n      0x26541b56\n      eq\n      tag_8\n      jumpi\n      dup1\n      0x2d498209\n      eq\n      tag_9\n      jumpi\n      dup1\n      0x3477ee2e\n      eq\n      tag_10\n      jumpi\n      dup1\n      0x38db6dd3\n      eq\n      tag_11\n      jumpi\n      jump(tag_2)\n    tag_23:\n      dup1\n      0x0121b93f\n      eq\n      tag_3\n      jumpi\n      dup1\n      0x10b86695\n      eq\n      tag_4\n      jumpi\n      dup1\n      0x1af3feea\n      eq\n      tag_5\n      jumpi\n      dup1\n      0x213fbf1b\n      eq\n      tag_6\n      jumpi\n    tag_2:\n      0x00\n      dup1\n      revert\n        /* \"voteing.sol\":2029:2410  function vote(uint index) public{\r... */\n    tag_3:\n      tag_24\n      0x04\n      dup1\n      calldatasize\n      sub\n      dup2\n      add\n      swap1\n      tag_25\n      swap2\n      swap1\n      tag_26\n      jump\t// in\n    tag_25:\n      tag_27\n      jump\t// in\n    tag_24:\n      stop\n        /* \"voteing.sol\":2608:2742  function startRegistration() public{\r... */\n    tag_4:\n      tag_28\n      tag_29\n      jump\t// in\n    tag_28:\n      stop\n        /* \"voteing.sol\":3037:3162  function stopVoteing() public{\r... */\n    tag_5:\n      tag_30\n      tag_31\n      jump\t// in\n    tag_30:\n      stop\n        /* \"voteing.sol\":1351:1655  function approveApplication(uint index) public {\r... */\n    tag_6:\n      tag_32\n      0x04\n      dup1\n      calldatasize\n      sub\n      dup2\n      add\n      swap1\n      tag_33\n      swap2\n      swap1\n      tag_26\n      jump\t// in\n    tag_33:\n      tag_34\n      jump\t// in\n    tag_32:\n      stop\n        /* \"voteing.sol\":835:1162  function Register(string memory v,string memory a,address g) public {\r... */\n    tag_7:\n      tag_35\n      0x04\n      dup1\n      calldatasize\n      sub\n      dup2\n      add\n      swap1\n      tag_36\n      swap2\n      swap1\n      tag_37\n      jump\t// in\n    tag_36:\n      tag_38\n      jump\t// in\n    tag_35:\n      stop\n        /* \"voteing.sol\":1701:1993  function addCandidate(string memory n,string memory pn) public{\r... */\n    tag_8:\n      tag_39\n      0x04\n      dup1\n      calldatasize\n      sub\n      dup2\n      add\n      swap1\n      tag_40\n      swap2\n      swap1\n      tag_41\n      jump\t// in\n    tag_40:\n      tag_42\n      jump\t// in\n    tag_39:\n      stop\n        /* \"voteing.sol\":2900:3025  function startVoteing() public{\r... */\n    tag_9:\n      tag_43\n      tag_44\n      jump\t// in\n    tag_43:\n      stop\n        /* \"voteing.sol\":668:697  Candidate[] public candidates */\n    tag_10:\n      tag_45\n      0x04\n      dup1\n      calldatasize\n      sub\n      dup2\n      add\n      swap1\n      tag_46\n      swap2\n      swap1\n      tag_26\n      jump\t// in\n    tag_46:\n      tag_47\n      jump\t// in\n    tag_45:\n      mload(0x40)\n      tag_48\n      swap4\n      swap3\n      swap2\n      swap1\n      tag_49\n      jump\t// in\n    tag_48:\n      mload(0x40)\n      dup1\n      swap2\n      sub\n      swap1\n      return\n        /* \"voteing.sol\":578:621  mapping(address=>bool) public registerVoter */\n    tag_11:\n      tag_50\n      0x04\n      dup1\n      calldatasize\n      sub\n      dup2\n      add\n      swap1\n      tag_51\n      swap2\n      swap1\n      tag_52\n      jump\t// in\n    tag_51:\n      tag_53\n      jump\t// in\n    tag_50:\n      mload(0x40)\n      tag_54\n      swap2\n      swap1\n      tag_55\n      jump\t// in\n    tag_54:\n      mload(0x40)\n      dup1\n      swap2\n      sub\n      swap1\n      return\n        /* \"voteing.sol\":489:511  address public manager */\n    tag_12:\n      tag_56\n      tag_57\n      jump\t// in\n    tag_56:\n      mload(0x40)\n      tag_58\n      swap2\n      swap1\n      tag_59\n      jump\t// in\n    tag_58:\n      mload(0x40)\n      dup1\n      swap2\n      sub\n      swap1\n      return\n        /* \"voteing.sol\":755:781  uint public totalApprovers */\n    tag_13:\n      tag_60\n      tag_61\n      jump\t// in\n    tag_60:\n      mload(0x40)\n      tag_62\n      swap2\n      swap1\n      tag_63\n      jump\t// in\n    tag_62:\n      mload(0x40)\n      dup1\n      swap2\n      sub\n      swap1\n      return\n        /* \"voteing.sol\":704:748  mapping(address=>bool) public completeVoters */\n    tag_14:\n      tag_64\n      0x04\n      dup1\n      calldatasize\n      sub\n      dup2\n      add\n      swap1\n      tag_65\n      swap2\n      swap1\n      tag_52\n      jump\t// in\n    tag_65:\n      tag_66\n      jump\t// in\n    tag_64:\n      mload(0x40)\n      tag_67\n      swap2\n      swap1\n      tag_55\n      jump\t// in\n    tag_67:\n      mload(0x40)\n      dup1\n      swap2\n      sub\n      swap1\n      return\n        /* \"voteing.sol\":546:571  bool public registerStart */\n    tag_15:\n      tag_68\n      tag_69\n      jump\t// in\n    tag_68:\n      mload(0x40)\n      tag_70\n      swap2\n      swap1\n      tag_55\n      jump\t// in\n    tag_70:\n      mload(0x40)\n      dup1\n      swap2\n      sub\n      swap1\n      return\n        /* \"voteing.sol\":1202:1311  function getAllapplications() public view returns(Application[] memory){\r... */\n    tag_16:\n      tag_71\n      tag_72\n      jump\t// in\n    tag_71:\n      mload(0x40)\n      tag_73\n      swap2\n      swap1\n      tag_74\n      jump\t// in\n    tag_73:\n      mload(0x40)\n      dup1\n      swap2\n      sub\n      swap1\n      return\n        /* \"voteing.sol\":628:661  Application[] public applications */\n    tag_17:\n      tag_75\n      0x04\n      dup1\n      calldatasize\n      sub\n      dup2\n      add\n      swap1\n      tag_76\n      swap2\n      swap1\n      tag_26\n      jump\t// in\n    tag_76:\n      tag_77\n      jump\t// in\n    tag_75:\n      mload(0x40)\n      tag_78\n      swap5\n      swap4\n      swap3\n      swap2\n      swap1\n      tag_79\n      jump\t// in\n    tag_78:\n      mload(0x40)\n      dup1\n      swap2\n      sub\n      swap1\n      return\n        /* \"voteing.sol\":518:539  bool public voteStart */\n    tag_18:\n      tag_80\n      tag_81\n      jump\t// in\n    tag_80:\n      mload(0x40)\n      tag_82\n      swap2\n      swap1\n      tag_55\n      jump\t// in\n    tag_82:\n      mload(0x40)\n      dup1\n      swap2\n      sub\n      swap1\n      return\n        /* \"voteing.sol\":2448:2551  function getAllcandidates() public view returns(Candidate[] memory){\r... */\n    tag_19:\n      tag_83\n      tag_84\n      jump\t// in\n    tag_83:\n      mload(0x40)\n      tag_85\n      swap2\n      swap1\n      tag_86\n      jump\t// in\n    tag_85:\n      mload(0x40)\n      dup1\n      swap2\n      sub\n      swap1\n      return\n        /* \"voteing.sol\":2754:2888  function stopRegistration() public{\r... */\n    tag_20:\n      tag_87\n      tag_88\n      jump\t// in\n    tag_87:\n      stop\n        /* \"voteing.sol\":2029:2410  function vote(uint index) public{\r... */\n    tag_27:\n        /* \"voteing.sol\":2080:2089  voteStart */\n      0x00\n      0x14\n      swap1\n      sload\n      swap1\n      0x0100\n      exp\n      swap1\n      div\n      0xff\n      and\n        /* \"voteing.sol\":2072:2111  require(voteStart,\"vote not start yet\") */\n      tag_90\n      jumpi\n      mload(0x40)\n      0x08c379a000000000000000000000000000000000000000000000000000000000\n      dup2\n      mstore\n      0x04\n      add\n      tag_91\n      swap1\n      tag_92\n      jump\t// in\n    tag_91:\n      mload(0x40)\n      dup1\n      swap2\n      sub\n      swap1\n      revert\n    tag_90:\n        /* \"voteing.sol\":2130:2143  registerVoter */\n      0x01\n        /* \"voteing.sol\":2130:2155  registerVoter[msg.sender] */\n      0x00\n        /* \"voteing.sol\":2144:2154  msg.sender */\n      caller\n        /* \"voteing.sol\":2130:2155  registerVoter[msg.sender] */\n      0xffffffffffffffffffffffffffffffffffffffff\n      and\n      0xffffffffffffffffffffffffffffffffffffffff\n      and\n      dup2\n      mstore\n      0x20\n      add\n      swap1\n      dup2\n      mstore\n      0x20\n      add\n      0x00\n      keccak256\n      0x00\n      swap1\n      sload\n      swap1\n      0x0100\n      exp\n      swap1\n      div\n      0xff\n      and\n        /* \"voteing.sol\":2122:2187  require(registerVoter[msg.sender],\"you are not a register voter\") */\n      tag_93\n      jumpi\n      mload(0x40)\n      0x08c379a000000000000000000000000000000000000000000000000000000000\n      dup2\n      mstore\n      0x04\n      add\n      tag_94\n      swap1\n      tag_95\n      jump\t// in\n    tag_94:\n      mload(0x40)\n      dup1\n      swap2\n      sub\n      swap1\n      revert\n    tag_93:\n        /* \"voteing.sol\":2234:2239  false */\n      0x00\n        /* \"voteing.sol\":2206:2239  completeVoters[msg.sender]==false */\n      iszero\n      iszero\n        /* \"voteing.sol\":2206:2220  completeVoters */\n      0x04\n        /* \"voteing.sol\":2206:2232  completeVoters[msg.sender] */\n      0x00\n        /* \"voteing.sol\":2221:2231  msg.sender */\n      caller\n        /* \"voteing.sol\":2206:2232  completeVoters[msg.sender] */\n      0xffffffffffffffffffffffffffffffffffffffff\n      and\n      0xffffffffffffffffffffffffffffffffffffffff\n      and\n      dup2\n      mstore\n      0x20\n      add\n      swap1\n      dup2\n      mstore\n      0x20\n      add\n      0x00\n      keccak256\n      0x00\n      swap1\n      sload\n      swap1\n      0x0100\n      exp\n      swap1\n      div\n      0xff\n      and\n        /* \"voteing.sol\":2206:2239  completeVoters[msg.sender]==false */\n      iszero\n      iszero\n      eq\n        /* \"voteing.sol\":2198:2272  require(completeVoters[msg.sender]==false,\"your vote is already complete\") */\n      tag_96\n      jumpi\n      mload(0x40)\n      0x08c379a000000000000000000000000000000000000000000000000000000000\n      dup2\n      mstore\n      0x04\n      add\n      tag_97\n      swap1\n      tag_98\n      jump\t// in\n    tag_97:\n      mload(0x40)\n      dup1\n      swap2\n      sub\n      swap1\n      revert\n    tag_96:\n        /* \"voteing.sol\":2283:2310  Candidate storage candidate */\n      0x00\n        /* \"voteing.sol\":2311:2321  candidates */\n      0x03\n        /* \"voteing.sol\":2322:2327  index */\n      dup3\n        /* \"voteing.sol\":2311:2328  candidates[index] */\n      dup2\n      sload\n      dup2\n      lt\n      tag_99\n      jumpi\n      tag_100\n      tag_101\n      jump\t// in\n    tag_100:\n    tag_99:\n      swap1\n      0x00\n      mstore\n      keccak256(0x00, 0x20)\n      swap1\n      0x03\n      mul\n      add\n        /* \"voteing.sol\":2283:2328  Candidate storage candidate=candidates[index] */\n      swap1\n      pop\n        /* \"voteing.sol\":2339:2348  candidate */\n      dup1\n        /* \"voteing.sol\":2339:2358  candidate.voteCount */\n      0x02\n      add\n      0x00\n        /* \"voteing.sol\":2339:2360  candidate.voteCount++ */\n      dup2\n      sload\n      dup1\n      swap3\n      swap2\n      swap1\n      tag_103\n      swap1\n      tag_104\n      jump\t// in\n    tag_103:\n      swap2\n      swap1\n      pop\n      sstore\n      pop\n        /* \"voteing.sol\":2398:2402  true */\n      0x01\n        /* \"voteing.sol\":2371:2385  completeVoters */\n      0x04\n        /* \"voteing.sol\":2371:2397  completeVoters[msg.sender] */\n      0x00\n        /* \"voteing.sol\":2386:2396  msg.sender */\n      caller\n        /* \"voteing.sol\":2371:2397  completeVoters[msg.sender] */\n      0xffffffffffffffffffffffffffffffffffffffff\n      and\n      0xffffffffffffffffffffffffffffffffffffffff\n      and\n      dup2\n      mstore\n      0x20\n      add\n      swap1\n      dup2\n      mstore\n      0x20\n      add\n      0x00\n      keccak256\n      0x00\n        /* \"voteing.sol\":2371:2402  completeVoters[msg.sender]=true */\n      0x0100\n      exp\n      dup2\n      sload\n      dup2\n      0xff\n      mul\n      not\n      and\n      swap1\n      dup4\n      iszero\n      iszero\n      mul\n      or\n      swap1\n      sstore\n      pop\n        /* \"voteing.sol\":2061:2410  {\r... */\n      pop\n        /* \"voteing.sol\":2029:2410  function vote(uint index) public{\r... */\n      pop\n      jump\t// out\n        /* \"voteing.sol\":2608:2742  function startRegistration() public{\r... */\n    tag_29:\n        /* \"voteing.sol\":2674:2681  manager */\n      0x00\n      dup1\n      sload\n      swap1\n      0x0100\n      exp\n      swap1\n      div\n      0xffffffffffffffffffffffffffffffffffffffff\n      and\n        /* \"voteing.sol\":2662:2681  msg.sender==manager */\n      0xffffffffffffffffffffffffffffffffffffffff\n      and\n        /* \"voteing.sol\":2662:2672  msg.sender */\n      caller\n        /* \"voteing.sol\":2662:2681  msg.sender==manager */\n      0xffffffffffffffffffffffffffffffffffffffff\n      and\n      eq\n        /* \"voteing.sol\":2654:2705  require(msg.sender==manager,\"you are not an admin\") */\n      tag_106\n      jumpi\n      mload(0x40)\n      0x08c379a000000000000000000000000000000000000000000000000000000000\n      dup2\n      mstore\n      0x04\n      add\n      tag_107\n      swap1\n      tag_108\n      jump\t// in\n    tag_107:\n      mload(0x40)\n      dup1\n      swap2\n      sub\n      swap1\n      revert\n    tag_106:\n        /* \"voteing.sol\":2730:2734  true */\n      0x01\n        /* \"voteing.sol\":2716:2729  registerStart */\n      0x00\n      0x15\n        /* \"voteing.sol\":2716:2734  registerStart=true */\n      0x0100\n      exp\n      dup2\n      sload\n      dup2\n      0xff\n      mul\n      not\n      and\n      swap1\n      dup4\n      iszero\n      iszero\n      mul\n      or\n      swap1\n      sstore\n      pop\n        /* \"voteing.sol\":2608:2742  function startRegistration() public{\r... */\n      jump\t// out\n        /* \"voteing.sol\":3037:3162  function stopVoteing() public{\r... */\n    tag_31:\n        /* \"voteing.sol\":3097:3104  manager */\n      0x00\n      dup1\n      sload\n      swap1\n      0x0100\n      exp\n      swap1\n      div\n      0xffffffffffffffffffffffffffffffffffffffff\n      and\n        /* \"voteing.sol\":3085:3104  msg.sender==manager */\n      0xffffffffffffffffffffffffffffffffffffffff\n      and\n        /* \"voteing.sol\":3085:3095  msg.sender */\n      caller\n        /* \"voteing.sol\":3085:3104  msg.sender==manager */\n      0xffffffffffffffffffffffffffffffffffffffff\n      and\n      eq\n        /* \"voteing.sol\":3077:3128  require(msg.sender==manager,\"you are not an admin\") */\n      tag_110\n      jumpi\n      mload(0x40)\n      0x08c379a000000000000000000000000000000000000000000000000000000000\n      dup2\n      mstore\n      0x04\n      add\n      tag_111\n      swap1\n      tag_108\n      jump\t// in\n    tag_111:\n      mload(0x40)\n      dup1\n      swap2\n      sub\n      swap1\n      revert\n    tag_110:\n        /* \"voteing.sol\":3149:3154  false */\n      0x00\n        /* \"voteing.sol\":3139:3148  voteStart */\n      dup1\n      0x14\n        /* \"voteing.sol\":3139:3154  voteStart=false */\n      0x0100\n      exp\n      dup2\n      sload\n      dup2\n      0xff\n      mul\n      not\n      and\n      swap1\n      dup4\n      iszero\n      iszero\n      mul\n      or\n      swap1\n      sstore\n      pop\n        /* \"voteing.sol\":3037:3162  function stopVoteing() public{\r... */\n      jump\t// out\n        /* \"voteing.sol\":1351:1655  function approveApplication(uint index) public {\r... */\n    tag_34:\n        /* \"voteing.sol\":1429:1436  manager */\n      0x00\n      dup1\n      sload\n      swap1\n      0x0100\n      exp\n      swap1\n      div\n      0xffffffffffffffffffffffffffffffffffffffff\n      and\n        /* \"voteing.sol\":1417:1436  msg.sender==manager */\n      0xffffffffffffffffffffffffffffffffffffffff\n      and\n        /* \"voteing.sol\":1417:1427  msg.sender */\n      caller\n        /* \"voteing.sol\":1417:1436  msg.sender==manager */\n      0xffffffffffffffffffffffffffffffffffffffff\n      and\n      eq\n        /* \"voteing.sol\":1409:1460  require(msg.sender==manager,\"you are not an admin\") */\n      tag_113\n      jumpi\n      mload(0x40)\n      0x08c379a000000000000000000000000000000000000000000000000000000000\n      dup2\n      mstore\n      0x04\n      add\n      tag_114\n      swap1\n      tag_108\n      jump\t// in\n    tag_114:\n      mload(0x40)\n      dup1\n      swap2\n      sub\n      swap1\n      revert\n    tag_113:\n        /* \"voteing.sol\":1471:1491  address newcandidate */\n      0x00\n        /* \"voteing.sol\":1492:1504  applications */\n      0x02\n        /* \"voteing.sol\":1505:1510  index */\n      dup3\n        /* \"voteing.sol\":1492:1511  applications[index] */\n      dup2\n      sload\n      dup2\n      lt\n      tag_115\n      jumpi\n      tag_116\n      tag_101\n      jump\t// in\n    tag_116:\n    tag_115:\n      swap1\n      0x00\n      mstore\n      keccak256(0x00, 0x20)\n      swap1\n      0x03\n      mul\n      add\n        /* \"voteing.sol\":1492:1531  applications[index].govtRegisterAddress */\n      0x02\n      add\n      0x00\n      swap1\n      sload\n      swap1\n      0x0100\n      exp\n      swap1\n      div\n      0xffffffffffffffffffffffffffffffffffffffff\n      and\n        /* \"voteing.sol\":1471:1531  address newcandidate=applications[index].govtRegisterAddress */\n      swap1\n      pop\n        /* \"voteing.sol\":1573:1577  true */\n      0x01\n        /* \"voteing.sol\":1542:1554  applications */\n      0x02\n        /* \"voteing.sol\":1555:1560  index */\n      dup4\n        /* \"voteing.sol\":1542:1561  applications[index] */\n      dup2\n      sload\n      dup2\n      lt\n      tag_118\n      jumpi\n      tag_119\n      tag_101\n      jump\t// in\n    tag_119:\n    tag_118:\n      swap1\n      0x00\n      mstore\n      keccak256(0x00, 0x20)\n      swap1\n      0x03\n      mul\n      add\n        /* \"voteing.sol\":1542:1572  applications[index].isApproved */\n      0x02\n      add\n      0x14\n        /* \"voteing.sol\":1542:1577  applications[index].isApproved=true */\n      0x0100\n      exp\n      dup2\n      sload\n      dup2\n      0xff\n      mul\n      not\n      and\n      swap1\n      dup4\n      iszero\n      iszero\n      mul\n      or\n      swap1\n      sstore\n      pop\n        /* \"voteing.sol\":1616:1620  true */\n      0x01\n        /* \"voteing.sol\":1588:1601  registerVoter */\n      dup1\n        /* \"voteing.sol\":1588:1615  registerVoter[newcandidate] */\n      0x00\n        /* \"voteing.sol\":1602:1614  newcandidate */\n      dup4\n        /* \"voteing.sol\":1588:1615  registerVoter[newcandidate] */\n      0xffffffffffffffffffffffffffffffffffffffff\n      and\n      0xffffffffffffffffffffffffffffffffffffffff\n      and\n      dup2\n      mstore\n      0x20\n      add\n      swap1\n      dup2\n      mstore\n      0x20\n      add\n      0x00\n      keccak256\n      0x00\n        /* \"voteing.sol\":1588:1620  registerVoter[newcandidate]=true */\n      0x0100\n      exp\n      dup2\n      sload\n      dup2\n      0xff\n      mul\n      not\n      and\n      swap1\n      dup4\n      iszero\n      iszero\n      mul\n      or\n      swap1\n      sstore\n      pop\n        /* \"voteing.sol\":1631:1645  totalApprovers */\n      0x05\n      0x00\n        /* \"voteing.sol\":1631:1647  totalApprovers++ */\n      dup2\n      sload\n      dup1\n      swap3\n      swap2\n      swap1\n      tag_121\n      swap1\n      tag_104\n      jump\t// in\n    tag_121:\n      swap2\n      swap1\n      pop\n      sstore\n      pop\n        /* \"voteing.sol\":1398:1655  {\r... */\n      pop\n        /* \"voteing.sol\":1351:1655  function approveApplication(uint index) public {\r... */\n      pop\n      jump\t// out\n        /* \"voteing.sol\":835:1162  function Register(string memory v,string memory a,address g) public {\r... */\n    tag_38:\n        /* \"voteing.sol\":922:935  registerStart */\n      0x00\n      0x15\n      swap1\n      sload\n      swap1\n      0x0100\n      exp\n      swap1\n      div\n      0xff\n      and\n        /* \"voteing.sol\":914:962  require(registerStart,\"Registration not start \") */\n      tag_123\n      jumpi\n      mload(0x40)\n      0x08c379a000000000000000000000000000000000000000000000000000000000\n      dup2\n      mstore\n      0x04\n      add\n      tag_124\n      swap1\n      tag_125\n      jump\t// in\n    tag_124:\n      mload(0x40)\n      dup1\n      swap2\n      sub\n      swap1\n      revert\n    tag_123:\n        /* \"voteing.sol\":999:1004  false */\n      0x00\n        /* \"voteing.sol\":981:1004  registerVoter[g]==false */\n      iszero\n      iszero\n        /* \"voteing.sol\":981:994  registerVoter */\n      0x01\n        /* \"voteing.sol\":981:997  registerVoter[g] */\n      0x00\n        /* \"voteing.sol\":995:996  g */\n      dup4\n        /* \"voteing.sol\":981:997  registerVoter[g] */\n      0xffffffffffffffffffffffffffffffffffffffff\n      and\n      0xffffffffffffffffffffffffffffffffffffffff\n      and\n      dup2\n      mstore\n      0x20\n      add\n      swap1\n      dup2\n      mstore\n      0x20\n      add\n      0x00\n      keccak256\n      0x00\n      swap1\n      sload\n      swap1\n      0x0100\n      exp\n      swap1\n      div\n      0xff\n      and\n        /* \"voteing.sol\":981:1004  registerVoter[g]==false */\n      iszero\n      iszero\n      eq\n        /* \"voteing.sol\":973:1041  require(registerVoter[g]==false,\"You already register successfully\") */\n      tag_126\n      jumpi\n      mload(0x40)\n      0x08c379a000000000000000000000000000000000000000000000000000000000\n      dup2\n      mstore\n      0x04\n      add\n      tag_127\n      swap1\n      tag_128\n      jump\t// in\n    tag_127:\n      mload(0x40)\n      dup1\n      swap2\n      sub\n      swap1\n      revert\n    tag_126:\n        /* \"voteing.sol\":1052:1085  Application memory newApplication */\n      0x00\n        /* \"voteing.sol\":1086:1110  Application(v,a,g,false) */\n      mload(0x40)\n      dup1\n      0x80\n      add\n      0x40\n      mstore\n      dup1\n        /* \"voteing.sol\":1098:1099  v */\n      dup6\n        /* \"voteing.sol\":1086:1110  Application(v,a,g,false) */\n      dup2\n      mstore\n      0x20\n      add\n        /* \"voteing.sol\":1100:1101  a */\n      dup5\n        /* \"voteing.sol\":1086:1110  Application(v,a,g,false) */\n      dup2\n      mstore\n      0x20\n      add\n        /* \"voteing.sol\":1102:1103  g */\n      dup4\n        /* \"voteing.sol\":1086:1110  Application(v,a,g,false) */\n      0xffffffffffffffffffffffffffffffffffffffff\n      and\n      dup2\n      mstore\n      0x20\n      add\n        /* \"voteing.sol\":1104:1109  false */\n      0x00\n        /* \"voteing.sol\":1086:1110  Application(v,a,g,false) */\n      iszero\n      iszero\n      dup2\n      mstore\n      pop\n        /* \"voteing.sol\":1052:1110  Application memory newApplication=Application(v,a,g,false) */\n      swap1\n      pop\n        /* \"voteing.sol\":1121:1133  applications */\n      0x02\n        /* \"voteing.sol\":1139:1153  newApplication */\n      dup2\n        /* \"voteing.sol\":1121:1154  applications.push(newApplication) */\n      swap1\n      dup1\n      0x01\n      dup2\n      sload\n      add\n      dup1\n      dup3\n      sstore\n      dup1\n      swap2\n      pop\n      pop\n      0x01\n      swap1\n      sub\n      swap1\n      0x00\n      mstore\n      keccak256(0x00, 0x20)\n      swap1\n      0x03\n      mul\n      add\n      0x00\n      swap1\n      swap2\n      swap1\n      swap2\n      swap1\n      swap2\n      pop\n      0x00\n      dup3\n      add\n      mload\n      dup2\n      0x00\n      add\n      swap1\n      dup1\n      mload\n      swap1\n      0x20\n      add\n      swap1\n      tag_130\n      swap3\n      swap2\n      swap1\n      tag_131\n      jump\t// in\n    tag_130:\n      pop\n      0x20\n      dup3\n      add\n      mload\n      dup2\n      0x01\n      add\n      swap1\n      dup1\n      mload\n      swap1\n      0x20\n      add\n      swap1\n      tag_132\n      swap3\n      swap2\n      swap1\n      tag_131\n      jump\t// in\n    tag_132:\n      pop\n      0x40\n      dup3\n      add\n      mload\n      dup2\n      0x02\n      add\n      exp(0x0100, 0x00)\n      dup2\n      sload\n      dup2\n      0xffffffffffffffffffffffffffffffffffffffff\n      mul\n      not\n      and\n      swap1\n      dup4\n      0xffffffffffffffffffffffffffffffffffffffff\n      and\n      mul\n      or\n      swap1\n      sstore\n      pop\n      0x60\n      dup3\n      add\n      mload\n      dup2\n      0x02\n      add\n      exp(0x0100, 0x14)\n      dup2\n      sload\n      dup2\n      0xff\n      mul\n      not\n      and\n      swap1\n      dup4\n      iszero\n      iszero\n      mul\n      or\n      swap1\n      sstore\n      pop\n      pop\n      pop\n        /* \"voteing.sol\":903:1162  {\r... */\n      pop\n        /* \"voteing.sol\":835:1162  function Register(string memory v,string memory a,address g) public {\r... */\n      pop\n      pop\n      pop\n      jump\t// out\n        /* \"voteing.sol\":1701:1993  function addCandidate(string memory n,string memory pn) public{\r... */\n    tag_42:\n        /* \"voteing.sol\":1794:1801  manager */\n      0x00\n      dup1\n      sload\n      swap1\n      0x0100\n      exp\n      swap1\n      div\n      0xffffffffffffffffffffffffffffffffffffffff\n      and\n        /* \"voteing.sol\":1782:1801  msg.sender==manager */\n      0xffffffffffffffffffffffffffffffffffffffff\n      and\n        /* \"voteing.sol\":1782:1792  msg.sender */\n      caller\n        /* \"voteing.sol\":1782:1801  msg.sender==manager */\n      0xffffffffffffffffffffffffffffffffffffffff\n      and\n      eq\n        /* \"voteing.sol\":1774:1825  require(msg.sender==manager,\"you are not an admin\") */\n      tag_134\n      jumpi\n      mload(0x40)\n      0x08c379a000000000000000000000000000000000000000000000000000000000\n      dup2\n      mstore\n      0x04\n      add\n      tag_135\n      swap1\n      tag_108\n      jump\t// in\n    tag_135:\n      mload(0x40)\n      dup1\n      swap2\n      sub\n      swap1\n      revert\n    tag_134:\n        /* \"voteing.sol\":1836:1866  Candidate storage newcandidate */\n      0x00\n        /* \"voteing.sol\":1867:1877  candidates */\n      0x03\n        /* \"voteing.sol\":1867:1884  candidates.push() */\n      0x01\n      dup2\n      0x01\n      dup2\n      sload\n      add\n      dup1\n      dup3\n      sstore\n      dup1\n      swap2\n      pop\n      pop\n      sub\n      swap1\n      0x00\n      mstore\n      keccak256(0x00, 0x20)\n      swap1\n      0x03\n      mul\n      add\n        /* \"voteing.sol\":1836:1884  Candidate storage newcandidate=candidates.push() */\n      swap1\n      pop\n        /* \"voteing.sol\":1913:1914  n */\n      dup3\n        /* \"voteing.sol\":1895:1907  newcandidate */\n      dup2\n        /* \"voteing.sol\":1895:1912  newcandidate.name */\n      0x00\n      add\n        /* \"voteing.sol\":1895:1914  newcandidate.name=n */\n      swap1\n      dup1\n      mload\n      swap1\n      0x20\n      add\n      swap1\n      tag_137\n      swap3\n      swap2\n      swap1\n      tag_131\n      jump\t// in\n    tag_137:\n      pop\n        /* \"voteing.sol\":1948:1950  pn */\n      dup2\n        /* \"voteing.sol\":1925:1937  newcandidate */\n      dup2\n        /* \"voteing.sol\":1925:1947  newcandidate.partyName */\n      0x01\n      add\n        /* \"voteing.sol\":1925:1950  newcandidate.partyName=pn */\n      swap1\n      dup1\n      mload\n      swap1\n      0x20\n      add\n      swap1\n      tag_138\n      swap3\n      swap2\n      swap1\n      tag_131\n      jump\t// in\n    tag_138:\n      pop\n        /* \"voteing.sol\":1984:1985  0 */\n      0x00\n        /* \"voteing.sol\":1961:1973  newcandidate */\n      dup2\n        /* \"voteing.sol\":1961:1983  newcandidate.voteCount */\n      0x02\n      add\n        /* \"voteing.sol\":1961:1985  newcandidate.voteCount=0 */\n      dup2\n      swap1\n      sstore\n      pop\n        /* \"voteing.sol\":1763:1993  {\r... */\n      pop\n        /* \"voteing.sol\":1701:1993  function addCandidate(string memory n,string memory pn) public{\r... */\n      pop\n      pop\n      jump\t// out\n        /* \"voteing.sol\":2900:3025  function startVoteing() public{\r... */\n    tag_44:\n        /* \"voteing.sol\":2961:2968  manager */\n      0x00\n      dup1\n      sload\n      swap1\n      0x0100\n      exp\n      swap1\n      div\n      0xffffffffffffffffffffffffffffffffffffffff\n      and\n        /* \"voteing.sol\":2949:2968  msg.sender==manager */\n      0xffffffffffffffffffffffffffffffffffffffff\n      and\n        /* \"voteing.sol\":2949:2959  msg.sender */\n      caller\n        /* \"voteing.sol\":2949:2968  msg.sender==manager */\n      0xffffffffffffffffffffffffffffffffffffffff\n      and\n      eq\n        /* \"voteing.sol\":2941:2992  require(msg.sender==manager,\"you are not an admin\") */\n      tag_140\n      jumpi\n      mload(0x40)\n      0x08c379a000000000000000000000000000000000000000000000000000000000\n      dup2\n      mstore\n      0x04\n      add\n      tag_141\n      swap1\n      tag_108\n      jump\t// in\n    tag_141:\n      mload(0x40)\n      dup1\n      swap2\n      sub\n      swap1\n      revert\n    tag_140:\n        /* \"voteing.sol\":3013:3017  true */\n      0x01\n        /* \"voteing.sol\":3003:3012  voteStart */\n      0x00\n      0x14\n        /* \"voteing.sol\":3003:3017  voteStart=true */\n      0x0100\n      exp\n      dup2\n      sload\n      dup2\n      0xff\n      mul\n      not\n      and\n      swap1\n      dup4\n      iszero\n      iszero\n      mul\n      or\n      swap1\n      sstore\n      pop\n        /* \"voteing.sol\":2900:3025  function startVoteing() public{\r... */\n      jump\t// out\n        /* \"voteing.sol\":668:697  Candidate[] public candidates */\n    tag_47:\n      0x03\n      dup2\n      dup2\n      sload\n      dup2\n      lt\n      tag_142\n      jumpi\n      0x00\n      dup1\n      revert\n    tag_142:\n      swap1\n      0x00\n      mstore\n      keccak256(0x00, 0x20)\n      swap1\n      0x03\n      mul\n      add\n      0x00\n      swap2\n      pop\n      swap1\n      pop\n      dup1\n      0x00\n      add\n      dup1\n      sload\n      tag_144\n      swap1\n      tag_145\n      jump\t// in\n    tag_144:\n      dup1\n      0x1f\n      add\n      0x20\n      dup1\n      swap2\n      div\n      mul\n      0x20\n      add\n      mload(0x40)\n      swap1\n      dup2\n      add\n      0x40\n      mstore\n      dup1\n      swap3\n      swap2\n      swap1\n      dup2\n      dup2\n      mstore\n      0x20\n      add\n      dup3\n      dup1\n      sload\n      tag_146\n      swap1\n      tag_145\n      jump\t// in\n    tag_146:\n      dup1\n      iszero\n      tag_147\n      jumpi\n      dup1\n      0x1f\n      lt\n      tag_148\n      jumpi\n      0x0100\n      dup1\n      dup4\n      sload\n      div\n      mul\n      dup4\n      mstore\n      swap2\n      0x20\n      add\n      swap2\n      jump(tag_147)\n    tag_148:\n      dup3\n      add\n      swap2\n      swap1\n      0x00\n      mstore\n      keccak256(0x00, 0x20)\n      swap1\n    tag_149:\n      dup2\n      sload\n      dup2\n      mstore\n      swap1\n      0x01\n      add\n      swap1\n      0x20\n      add\n      dup1\n      dup4\n      gt\n      tag_149\n      jumpi\n      dup3\n      swap1\n      sub\n      0x1f\n      and\n      dup3\n      add\n      swap2\n    tag_147:\n      pop\n      pop\n      pop\n      pop\n      pop\n      swap1\n      dup1\n      0x01\n      add\n      dup1\n      sload\n      tag_150\n      swap1\n      tag_145\n      jump\t// in\n    tag_150:\n      dup1\n      0x1f\n      add\n      0x20\n      dup1\n      swap2\n      div\n      mul\n      0x20\n      add\n      mload(0x40)\n      swap1\n      dup2\n      add\n      0x40\n      mstore\n      dup1\n      swap3\n      swap2\n      swap1\n      dup2\n      dup2\n      mstore\n      0x20\n      add\n      dup3\n      dup1\n      sload\n      tag_151\n      swap1\n      tag_145\n      jump\t// in\n    tag_151:\n      dup1\n      iszero\n      tag_152\n      jumpi\n      dup1\n      0x1f\n      lt\n      tag_153\n      jumpi\n      0x0100\n      dup1\n      dup4\n      sload\n      div\n      mul\n      dup4\n      mstore\n      swap2\n      0x20\n      add\n      swap2\n      jump(tag_152)\n    tag_153:\n      dup3\n      add\n      swap2\n      swap1\n      0x00\n      mstore\n      keccak256(0x00, 0x20)\n      swap1\n    tag_154:\n      dup2\n      sload\n      dup2\n      mstore\n      swap1\n      0x01\n      add\n      swap1\n      0x20\n      add\n      dup1\n      dup4\n      gt\n      tag_154\n      jumpi\n      dup3\n      swap1\n      sub\n      0x1f\n      and\n      dup3\n      add\n      swap2\n    tag_152:\n      pop\n      pop\n      pop\n      pop\n      pop\n      swap1\n      dup1\n      0x02\n      add\n      sload\n      swap1\n      pop\n      dup4\n      jump\t// out\n        /* \"voteing.sol\":578:621  mapping(address=>bool) public registerVoter */\n    tag_53:\n      mstore(0x20, 0x01)\n      dup1\n      0x00\n      mstore\n      keccak256(0x00, 0x40)\n      0x00\n      swap2\n      pop\n      sload\n      swap1\n      0x0100\n      exp\n      swap1\n      div\n      0xff\n      and\n      dup2\n      jump\t// out\n        /* \"voteing.sol\":489:511  address public manager */\n    tag_57:\n      0x00\n      dup1\n      sload\n      swap1\n      0x0100\n      exp\n      swap1\n      div\n      0xffffffffffffffffffffffffffffffffffffffff\n      and\n      dup2\n      jump\t// out\n        /* \"voteing.sol\":755:781  uint public totalApprovers */\n    tag_61:\n      sload(0x05)\n      dup2\n      jump\t// out\n        /* \"voteing.sol\":704:748  mapping(address=>bool) public completeVoters */\n    tag_66:\n      mstore(0x20, 0x04)\n      dup1\n      0x00\n      mstore\n      keccak256(0x00, 0x40)\n      0x00\n      swap2\n      pop\n      sload\n      swap1\n      0x0100\n      exp\n      swap1\n      div\n      0xff\n      and\n      dup2\n      jump\t// out\n        /* \"voteing.sol\":546:571  bool public registerStart */\n    tag_69:\n      0x00\n      0x15\n      swap1\n      sload\n      swap1\n      0x0100\n      exp\n      swap1\n      div\n      0xff\n      and\n      dup2\n      jump\t// out\n        /* \"voteing.sol\":1202:1311  function getAllapplications() public view returns(Application[] memory){\r... */\n    tag_72:\n        /* \"voteing.sol\":1252:1272  Application[] memory */\n      0x60\n        /* \"voteing.sol\":1291:1303  applications */\n      0x02\n        /* \"voteing.sol\":1284:1303  return applications */\n      dup1\n      sload\n      dup1\n      0x20\n      mul\n      0x20\n      add\n      mload(0x40)\n      swap1\n      dup2\n      add\n      0x40\n      mstore\n      dup1\n      swap3\n      swap2\n      swap1\n      dup2\n      dup2\n      mstore\n      0x20\n      add\n      0x00\n      swap1\n    tag_156:\n      dup3\n      dup3\n      lt\n      iszero\n      tag_157\n      jumpi\n      dup4\n      dup3\n      swap1\n      0x00\n      mstore\n      keccak256(0x00, 0x20)\n      swap1\n      0x03\n      mul\n      add\n      mload(0x40)\n      dup1\n      0x80\n      add\n      0x40\n      mstore\n      swap1\n      dup2\n      0x00\n      dup3\n      add\n      dup1\n      sload\n      tag_159\n      swap1\n      tag_145\n      jump\t// in\n    tag_159:\n      dup1\n      0x1f\n      add\n      0x20\n      dup1\n      swap2\n      div\n      mul\n      0x20\n      add\n      mload(0x40)\n      swap1\n      dup2\n      add\n      0x40\n      mstore\n      dup1\n      swap3\n      swap2\n      swap1\n      dup2\n      dup2\n      mstore\n      0x20\n      add\n      dup3\n      dup1\n      sload\n      tag_160\n      swap1\n      tag_145\n      jump\t// in\n    tag_160:\n      dup1\n      iszero\n      tag_161\n      jumpi\n      dup1\n      0x1f\n      lt\n      tag_162\n      jumpi\n      0x0100\n      dup1\n      dup4\n      sload\n      div\n      mul\n      dup4\n      mstore\n      swap2\n      0x20\n      add\n      swap2\n      jump(tag_161)\n    tag_162:\n      dup3\n      add\n      swap2\n      swap1\n      0x00\n      mstore\n      keccak256(0x00, 0x20)\n      swap1\n    tag_163:\n      dup2\n      sload\n      dup2\n      mstore\n      swap1\n      0x01\n      add\n      swap1\n      0x20\n      add\n      dup1\n      dup4\n      gt\n      tag_163\n      jumpi\n      dup3\n      swap1\n      sub\n      0x1f\n      and\n      dup3\n      add\n      swap2\n    tag_161:\n      pop\n      pop\n      pop\n      pop\n      pop\n      dup2\n      mstore\n      0x20\n      add\n      0x01\n      dup3\n      add\n      dup1\n      sload\n      tag_164\n      swap1\n      tag_145\n      jump\t// in\n    tag_164:\n      dup1\n      0x1f\n      add\n      0x20\n      dup1\n      swap2\n      div\n      mul\n      0x20\n      add\n      mload(0x40)\n      swap1\n      dup2\n      add\n      0x40\n      mstore\n      dup1\n      swap3\n      swap2\n      swap1\n      dup2\n      dup2\n      mstore\n      0x20\n      add\n      dup3\n      dup1\n      sload\n      tag_165\n      swap1\n      tag_145\n      jump\t// in\n    tag_165:\n      dup1\n      iszero\n      tag_166\n      jumpi\n      dup1\n      0x1f\n      lt\n      tag_167\n      jumpi\n      0x0100\n      dup1\n      dup4\n      sload\n      div\n      mul\n      dup4\n      mstore\n      swap2\n      0x20\n      add\n      swap2\n      jump(tag_166)\n    tag_167:\n      dup3\n      add\n      swap2\n      swap1\n      0x00\n      mstore\n      keccak256(0x00, 0x20)\n      swap1\n    tag_168:\n      dup2\n      sload\n      dup2\n      mstore\n      swap1\n      0x01\n      add\n      swap1\n      0x20\n      add\n      dup1\n      dup4\n      gt\n      tag_168\n      jumpi\n      dup3\n      swap1\n      sub\n      0x1f\n      and\n      dup3\n      add\n      swap2\n    tag_166:\n      pop\n      pop\n      pop\n      pop\n      pop\n      dup2\n      mstore\n      0x20\n      add\n      0x02\n      dup3\n      add\n      0x00\n      swap1\n      sload\n      swap1\n      0x0100\n      exp\n      swap1\n      div\n      0xffffffffffffffffffffffffffffffffffffffff\n      and\n      0xffffffffffffffffffffffffffffffffffffffff\n      and\n      0xffffffffffffffffffffffffffffffffffffffff\n      and\n      dup2\n      mstore\n      0x20\n      add\n      0x02\n      dup3\n      add\n      0x14\n      swap1\n      sload\n      swap1\n      0x0100\n      exp\n      swap1\n      div\n      0xff\n      and\n      iszero\n      iszero\n      iszero\n      iszero\n      dup2\n      mstore\n      pop\n      pop\n      dup2\n      mstore\n      0x20\n      add\n      swap1\n      0x01\n      add\n      swap1\n      jump(tag_156)\n    tag_157:\n      pop\n      pop\n      pop\n      pop\n      swap1\n      pop\n        /* \"voteing.sol\":1202:1311  function getAllapplications() public view returns(Application[] memory){\r... */\n      swap1\n      jump\t// out\n        /* \"voteing.sol\":628:661  Application[] public applications */\n    tag_77:\n      0x02\n      dup2\n      dup2\n      sload\n      dup2\n      lt\n      tag_169\n      jumpi\n      0x00\n      dup1\n      revert\n    tag_169:\n      swap1\n      0x00\n      mstore\n      keccak256(0x00, 0x20)\n      swap1\n      0x03\n      mul\n      add\n      0x00\n      swap2\n      pop\n      swap1\n      pop\n      dup1\n      0x00\n      add\n      dup1\n      sload\n      tag_171\n      swap1\n      tag_145\n      jump\t// in\n    tag_171:\n      dup1\n      0x1f\n      add\n      0x20\n      dup1\n      swap2\n      div\n      mul\n      0x20\n      add\n      mload(0x40)\n      swap1\n      dup2\n      add\n      0x40\n      mstore\n      dup1\n      swap3\n      swap2\n      swap1\n      dup2\n      dup2\n      mstore\n      0x20\n      add\n      dup3\n      dup1\n      sload\n      tag_172\n      swap1\n      tag_145\n      jump\t// in\n    tag_172:\n      dup1\n      iszero\n      tag_173\n      jumpi\n      dup1\n      0x1f\n      lt\n      tag_174\n      jumpi\n      0x0100\n      dup1\n      dup4\n      sload\n      div\n      mul\n      dup4\n      mstore\n      swap2\n      0x20\n      add\n      swap2\n      jump(tag_173)\n    tag_174:\n      dup3\n      add\n      swap2\n      swap1\n      0x00\n      mstore\n      keccak256(0x00, 0x20)\n      swap1\n    tag_175:\n      dup2\n      sload\n      dup2\n      mstore\n      swap1\n      0x01\n      add\n      swap1\n      0x20\n      add\n      dup1\n      dup4\n      gt\n      tag_175\n      jumpi\n      dup3\n      swap1\n      sub\n      0x1f\n      and\n      dup3\n      add\n      swap2\n    tag_173:\n      pop\n      pop\n      pop\n      pop\n      pop\n      swap1\n      dup1\n      0x01\n      add\n      dup1\n      sload\n      tag_176\n      swap1\n      tag_145\n      jump\t// in\n    tag_176:\n      dup1\n      0x1f\n      add\n      0x20\n      dup1\n      swap2\n      div\n      mul\n      0x20\n      add\n      mload(0x40)\n      swap1\n      dup2\n      add\n      0x40\n      mstore\n      dup1\n      swap3\n      swap2\n      swap1\n      dup2\n      dup2\n      mstore\n      0x20\n      add\n      dup3\n      dup1\n      sload\n      tag_177\n      swap1\n      tag_145\n      jump\t// in\n    tag_177:\n      dup1\n      iszero\n      tag_178\n      jumpi\n      dup1\n      0x1f\n      lt\n      tag_179\n      jumpi\n      0x0100\n      dup1\n      dup4\n      sload\n      div\n      mul\n      dup4\n      mstore\n      swap2\n      0x20\n      add\n      swap2\n      jump(tag_178)\n    tag_179:\n      dup3\n      add\n      swap2\n      swap1\n      0x00\n      mstore\n      keccak256(0x00, 0x20)\n      swap1\n    tag_180:\n      dup2\n      sload\n      dup2\n      mstore\n      swap1\n      0x01\n      add\n      swap1\n      0x20\n      add\n      dup1\n      dup4\n      gt\n      tag_180\n      jumpi\n      dup3\n      swap1\n      sub\n      0x1f\n      and\n      dup3\n      add\n      swap2\n    tag_178:\n      pop\n      pop\n      pop\n      pop\n      pop\n      swap1\n      dup1\n      0x02\n      add\n      0x00\n      swap1\n      sload\n      swap1\n      0x0100\n      exp\n      swap1\n      div\n      0xffffffffffffffffffffffffffffffffffffffff\n      and\n      swap1\n      dup1\n      0x02\n      add\n      0x14\n      swap1\n      sload\n      swap1\n      0x0100\n      exp\n      swap1\n      div\n      0xff\n      and\n      swap1\n      pop\n      dup5\n      jump\t// out\n        /* \"voteing.sol\":518:539  bool public voteStart */\n    tag_81:\n      0x00\n      0x14\n      swap1\n      sload\n      swap1\n      0x0100\n      exp\n      swap1\n      div\n      0xff\n      and\n      dup2\n      jump\t// out\n        /* \"voteing.sol\":2448:2551  function getAllcandidates() public view returns(Candidate[] memory){\r... */\n    tag_84:\n        /* \"voteing.sol\":2496:2514  Candidate[] memory */\n      0x60\n        /* \"voteing.sol\":2533:2543  candidates */\n      0x03\n        /* \"voteing.sol\":2526:2543  return candidates */\n      dup1\n      sload\n      dup1\n      0x20\n      mul\n      0x20\n      add\n      mload(0x40)\n      swap1\n      dup2\n      add\n      0x40\n      mstore\n      dup1\n      swap3\n      swap2\n      swap1\n      dup2\n      dup2\n      mstore\n      0x20\n      add\n      0x00\n      swap1\n    tag_182:\n      dup3\n      dup3\n      lt\n      iszero\n      tag_183\n      jumpi\n      dup4\n      dup3\n      swap1\n      0x00\n      mstore\n      keccak256(0x00, 0x20)\n      swap1\n      0x03\n      mul\n      add\n      mload(0x40)\n      dup1\n      0x60\n      add\n      0x40\n      mstore\n      swap1\n      dup2\n      0x00\n      dup3\n      add\n      dup1\n      sload\n      tag_185\n      swap1\n      tag_145\n      jump\t// in\n    tag_185:\n      dup1\n      0x1f\n      add\n      0x20\n      dup1\n      swap2\n      div\n      mul\n      0x20\n      add\n      mload(0x40)\n      swap1\n      dup2\n      add\n      0x40\n      mstore\n      dup1\n      swap3\n      swap2\n      swap1\n      dup2\n      dup2\n      mstore\n      0x20\n      add\n      dup3\n      dup1\n      sload\n      tag_186\n      swap1\n      tag_145\n      jump\t// in\n    tag_186:\n      dup1\n      iszero\n      tag_187\n      jumpi\n      dup1\n      0x1f\n      lt\n      tag_188\n      jumpi\n      0x0100\n      dup1\n      dup4\n      sload\n      div\n      mul\n      dup4\n      mstore\n      swap2\n      0x20\n      add\n      swap2\n      jump(tag_187)\n    tag_188:\n      dup3\n      add\n      swap2\n      swap1\n      0x00\n      mstore\n      keccak256(0x00, 0x20)\n      swap1\n    tag_189:\n      dup2\n      sload\n      dup2\n      mstore\n      swap1\n      0x01\n      add\n      swap1\n      0x20\n      add\n      dup1\n      dup4\n      gt\n      tag_189\n      jumpi\n      dup3\n      swap1\n      sub\n      0x1f\n      and\n      dup3\n      add\n      swap2\n    tag_187:\n      pop\n      pop\n      pop\n      pop\n      pop\n      dup2\n      mstore\n      0x20\n      add\n      0x01\n      dup3\n      add\n      dup1\n      sload\n      tag_190\n      swap1\n      tag_145\n      jump\t// in\n    tag_190:\n      dup1\n      0x1f\n      add\n      0x20\n      dup1\n      swap2\n      div\n      mul\n      0x20\n      add\n      mload(0x40)\n      swap1\n      dup2\n      add\n      0x40\n      mstore\n      dup1\n      swap3\n      swap2\n      swap1\n      dup2\n      dup2\n      mstore\n      0x20\n      add\n      dup3\n      dup1\n      sload\n      tag_191\n      swap1\n      tag_145\n      jump\t// in\n    tag_191:\n      dup1\n      iszero\n      tag_192\n      jumpi\n      dup1\n      0x1f\n      lt\n      tag_193\n      jumpi\n      0x0100\n      dup1\n      dup4\n      sload\n      div\n      mul\n      dup4\n      mstore\n      swap2\n      0x20\n      add\n      swap2\n      jump(tag_192)\n    tag_193:\n      dup3\n      add\n      swap2\n      swap1\n      0x00\n      mstore\n      keccak256(0x00, 0x20)\n      swap1\n    tag_194:\n      dup2\n      sload\n      dup2\n      mstore\n      swap1\n      0x01\n      add\n      swap1\n      0x20\n      add\n      dup1\n      dup4\n      gt\n      tag_194\n      jumpi\n      dup3\n      swap1\n      sub\n      0x1f\n      and\n      dup3\n      add\n      swap2\n    tag_192:\n      pop\n      pop\n      pop\n      pop\n      pop\n      dup2\n      mstore\n      0x20\n      add\n      0x02\n      dup3\n      add\n      sload\n      dup2\n      mstore\n      pop\n      pop\n      dup2\n      mstore\n      0x20\n      add\n      swap1\n      0x01\n      add\n      swap1\n      jump(tag_182)\n    tag_183:\n      pop\n      pop\n      pop\n      pop\n      swap1\n      pop\n        /* \"voteing.sol\":2448:2551  function getAllcandidates() public view returns(Candidate[] memory){\r... */\n      swap1\n      jump\t// out\n        /* \"voteing.sol\":2754:2888  function stopRegistration() public{\r... */\n    tag_88:\n        /* \"voteing.sol\":2819:2826  manager */\n      0x00\n      dup1\n      sload\n      swap1\n      0x0100\n      exp\n      swap1\n      div\n      0xffffffffffffffffffffffffffffffffffffffff\n      and\n        /* \"voteing.sol\":2807:2826  msg.sender==manager */\n      0xffffffffffffffffffffffffffffffffffffffff\n      and\n        /* \"voteing.sol\":2807:2817  msg.sender */\n      caller\n        /* \"voteing.sol\":2807:2826  msg.sender==manager */\n      0xffffffffffffffffffffffffffffffffffffffff\n      and\n      eq\n        /* \"voteing.sol\":2799:2850  require(msg.sender==manager,\"you are not an admin\") */\n      tag_196\n      jumpi\n      mload(0x40)\n      0x08c379a000000000000000000000000000000000000000000000000000000000\n      dup2\n      mstore\n      0x04\n      add\n      tag_197\n      swap1\n      tag_108\n      jump\t// in\n    tag_197:\n      mload(0x40)\n      dup1\n      swap2\n      sub\n      swap1\n      revert\n    tag_196:\n        /* \"voteing.sol\":2875:2880  false */\n      0x00\n        /* \"voteing.sol\":2861:2874  registerStart */\n      dup1\n      0x15\n        /* \"voteing.sol\":2861:2880  registerStart=false */\n      0x0100\n      exp\n      dup2\n      sload\n      dup2\n      0xff\n      mul\n      not\n      and\n      swap1\n      dup4\n      iszero\n      iszero\n      mul\n      or\n      swap1\n      sstore\n      pop\n        /* \"voteing.sol\":2754:2888  function stopRegistration() public{\r... */\n      jump\t// out\n    tag_131:\n      dup3\n      dup1\n      sload\n      tag_198\n      swap1\n      tag_145\n      jump\t// in\n    tag_198:\n      swap1\n      0x00\n      mstore\n      keccak256(0x00, 0x20)\n      swap1\n      0x1f\n      add\n      0x20\n      swap1\n      div\n      dup2\n      add\n      swap3\n      dup3\n      tag_200\n      jumpi\n      0x00\n      dup6\n      sstore\n      jump(tag_199)\n    tag_200:\n      dup3\n      0x1f\n      lt\n      tag_201\n      jumpi\n      dup1\n      mload\n      not(0xff)\n      and\n      dup4\n      dup1\n      add\n      or\n      dup6\n      sstore\n      jump(tag_199)\n    tag_201:\n      dup3\n      dup1\n      add\n      0x01\n      add\n      dup6\n      sstore\n      dup3\n      iszero\n      tag_199\n      jumpi\n      swap2\n      dup3\n      add\n    tag_202:\n      dup3\n      dup2\n      gt\n      iszero\n      tag_203\n      jumpi\n      dup3\n      mload\n      dup3\n      sstore\n      swap2\n      0x20\n      add\n      swap2\n      swap1\n      0x01\n      add\n      swap1\n      jump(tag_202)\n    tag_203:\n    tag_199:\n      pop\n      swap1\n      pop\n      tag_204\n      swap2\n      swap1\n      tag_205\n      jump\t// in\n    tag_204:\n      pop\n      swap1\n      jump\t// out\n    tag_205:\n    tag_206:\n      dup1\n      dup3\n      gt\n      iszero\n      tag_207\n      jumpi\n      0x00\n      dup2\n      0x00\n      swap1\n      sstore\n      pop\n      0x01\n      add\n      jump(tag_206)\n    tag_207:\n      pop\n      swap1\n      jump\t// out\n        /* \"#utility.yul\":7:419   */\n    tag_209:\n        /* \"#utility.yul\":85:90   */\n      0x00\n        /* \"#utility.yul\":110:176   */\n      tag_211\n        /* \"#utility.yul\":126:175   */\n      tag_212\n        /* \"#utility.yul\":168:174   */\n      dup5\n        /* \"#utility.yul\":126:175   */\n      tag_213\n      jump\t// in\n    tag_212:\n        /* \"#utility.yul\":110:176   */\n      tag_214\n      jump\t// in\n    tag_211:\n        /* \"#utility.yul\":101:176   */\n      swap1\n      pop\n        /* \"#utility.yul\":199:205   */\n      dup3\n        /* \"#utility.yul\":192:197   */\n      dup2\n        /* \"#utility.yul\":185:206   */\n      mstore\n        /* \"#utility.yul\":237:241   */\n      0x20\n        /* \"#utility.yul\":230:235   */\n      dup2\n        /* \"#utility.yul\":226:242   */\n      add\n        /* \"#utility.yul\":275:278   */\n      dup5\n        /* \"#utility.yul\":266:272   */\n      dup5\n        /* \"#utility.yul\":261:264   */\n      dup5\n        /* \"#utility.yul\":257:273   */\n      add\n        /* \"#utility.yul\":254:279   */\n      gt\n        /* \"#utility.yul\":251:363   */\n      iszero\n      tag_215\n      jumpi\n        /* \"#utility.yul\":282:361   */\n      tag_216\n      tag_217\n      jump\t// in\n    tag_216:\n        /* \"#utility.yul\":251:363   */\n    tag_215:\n        /* \"#utility.yul\":372:413   */\n      tag_218\n        /* \"#utility.yul\":406:412   */\n      dup5\n        /* \"#utility.yul\":401:404   */\n      dup3\n        /* \"#utility.yul\":396:399   */\n      dup6\n        /* \"#utility.yul\":372:413   */\n      tag_219\n      jump\t// in\n    tag_218:\n        /* \"#utility.yul\":91:419   */\n      pop\n        /* \"#utility.yul\":7:419   */\n      swap4\n      swap3\n      pop\n      pop\n      pop\n      jump\t// out\n        /* \"#utility.yul\":425:564   */\n    tag_220:\n        /* \"#utility.yul\":471:476   */\n      0x00\n        /* \"#utility.yul\":509:515   */\n      dup2\n        /* \"#utility.yul\":496:516   */\n      calldataload\n        /* \"#utility.yul\":487:516   */\n      swap1\n      pop\n        /* \"#utility.yul\":525:558   */\n      tag_222\n        /* \"#utility.yul\":552:557   */\n      dup2\n        /* \"#utility.yul\":525:558   */\n      tag_223\n      jump\t// in\n    tag_222:\n        /* \"#utility.yul\":425:564   */\n      swap3\n      swap2\n      pop\n      pop\n      jump\t// out\n        /* \"#utility.yul\":584:924   */\n    tag_224:\n        /* \"#utility.yul\":640:645   */\n      0x00\n        /* \"#utility.yul\":689:692   */\n      dup3\n        /* \"#utility.yul\":682:686   */\n      0x1f\n        /* \"#utility.yul\":674:680   */\n      dup4\n        /* \"#utility.yul\":670:687   */\n      add\n        /* \"#utility.yul\":666:693   */\n      slt\n        /* \"#utility.yul\":656:778   */\n      tag_226\n      jumpi\n        /* \"#utility.yul\":697:776   */\n      tag_227\n      tag_228\n      jump\t// in\n    tag_227:\n        /* \"#utility.yul\":656:778   */\n    tag_226:\n        /* \"#utility.yul\":814:820   */\n      dup2\n        /* \"#utility.yul\":801:821   */\n      calldataload\n        /* \"#utility.yul\":839:918   */\n      tag_229\n        /* \"#utility.yul\":914:917   */\n      dup5\n        /* \"#utility.yul\":906:912   */\n      dup3\n        /* \"#utility.yul\":899:903   */\n      0x20\n        /* \"#utility.yul\":891:897   */\n      dup7\n        /* \"#utility.yul\":887:904   */\n      add\n        /* \"#utility.yul\":839:918   */\n      tag_209\n      jump\t// in\n    tag_229:\n        /* \"#utility.yul\":830:918   */\n      swap2\n      pop\n        /* \"#utility.yul\":646:924   */\n      pop\n        /* \"#utility.yul\":584:924   */\n      swap3\n      swap2\n      pop\n      pop\n      jump\t// out\n        /* \"#utility.yul\":930:1069   */\n    tag_230:\n        /* \"#utility.yul\":976:981   */\n      0x00\n        /* \"#utility.yul\":1014:1020   */\n      dup2\n        /* \"#utility.yul\":1001:1021   */\n      calldataload\n        /* \"#utility.yul\":992:1021   */\n      swap1\n      pop\n        /* \"#utility.yul\":1030:1063   */\n      tag_232\n        /* \"#utility.yul\":1057:1062   */\n      dup2\n        /* \"#utility.yul\":1030:1063   */\n      tag_233\n      jump\t// in\n    tag_232:\n        /* \"#utility.yul\":930:1069   */\n      swap3\n      swap2\n      pop\n      pop\n      jump\t// out\n        /* \"#utility.yul\":1075:1404   */\n    tag_52:\n        /* \"#utility.yul\":1134:1140   */\n      0x00\n        /* \"#utility.yul\":1183:1185   */\n      0x20\n        /* \"#utility.yul\":1171:1180   */\n      dup3\n        /* \"#utility.yul\":1162:1169   */\n      dup5\n        /* \"#utility.yul\":1158:1181   */\n      sub\n        /* \"#utility.yul\":1154:1186   */\n      slt\n        /* \"#utility.yul\":1151:1270   */\n      iszero\n      tag_235\n      jumpi\n        /* \"#utility.yul\":1189:1268   */\n      tag_236\n      tag_237\n      jump\t// in\n    tag_236:\n        /* \"#utility.yul\":1151:1270   */\n    tag_235:\n        /* \"#utility.yul\":1309:1310   */\n      0x00\n        /* \"#utility.yul\":1334:1387   */\n      tag_238\n        /* \"#utility.yul\":1379:1386   */\n      dup5\n        /* \"#utility.yul\":1370:1376   */\n      dup3\n        /* \"#utility.yul\":1359:1368   */\n      dup6\n        /* \"#utility.yul\":1355:1377   */\n      add\n        /* \"#utility.yul\":1334:1387   */\n      tag_220\n      jump\t// in\n    tag_238:\n        /* \"#utility.yul\":1324:1387   */\n      swap2\n      pop\n        /* \"#utility.yul\":1280:1397   */\n      pop\n        /* \"#utility.yul\":1075:1404   */\n      swap3\n      swap2\n      pop\n      pop\n      jump\t// out\n        /* \"#utility.yul\":1410:2244   */\n    tag_41:\n        /* \"#utility.yul\":1498:1504   */\n      0x00\n        /* \"#utility.yul\":1506:1512   */\n      dup1\n        /* \"#utility.yul\":1555:1557   */\n      0x40\n        /* \"#utility.yul\":1543:1552   */\n      dup4\n        /* \"#utility.yul\":1534:1541   */\n      dup6\n        /* \"#utility.yul\":1530:1553   */\n      sub\n        /* \"#utility.yul\":1526:1558   */\n      slt\n        /* \"#utility.yul\":1523:1642   */\n      iszero\n      tag_240\n      jumpi\n        /* \"#utility.yul\":1561:1640   */\n      tag_241\n      tag_237\n      jump\t// in\n    tag_241:\n        /* \"#utility.yul\":1523:1642   */\n    tag_240:\n        /* \"#utility.yul\":1709:1710   */\n      0x00\n        /* \"#utility.yul\":1698:1707   */\n      dup4\n        /* \"#utility.yul\":1694:1711   */\n      add\n        /* \"#utility.yul\":1681:1712   */\n      calldataload\n        /* \"#utility.yul\":1739:1757   */\n      0xffffffffffffffff\n        /* \"#utility.yul\":1731:1737   */\n      dup2\n        /* \"#utility.yul\":1728:1758   */\n      gt\n        /* \"#utility.yul\":1725:1842   */\n      iszero\n      tag_242\n      jumpi\n        /* \"#utility.yul\":1761:1840   */\n      tag_243\n      tag_244\n      jump\t// in\n    tag_243:\n        /* \"#utility.yul\":1725:1842   */\n    tag_242:\n        /* \"#utility.yul\":1866:1929   */\n      tag_245\n        /* \"#utility.yul\":1921:1928   */\n      dup6\n        /* \"#utility.yul\":1912:1918   */\n      dup3\n        /* \"#utility.yul\":1901:1910   */\n      dup7\n        /* \"#utility.yul\":1897:1919   */\n      add\n        /* \"#utility.yul\":1866:1929   */\n      tag_224\n      jump\t// in\n    tag_245:\n        /* \"#utility.yul\":1856:1929   */\n      swap3\n      pop\n        /* \"#utility.yul\":1652:1939   */\n      pop\n        /* \"#utility.yul\":2006:2008   */\n      0x20\n        /* \"#utility.yul\":1995:2004   */\n      dup4\n        /* \"#utility.yul\":1991:2009   */\n      add\n        /* \"#utility.yul\":1978:2010   */\n      calldataload\n        /* \"#utility.yul\":2037:2055   */\n      0xffffffffffffffff\n        /* \"#utility.yul\":2029:2035   */\n      dup2\n        /* \"#utility.yul\":2026:2056   */\n      gt\n        /* \"#utility.yul\":2023:2140   */\n      iszero\n      tag_246\n      jumpi\n        /* \"#utility.yul\":2059:2138   */\n      tag_247\n      tag_244\n      jump\t// in\n    tag_247:\n        /* \"#utility.yul\":2023:2140   */\n    tag_246:\n        /* \"#utility.yul\":2164:2227   */\n      tag_248\n        /* \"#utility.yul\":2219:2226   */\n      dup6\n        /* \"#utility.yul\":2210:2216   */\n      dup3\n        /* \"#utility.yul\":2199:2208   */\n      dup7\n        /* \"#utility.yul\":2195:2217   */\n      add\n        /* \"#utility.yul\":2164:2227   */\n      tag_224\n      jump\t// in\n    tag_248:\n        /* \"#utility.yul\":2154:2227   */\n      swap2\n      pop\n        /* \"#utility.yul\":1949:2237   */\n      pop\n        /* \"#utility.yul\":1410:2244   */\n      swap3\n      pop\n      swap3\n      swap1\n      pop\n      jump\t// out\n        /* \"#utility.yul\":2250:3229   */\n    tag_37:\n        /* \"#utility.yul\":2347:2353   */\n      0x00\n        /* \"#utility.yul\":2355:2361   */\n      dup1\n        /* \"#utility.yul\":2363:2369   */\n      0x00\n        /* \"#utility.yul\":2412:2414   */\n      0x60\n        /* \"#utility.yul\":2400:2409   */\n      dup5\n        /* \"#utility.yul\":2391:2398   */\n      dup7\n        /* \"#utility.yul\":2387:2410   */\n      sub\n        /* \"#utility.yul\":2383:2415   */\n      slt\n        /* \"#utility.yul\":2380:2499   */\n      iszero\n      tag_250\n      jumpi\n        /* \"#utility.yul\":2418:2497   */\n      tag_251\n      tag_237\n      jump\t// in\n    tag_251:\n        /* \"#utility.yul\":2380:2499   */\n    tag_250:\n        /* \"#utility.yul\":2566:2567   */\n      0x00\n        /* \"#utility.yul\":2555:2564   */\n      dup5\n        /* \"#utility.yul\":2551:2568   */\n      add\n        /* \"#utility.yul\":2538:2569   */\n      calldataload\n        /* \"#utility.yul\":2596:2614   */\n      0xffffffffffffffff\n        /* \"#utility.yul\":2588:2594   */\n      dup2\n        /* \"#utility.yul\":2585:2615   */\n      gt\n        /* \"#utility.yul\":2582:2699   */\n      iszero\n      tag_252\n      jumpi\n        /* \"#utility.yul\":2618:2697   */\n      tag_253\n      tag_244\n      jump\t// in\n    tag_253:\n        /* \"#utility.yul\":2582:2699   */\n    tag_252:\n        /* \"#utility.yul\":2723:2786   */\n      tag_254\n        /* \"#utility.yul\":2778:2785   */\n      dup7\n        /* \"#utility.yul\":2769:2775   */\n      dup3\n        /* \"#utility.yul\":2758:2767   */\n      dup8\n        /* \"#utility.yul\":2754:2776   */\n      add\n        /* \"#utility.yul\":2723:2786   */\n      tag_224\n      jump\t// in\n    tag_254:\n        /* \"#utility.yul\":2713:2786   */\n      swap4\n      pop\n        /* \"#utility.yul\":2509:2796   */\n      pop\n        /* \"#utility.yul\":2863:2865   */\n      0x20\n        /* \"#utility.yul\":2852:2861   */\n      dup5\n        /* \"#utility.yul\":2848:2866   */\n      add\n        /* \"#utility.yul\":2835:2867   */\n      calldataload\n        /* \"#utility.yul\":2894:2912   */\n      0xffffffffffffffff\n        /* \"#utility.yul\":2886:2892   */\n      dup2\n        /* \"#utility.yul\":2883:2913   */\n      gt\n        /* \"#utility.yul\":2880:2997   */\n      iszero\n      tag_255\n      jumpi\n        /* \"#utility.yul\":2916:2995   */\n      tag_256\n      tag_244\n      jump\t// in\n    tag_256:\n        /* \"#utility.yul\":2880:2997   */\n    tag_255:\n        /* \"#utility.yul\":3021:3084   */\n      tag_257\n        /* \"#utility.yul\":3076:3083   */\n      dup7\n        /* \"#utility.yul\":3067:3073   */\n      dup3\n        /* \"#utility.yul\":3056:3065   */\n      dup8\n        /* \"#utility.yul\":3052:3074   */\n      add\n        /* \"#utility.yul\":3021:3084   */\n      tag_224\n      jump\t// in\n    tag_257:\n        /* \"#utility.yul\":3011:3084   */\n      swap3\n      pop\n        /* \"#utility.yul\":2806:3094   */\n      pop\n        /* \"#utility.yul\":3133:3135   */\n      0x40\n        /* \"#utility.yul\":3159:3212   */\n      tag_258\n        /* \"#utility.yul\":3204:3211   */\n      dup7\n        /* \"#utility.yul\":3195:3201   */\n      dup3\n        /* \"#utility.yul\":3184:3193   */\n      dup8\n        /* \"#utility.yul\":3180:3202   */\n      add\n        /* \"#utility.yul\":3159:3212   */\n      tag_220\n      jump\t// in\n    tag_258:\n        /* \"#utility.yul\":3149:3212   */\n      swap2\n      pop\n        /* \"#utility.yul\":3104:3222   */\n      pop\n        /* \"#utility.yul\":2250:3229   */\n      swap3\n      pop\n      swap3\n      pop\n      swap3\n      jump\t// out\n        /* \"#utility.yul\":3235:3564   */\n    tag_26:\n        /* \"#utility.yul\":3294:3300   */\n      0x00\n        /* \"#utility.yul\":3343:3345   */\n      0x20\n        /* \"#utility.yul\":3331:3340   */\n      dup3\n        /* \"#utility.yul\":3322:3329   */\n      dup5\n        /* \"#utility.yul\":3318:3341   */\n      sub\n        /* \"#utility.yul\":3314:3346   */\n      slt\n        /* \"#utility.yul\":3311:3430   */\n      iszero\n      tag_260\n      jumpi\n        /* \"#utility.yul\":3349:3428   */\n      tag_261\n      tag_237\n      jump\t// in\n    tag_261:\n        /* \"#utility.yul\":3311:3430   */\n    tag_260:\n        /* \"#utility.yul\":3469:3470   */\n      0x00\n        /* \"#utility.yul\":3494:3547   */\n      tag_262\n        /* \"#utility.yul\":3539:3546   */\n      dup5\n        /* \"#utility.yul\":3530:3536   */\n      dup3\n        /* \"#utility.yul\":3519:3528   */\n      dup6\n        /* \"#utility.yul\":3515:3537   */\n      add\n        /* \"#utility.yul\":3494:3547   */\n      tag_230\n      jump\t// in\n    tag_262:\n        /* \"#utility.yul\":3484:3547   */\n      swap2\n      pop\n        /* \"#utility.yul\":3440:3557   */\n      pop\n        /* \"#utility.yul\":3235:3564   */\n      swap3\n      swap2\n      pop\n      pop\n      jump\t// out\n        /* \"#utility.yul\":3570:3834   */\n    tag_263:\n        /* \"#utility.yul\":3693:3703   */\n      0x00\n        /* \"#utility.yul\":3728:3828   */\n      tag_265\n        /* \"#utility.yul\":3824:3827   */\n      dup4\n        /* \"#utility.yul\":3816:3822   */\n      dup4\n        /* \"#utility.yul\":3728:3828   */\n      tag_266\n      jump\t// in\n    tag_265:\n        /* \"#utility.yul\":3714:3828   */\n      swap1\n      pop\n        /* \"#utility.yul\":3570:3834   */\n      swap3\n      swap2\n      pop\n      pop\n      jump\t// out\n        /* \"#utility.yul\":3840:4096   */\n    tag_267:\n        /* \"#utility.yul\":3959:3969   */\n      0x00\n        /* \"#utility.yul\":3994:4090   */\n      tag_269\n        /* \"#utility.yul\":4086:4089   */\n      dup4\n        /* \"#utility.yul\":4078:4084   */\n      dup4\n        /* \"#utility.yul\":3994:4090   */\n      tag_270\n      jump\t// in\n    tag_269:\n        /* \"#utility.yul\":3980:4090   */\n      swap1\n      pop\n        /* \"#utility.yul\":3840:4096   */\n      swap3\n      swap2\n      pop\n      pop\n      jump\t// out\n        /* \"#utility.yul\":4102:4210   */\n    tag_271:\n        /* \"#utility.yul\":4179:4203   */\n      tag_273\n        /* \"#utility.yul\":4197:4202   */\n      dup2\n        /* \"#utility.yul\":4179:4203   */\n      tag_274\n      jump\t// in\n    tag_273:\n        /* \"#utility.yul\":4174:4177   */\n      dup3\n        /* \"#utility.yul\":4167:4204   */\n      mstore\n        /* \"#utility.yul\":4102:4210   */\n      pop\n      pop\n      jump\t// out\n        /* \"#utility.yul\":4216:4334   */\n    tag_275:\n        /* \"#utility.yul\":4303:4327   */\n      tag_277\n        /* \"#utility.yul\":4321:4326   */\n      dup2\n        /* \"#utility.yul\":4303:4327   */\n      tag_274\n      jump\t// in\n    tag_277:\n        /* \"#utility.yul\":4298:4301   */\n      dup3\n        /* \"#utility.yul\":4291:4328   */\n      mstore\n        /* \"#utility.yul\":4216:4334   */\n      pop\n      pop\n      jump\t// out\n        /* \"#utility.yul\":4408:5535   */\n    tag_278:\n        /* \"#utility.yul\":4581:4584   */\n      0x00\n        /* \"#utility.yul\":4610:4691   */\n      tag_280\n        /* \"#utility.yul\":4685:4690   */\n      dup3\n        /* \"#utility.yul\":4610:4691   */\n      tag_281\n      jump\t// in\n    tag_280:\n        /* \"#utility.yul\":4707:4820   */\n      tag_282\n        /* \"#utility.yul\":4813:4819   */\n      dup2\n        /* \"#utility.yul\":4808:4811   */\n      dup6\n        /* \"#utility.yul\":4707:4820   */\n      tag_283\n      jump\t// in\n    tag_282:\n        /* \"#utility.yul\":4700:4820   */\n      swap4\n      pop\n        /* \"#utility.yul\":4846:4849   */\n      dup4\n        /* \"#utility.yul\":4891:4895   */\n      0x20\n        /* \"#utility.yul\":4883:4889   */\n      dup3\n        /* \"#utility.yul\":4879:4896   */\n      mul\n        /* \"#utility.yul\":4874:4877   */\n      dup6\n        /* \"#utility.yul\":4870:4897   */\n      add\n        /* \"#utility.yul\":4921:5004   */\n      tag_284\n        /* \"#utility.yul\":4998:5003   */\n      dup6\n        /* \"#utility.yul\":4921:5004   */\n      tag_285\n      jump\t// in\n    tag_284:\n        /* \"#utility.yul\":5027:5034   */\n      dup1\n        /* \"#utility.yul\":5058:5059   */\n      0x00\n        /* \"#utility.yul\":5043:5490   */\n    tag_286:\n        /* \"#utility.yul\":5068:5074   */\n      dup6\n        /* \"#utility.yul\":5065:5066   */\n      dup2\n        /* \"#utility.yul\":5062:5075   */\n      lt\n        /* \"#utility.yul\":5043:5490   */\n      iszero\n      tag_288\n      jumpi\n        /* \"#utility.yul\":5139:5148   */\n      dup5\n        /* \"#utility.yul\":5133:5137   */\n      dup5\n        /* \"#utility.yul\":5129:5149   */\n      sub\n        /* \"#utility.yul\":5124:5127   */\n      dup10\n        /* \"#utility.yul\":5117:5150   */\n      mstore\n        /* \"#utility.yul\":5190:5196   */\n      dup2\n        /* \"#utility.yul\":5184:5197   */\n      mload\n        /* \"#utility.yul\":5218:5336   */\n      tag_289\n        /* \"#utility.yul\":5331:5335   */\n      dup6\n        /* \"#utility.yul\":5316:5329   */\n      dup3\n        /* \"#utility.yul\":5218:5336   */\n      tag_263\n      jump\t// in\n    tag_289:\n        /* \"#utility.yul\":5210:5336   */\n      swap5\n      pop\n        /* \"#utility.yul\":5359:5446   */\n      tag_290\n        /* \"#utility.yul\":5439:5445   */\n      dup4\n        /* \"#utility.yul\":5359:5446   */\n      tag_291\n      jump\t// in\n    tag_290:\n        /* \"#utility.yul\":5349:5446   */\n      swap3\n      pop\n        /* \"#utility.yul\":5475:5479   */\n      0x20\n        /* \"#utility.yul\":5470:5473   */\n      dup11\n        /* \"#utility.yul\":5466:5480   */\n      add\n        /* \"#utility.yul\":5459:5480   */\n      swap10\n      pop\n        /* \"#utility.yul\":5103:5490   */\n      pop\n        /* \"#utility.yul\":5090:5091   */\n      0x01\n        /* \"#utility.yul\":5087:5088   */\n      dup2\n        /* \"#utility.yul\":5083:5092   */\n      add\n        /* \"#utility.yul\":5078:5092   */\n      swap1\n      pop\n        /* \"#utility.yul\":5043:5490   */\n      jump(tag_286)\n    tag_288:\n        /* \"#utility.yul\":5047:5061   */\n      pop\n        /* \"#utility.yul\":5506:5510   */\n      dup3\n        /* \"#utility.yul\":5499:5510   */\n      swap8\n      pop\n        /* \"#utility.yul\":5526:5529   */\n      dup8\n        /* \"#utility.yul\":5519:5529   */\n      swap6\n      pop\n        /* \"#utility.yul\":4586:5535   */\n      pop\n      pop\n      pop\n      pop\n      pop\n        /* \"#utility.yul\":4408:5535   */\n      swap3\n      swap2\n      pop\n      pop\n      jump\t// out\n        /* \"#utility.yul\":5605:6716   */\n    tag_292:\n        /* \"#utility.yul\":5774:5777   */\n      0x00\n        /* \"#utility.yul\":5803:5882   */\n      tag_294\n        /* \"#utility.yul\":5876:5881   */\n      dup3\n        /* \"#utility.yul\":5803:5882   */\n      tag_295\n      jump\t// in\n    tag_294:\n        /* \"#utility.yul\":5898:6009   */\n      tag_296\n        /* \"#utility.yul\":6002:6008   */\n      dup2\n        /* \"#utility.yul\":5997:6000   */\n      dup6\n        /* \"#utility.yul\":5898:6009   */\n      tag_297\n      jump\t// in\n    tag_296:\n        /* \"#utility.yul\":5891:6009   */\n      swap4\n      pop\n        /* \"#utility.yul\":6035:6038   */\n      dup4\n        /* \"#utility.yul\":6080:6084   */\n      0x20\n        /* \"#utility.yul\":6072:6078   */\n      dup3\n        /* \"#utility.yul\":6068:6085   */\n      mul\n        /* \"#utility.yul\":6063:6066   */\n      dup6\n        /* \"#utility.yul\":6059:6086   */\n      add\n        /* \"#utility.yul\":6110:6191   */\n      tag_298\n        /* \"#utility.yul\":6185:6190   */\n      dup6\n        /* \"#utility.yul\":6110:6191   */\n      tag_299\n      jump\t// in\n    tag_298:\n        /* \"#utility.yul\":6214:6221   */\n      dup1\n        /* \"#utility.yul\":6245:6246   */\n      0x00\n        /* \"#utility.yul\":6230:6671   */\n    tag_300:\n        /* \"#utility.yul\":6255:6261   */\n      dup6\n        /* \"#utility.yul\":6252:6253   */\n      dup2\n        /* \"#utility.yul\":6249:6262   */\n      lt\n        /* \"#utility.yul\":6230:6671   */\n      iszero\n      tag_302\n      jumpi\n        /* \"#utility.yul\":6326:6335   */\n      dup5\n        /* \"#utility.yul\":6320:6324   */\n      dup5\n        /* \"#utility.yul\":6316:6336   */\n      sub\n        /* \"#utility.yul\":6311:6314   */\n      dup10\n        /* \"#utility.yul\":6304:6337   */\n      mstore\n        /* \"#utility.yul\":6377:6383   */\n      dup2\n        /* \"#utility.yul\":6371:6384   */\n      mload\n        /* \"#utility.yul\":6405:6519   */\n      tag_303\n        /* \"#utility.yul\":6514:6518   */\n      dup6\n        /* \"#utility.yul\":6499:6512   */\n      dup3\n        /* \"#utility.yul\":6405:6519   */\n      tag_267\n      jump\t// in\n    tag_303:\n        /* \"#utility.yul\":6397:6519   */\n      swap5\n      pop\n        /* \"#utility.yul\":6542:6627   */\n      tag_304\n        /* \"#utility.yul\":6620:6626   */\n      dup4\n        /* \"#utility.yul\":6542:6627   */\n      tag_305\n      jump\t// in\n    tag_304:\n        /* \"#utility.yul\":6532:6627   */\n      swap3\n      pop\n        /* \"#utility.yul\":6656:6660   */\n      0x20\n        /* \"#utility.yul\":6651:6654   */\n      dup11\n        /* \"#utility.yul\":6647:6661   */\n      add\n        /* \"#utility.yul\":6640:6661   */\n      swap10\n      pop\n        /* \"#utility.yul\":6290:6671   */\n      pop\n        /* \"#utility.yul\":6277:6278   */\n      0x01\n        /* \"#utility.yul\":6274:6275   */\n      dup2\n        /* \"#utility.yul\":6270:6279   */\n      add\n        /* \"#utility.yul\":6265:6279   */\n      swap1\n      pop\n        /* \"#utility.yul\":6230:6671   */\n      jump(tag_300)\n    tag_302:\n        /* \"#utility.yul\":6234:6248   */\n      pop\n        /* \"#utility.yul\":6687:6691   */\n      dup3\n        /* \"#utility.yul\":6680:6691   */\n      swap8\n      pop\n        /* \"#utility.yul\":6707:6710   */\n      dup8\n        /* \"#utility.yul\":6700:6710   */\n      swap6\n      pop\n        /* \"#utility.yul\":5779:6716   */\n      pop\n      pop\n      pop\n      pop\n      pop\n        /* \"#utility.yul\":5605:6716   */\n      swap3\n      swap2\n      pop\n      pop\n      jump\t// out\n        /* \"#utility.yul\":6722:6821   */\n    tag_306:\n        /* \"#utility.yul\":6793:6814   */\n      tag_308\n        /* \"#utility.yul\":6808:6813   */\n      dup2\n        /* \"#utility.yul\":6793:6814   */\n      tag_309\n      jump\t// in\n    tag_308:\n        /* \"#utility.yul\":6788:6791   */\n      dup3\n        /* \"#utility.yul\":6781:6815   */\n      mstore\n        /* \"#utility.yul\":6722:6821   */\n      pop\n      pop\n      jump\t// out\n        /* \"#utility.yul\":6827:6936   */\n    tag_310:\n        /* \"#utility.yul\":6908:6929   */\n      tag_312\n        /* \"#utility.yul\":6923:6928   */\n      dup2\n        /* \"#utility.yul\":6908:6929   */\n      tag_309\n      jump\t// in\n    tag_312:\n        /* \"#utility.yul\":6903:6906   */\n      dup3\n        /* \"#utility.yul\":6896:6930   */\n      mstore\n        /* \"#utility.yul\":6827:6936   */\n      pop\n      pop\n      jump\t// out\n        /* \"#utility.yul\":6942:7286   */\n    tag_313:\n        /* \"#utility.yul\":7020:7023   */\n      0x00\n        /* \"#utility.yul\":7048:7087   */\n      tag_315\n        /* \"#utility.yul\":7081:7086   */\n      dup3\n        /* \"#utility.yul\":7048:7087   */\n      tag_316\n      jump\t// in\n    tag_315:\n        /* \"#utility.yul\":7103:7164   */\n      tag_317\n        /* \"#utility.yul\":7157:7163   */\n      dup2\n        /* \"#utility.yul\":7152:7155   */\n      dup6\n        /* \"#utility.yul\":7103:7164   */\n      tag_318\n      jump\t// in\n    tag_317:\n        /* \"#utility.yul\":7096:7164   */\n      swap4\n      pop\n        /* \"#utility.yul\":7173:7225   */\n      tag_319\n        /* \"#utility.yul\":7218:7224   */\n      dup2\n        /* \"#utility.yul\":7213:7216   */\n      dup6\n        /* \"#utility.yul\":7206:7210   */\n      0x20\n        /* \"#utility.yul\":7199:7204   */\n      dup7\n        /* \"#utility.yul\":7195:7211   */\n      add\n        /* \"#utility.yul\":7173:7225   */\n      tag_320\n      jump\t// in\n    tag_319:\n        /* \"#utility.yul\":7250:7279   */\n      tag_321\n        /* \"#utility.yul\":7272:7278   */\n      dup2\n        /* \"#utility.yul\":7250:7279   */\n      tag_322\n      jump\t// in\n    tag_321:\n        /* \"#utility.yul\":7245:7248   */\n      dup5\n        /* \"#utility.yul\":7241:7280   */\n      add\n        /* \"#utility.yul\":7234:7280   */\n      swap2\n      pop\n        /* \"#utility.yul\":7024:7286   */\n      pop\n        /* \"#utility.yul\":6942:7286   */\n      swap3\n      swap2\n      pop\n      pop\n      jump\t// out\n        /* \"#utility.yul\":7292:7656   */\n    tag_323:\n        /* \"#utility.yul\":7380:7383   */\n      0x00\n        /* \"#utility.yul\":7408:7447   */\n      tag_325\n        /* \"#utility.yul\":7441:7446   */\n      dup3\n        /* \"#utility.yul\":7408:7447   */\n      tag_316\n      jump\t// in\n    tag_325:\n        /* \"#utility.yul\":7463:7534   */\n      tag_326\n        /* \"#utility.yul\":7527:7533   */\n      dup2\n        /* \"#utility.yul\":7522:7525   */\n      dup6\n        /* \"#utility.yul\":7463:7534   */\n      tag_327\n      jump\t// in\n    tag_326:\n        /* \"#utility.yul\":7456:7534   */\n      swap4\n      pop\n        /* \"#utility.yul\":7543:7595   */\n      tag_328\n        /* \"#utility.yul\":7588:7594   */\n      dup2\n        /* \"#utility.yul\":7583:7586   */\n      dup6\n        /* \"#utility.yul\":7576:7580   */\n      0x20\n        /* \"#utility.yul\":7569:7574   */\n      dup7\n        /* \"#utility.yul\":7565:7581   */\n      add\n        /* \"#utility.yul\":7543:7595   */\n      tag_320\n      jump\t// in\n    tag_328:\n        /* \"#utility.yul\":7620:7649   */\n      tag_329\n        /* \"#utility.yul\":7642:7648   */\n      dup2\n        /* \"#utility.yul\":7620:7649   */\n      tag_322\n      jump\t// in\n    tag_329:\n        /* \"#utility.yul\":7615:7618   */\n      dup5\n        /* \"#utility.yul\":7611:7650   */\n      add\n        /* \"#utility.yul\":7604:7650   */\n      swap2\n      pop\n        /* \"#utility.yul\":7384:7656   */\n      pop\n        /* \"#utility.yul\":7292:7656   */\n      swap3\n      swap2\n      pop\n      pop\n      jump\t// out\n        /* \"#utility.yul\":7662:8028   */\n    tag_330:\n        /* \"#utility.yul\":7804:7807   */\n      0x00\n        /* \"#utility.yul\":7825:7892   */\n      tag_332\n        /* \"#utility.yul\":7889:7891   */\n      0x1c\n        /* \"#utility.yul\":7884:7887   */\n      dup4\n        /* \"#utility.yul\":7825:7892   */\n      tag_327\n      jump\t// in\n    tag_332:\n        /* \"#utility.yul\":7818:7892   */\n      swap2\n      pop\n        /* \"#utility.yul\":7901:7994   */\n      tag_333\n        /* \"#utility.yul\":7990:7993   */\n      dup3\n        /* \"#utility.yul\":7901:7994   */\n      tag_334\n      jump\t// in\n    tag_333:\n        /* \"#utility.yul\":8019:8021   */\n      0x20\n        /* \"#utility.yul\":8014:8017   */\n      dup3\n        /* \"#utility.yul\":8010:8022   */\n      add\n        /* \"#utility.yul\":8003:8022   */\n      swap1\n      pop\n        /* \"#utility.yul\":7662:8028   */\n      swap2\n      swap1\n      pop\n      jump\t// out\n        /* \"#utility.yul\":8034:8400   */\n    tag_335:\n        /* \"#utility.yul\":8176:8179   */\n      0x00\n        /* \"#utility.yul\":8197:8264   */\n      tag_337\n        /* \"#utility.yul\":8261:8263   */\n      0x12\n        /* \"#utility.yul\":8256:8259   */\n      dup4\n        /* \"#utility.yul\":8197:8264   */\n      tag_327\n      jump\t// in\n    tag_337:\n        /* \"#utility.yul\":8190:8264   */\n      swap2\n      pop\n        /* \"#utility.yul\":8273:8366   */\n      tag_338\n        /* \"#utility.yul\":8362:8365   */\n      dup3\n        /* \"#utility.yul\":8273:8366   */\n      tag_339\n      jump\t// in\n    tag_338:\n        /* \"#utility.yul\":8391:8393   */\n      0x20\n        /* \"#utility.yul\":8386:8389   */\n      dup3\n        /* \"#utility.yul\":8382:8394   */\n      add\n        /* \"#utility.yul\":8375:8394   */\n      swap1\n      pop\n        /* \"#utility.yul\":8034:8400   */\n      swap2\n      swap1\n      pop\n      jump\t// out\n        /* \"#utility.yul\":8406:8772   */\n    tag_340:\n        /* \"#utility.yul\":8548:8551   */\n      0x00\n        /* \"#utility.yul\":8569:8636   */\n      tag_342\n        /* \"#utility.yul\":8633:8635   */\n      0x14\n        /* \"#utility.yul\":8628:8631   */\n      dup4\n        /* \"#utility.yul\":8569:8636   */\n      tag_327\n      jump\t// in\n    tag_342:\n        /* \"#utility.yul\":8562:8636   */\n      swap2\n      pop\n        /* \"#utility.yul\":8645:8738   */\n      tag_343\n        /* \"#utility.yul\":8734:8737   */\n      dup3\n        /* \"#utility.yul\":8645:8738   */\n      tag_344\n      jump\t// in\n    tag_343:\n        /* \"#utility.yul\":8763:8765   */\n      0x20\n        /* \"#utility.yul\":8758:8761   */\n      dup3\n        /* \"#utility.yul\":8754:8766   */\n      add\n        /* \"#utility.yul\":8747:8766   */\n      swap1\n      pop\n        /* \"#utility.yul\":8406:8772   */\n      swap2\n      swap1\n      pop\n      jump\t// out\n        /* \"#utility.yul\":8778:9144   */\n    tag_345:\n        /* \"#utility.yul\":8920:8923   */\n      0x00\n        /* \"#utility.yul\":8941:9008   */\n      tag_347\n        /* \"#utility.yul\":9005:9007   */\n      0x17\n        /* \"#utility.yul\":9000:9003   */\n      dup4\n        /* \"#utility.yul\":8941:9008   */\n      tag_327\n      jump\t// in\n    tag_347:\n        /* \"#utility.yul\":8934:9008   */\n      swap2\n      pop\n        /* \"#utility.yul\":9017:9110   */\n      tag_348\n        /* \"#utility.yul\":9106:9109   */\n      dup3\n        /* \"#utility.yul\":9017:9110   */\n      tag_349\n      jump\t// in\n    tag_348:\n        /* \"#utility.yul\":9135:9137   */\n      0x20\n        /* \"#utility.yul\":9130:9133   */\n      dup3\n        /* \"#utility.yul\":9126:9138   */\n      add\n        /* \"#utility.yul\":9119:9138   */\n      swap1\n      pop\n        /* \"#utility.yul\":8778:9144   */\n      swap2\n      swap1\n      pop\n      jump\t// out\n        /* \"#utility.yul\":9150:9516   */\n    tag_350:\n        /* \"#utility.yul\":9292:9295   */\n      0x00\n        /* \"#utility.yul\":9313:9380   */\n      tag_352\n        /* \"#utility.yul\":9377:9379   */\n      0x21\n        /* \"#utility.yul\":9372:9375   */\n      dup4\n        /* \"#utility.yul\":9313:9380   */\n      tag_327\n      jump\t// in\n    tag_352:\n        /* \"#utility.yul\":9306:9380   */\n      swap2\n      pop\n        /* \"#utility.yul\":9389:9482   */\n      tag_353\n        /* \"#utility.yul\":9478:9481   */\n      dup3\n        /* \"#utility.yul\":9389:9482   */\n      tag_354\n      jump\t// in\n    tag_353:\n        /* \"#utility.yul\":9507:9509   */\n      0x40\n        /* \"#utility.yul\":9502:9505   */\n      dup3\n        /* \"#utility.yul\":9498:9510   */\n      add\n        /* \"#utility.yul\":9491:9510   */\n      swap1\n      pop\n        /* \"#utility.yul\":9150:9516   */\n      swap2\n      swap1\n      pop\n      jump\t// out\n        /* \"#utility.yul\":9522:9888   */\n    tag_355:\n        /* \"#utility.yul\":9664:9667   */\n      0x00\n        /* \"#utility.yul\":9685:9752   */\n      tag_357\n        /* \"#utility.yul\":9749:9751   */\n      0x1d\n        /* \"#utility.yul\":9744:9747   */\n      dup4\n        /* \"#utility.yul\":9685:9752   */\n      tag_327\n      jump\t// in\n    tag_357:\n        /* \"#utility.yul\":9678:9752   */\n      swap2\n      pop\n        /* \"#utility.yul\":9761:9854   */\n      tag_358\n        /* \"#utility.yul\":9850:9853   */\n      dup3\n        /* \"#utility.yul\":9761:9854   */\n      tag_359\n      jump\t// in\n    tag_358:\n        /* \"#utility.yul\":9879:9881   */\n      0x20\n        /* \"#utility.yul\":9874:9877   */\n      dup3\n        /* \"#utility.yul\":9870:9882   */\n      add\n        /* \"#utility.yul\":9863:9882   */\n      swap1\n      pop\n        /* \"#utility.yul\":9522:9888   */\n      swap2\n      swap1\n      pop\n      jump\t// out\n        /* \"#utility.yul\":9958:11013   */\n    tag_266:\n        /* \"#utility.yul\":10071:10074   */\n      0x00\n        /* \"#utility.yul\":10107:10111   */\n      0x80\n        /* \"#utility.yul\":10102:10105   */\n      dup4\n        /* \"#utility.yul\":10098:10112   */\n      add\n        /* \"#utility.yul\":10205:10209   */\n      0x00\n        /* \"#utility.yul\":10198:10203   */\n      dup4\n        /* \"#utility.yul\":10194:10210   */\n      add\n        /* \"#utility.yul\":10188:10211   */\n      mload\n        /* \"#utility.yul\":10258:10261   */\n      dup5\n        /* \"#utility.yul\":10252:10256   */\n      dup3\n        /* \"#utility.yul\":10248:10262   */\n      sub\n        /* \"#utility.yul\":10241:10245   */\n      0x00\n        /* \"#utility.yul\":10236:10239   */\n      dup7\n        /* \"#utility.yul\":10232:10246   */\n      add\n        /* \"#utility.yul\":10225:10263   */\n      mstore\n        /* \"#utility.yul\":10284:10357   */\n      tag_361\n        /* \"#utility.yul\":10352:10356   */\n      dup3\n        /* \"#utility.yul\":10338:10350   */\n      dup3\n        /* \"#utility.yul\":10284:10357   */\n      tag_313\n      jump\t// in\n    tag_361:\n        /* \"#utility.yul\":10276:10357   */\n      swap2\n      pop\n        /* \"#utility.yul\":10122:10368   */\n      pop\n        /* \"#utility.yul\":10460:10464   */\n      0x20\n        /* \"#utility.yul\":10453:10458   */\n      dup4\n        /* \"#utility.yul\":10449:10465   */\n      add\n        /* \"#utility.yul\":10443:10466   */\n      mload\n        /* \"#utility.yul\":10513:10516   */\n      dup5\n        /* \"#utility.yul\":10507:10511   */\n      dup3\n        /* \"#utility.yul\":10503:10517   */\n      sub\n        /* \"#utility.yul\":10496:10500   */\n      0x20\n        /* \"#utility.yul\":10491:10494   */\n      dup7\n        /* \"#utility.yul\":10487:10501   */\n      add\n        /* \"#utility.yul\":10480:10518   */\n      mstore\n        /* \"#utility.yul\":10539:10612   */\n      tag_362\n        /* \"#utility.yul\":10607:10611   */\n      dup3\n        /* \"#utility.yul\":10593:10605   */\n      dup3\n        /* \"#utility.yul\":10539:10612   */\n      tag_313\n      jump\t// in\n    tag_362:\n        /* \"#utility.yul\":10531:10612   */\n      swap2\n      pop\n        /* \"#utility.yul\":10378:10623   */\n      pop\n        /* \"#utility.yul\":10720:10724   */\n      0x40\n        /* \"#utility.yul\":10713:10718   */\n      dup4\n        /* \"#utility.yul\":10709:10725   */\n      add\n        /* \"#utility.yul\":10703:10726   */\n      mload\n        /* \"#utility.yul\":10739:10802   */\n      tag_363\n        /* \"#utility.yul\":10796:10800   */\n      0x40\n        /* \"#utility.yul\":10791:10794   */\n      dup7\n        /* \"#utility.yul\":10787:10801   */\n      add\n        /* \"#utility.yul\":10773:10785   */\n      dup3\n        /* \"#utility.yul\":10739:10802   */\n      tag_271\n      jump\t// in\n    tag_363:\n        /* \"#utility.yul\":10633:10812   */\n      pop\n        /* \"#utility.yul\":10900:10904   */\n      0x60\n        /* \"#utility.yul\":10893:10898   */\n      dup4\n        /* \"#utility.yul\":10889:10905   */\n      add\n        /* \"#utility.yul\":10883:10906   */\n      mload\n        /* \"#utility.yul\":10919:10976   */\n      tag_364\n        /* \"#utility.yul\":10970:10974   */\n      0x60\n        /* \"#utility.yul\":10965:10968   */\n      dup7\n        /* \"#utility.yul\":10961:10975   */\n      add\n        /* \"#utility.yul\":10947:10959   */\n      dup3\n        /* \"#utility.yul\":10919:10976   */\n      tag_306\n      jump\t// in\n    tag_364:\n        /* \"#utility.yul\":10822:10986   */\n      pop\n        /* \"#utility.yul\":11003:11007   */\n      dup1\n        /* \"#utility.yul\":10996:11007   */\n      swap2\n      pop\n        /* \"#utility.yul\":10076:11013   */\n      pop\n        /* \"#utility.yul\":9958:11013   */\n      swap3\n      swap2\n      pop\n      pop\n      jump\t// out\n        /* \"#utility.yul\":11079:11930   */\n    tag_270:\n        /* \"#utility.yul\":11188:11191   */\n      0x00\n        /* \"#utility.yul\":11224:11228   */\n      0x60\n        /* \"#utility.yul\":11219:11222   */\n      dup4\n        /* \"#utility.yul\":11215:11229   */\n      add\n        /* \"#utility.yul\":11311:11315   */\n      0x00\n        /* \"#utility.yul\":11304:11309   */\n      dup4\n        /* \"#utility.yul\":11300:11316   */\n      add\n        /* \"#utility.yul\":11294:11317   */\n      mload\n        /* \"#utility.yul\":11364:11367   */\n      dup5\n        /* \"#utility.yul\":11358:11362   */\n      dup3\n        /* \"#utility.yul\":11354:11368   */\n      sub\n        /* \"#utility.yul\":11347:11351   */\n      0x00\n        /* \"#utility.yul\":11342:11345   */\n      dup7\n        /* \"#utility.yul\":11338:11352   */\n      add\n        /* \"#utility.yul\":11331:11369   */\n      mstore\n        /* \"#utility.yul\":11390:11463   */\n      tag_366\n        /* \"#utility.yul\":11458:11462   */\n      dup3\n        /* \"#utility.yul\":11444:11456   */\n      dup3\n        /* \"#utility.yul\":11390:11463   */\n      tag_313\n      jump\t// in\n    tag_366:\n        /* \"#utility.yul\":11382:11463   */\n      swap2\n      pop\n        /* \"#utility.yul\":11239:11474   */\n      pop\n        /* \"#utility.yul\":11561:11565   */\n      0x20\n        /* \"#utility.yul\":11554:11559   */\n      dup4\n        /* \"#utility.yul\":11550:11566   */\n      add\n        /* \"#utility.yul\":11544:11567   */\n      mload\n        /* \"#utility.yul\":11614:11617   */\n      dup5\n        /* \"#utility.yul\":11608:11612   */\n      dup3\n        /* \"#utility.yul\":11604:11618   */\n      sub\n        /* \"#utility.yul\":11597:11601   */\n      0x20\n        /* \"#utility.yul\":11592:11595   */\n      dup7\n        /* \"#utility.yul\":11588:11602   */\n      add\n        /* \"#utility.yul\":11581:11619   */\n      mstore\n        /* \"#utility.yul\":11640:11713   */\n      tag_367\n        /* \"#utility.yul\":11708:11712   */\n      dup3\n        /* \"#utility.yul\":11694:11706   */\n      dup3\n        /* \"#utility.yul\":11640:11713   */\n      tag_313\n      jump\t// in\n    tag_367:\n        /* \"#utility.yul\":11632:11713   */\n      swap2\n      pop\n        /* \"#utility.yul\":11484:11724   */\n      pop\n        /* \"#utility.yul\":11811:11815   */\n      0x40\n        /* \"#utility.yul\":11804:11809   */\n      dup4\n        /* \"#utility.yul\":11800:11816   */\n      add\n        /* \"#utility.yul\":11794:11817   */\n      mload\n        /* \"#utility.yul\":11830:11893   */\n      tag_368\n        /* \"#utility.yul\":11887:11891   */\n      0x40\n        /* \"#utility.yul\":11882:11885   */\n      dup7\n        /* \"#utility.yul\":11878:11892   */\n      add\n        /* \"#utility.yul\":11864:11876   */\n      dup3\n        /* \"#utility.yul\":11830:11893   */\n      tag_369\n      jump\t// in\n    tag_368:\n        /* \"#utility.yul\":11734:11903   */\n      pop\n        /* \"#utility.yul\":11920:11924   */\n      dup1\n        /* \"#utility.yul\":11913:11924   */\n      swap2\n      pop\n        /* \"#utility.yul\":11193:11930   */\n      pop\n        /* \"#utility.yul\":11079:11930   */\n      swap3\n      swap2\n      pop\n      pop\n      jump\t// out\n        /* \"#utility.yul\":11936:12044   */\n    tag_369:\n        /* \"#utility.yul\":12013:12037   */\n      tag_371\n        /* \"#utility.yul\":12031:12036   */\n      dup2\n        /* \"#utility.yul\":12013:12037   */\n      tag_372\n      jump\t// in\n    tag_371:\n        /* \"#utility.yul\":12008:12011   */\n      dup3\n        /* \"#utility.yul\":12001:12038   */\n      mstore\n        /* \"#utility.yul\":11936:12044   */\n      pop\n      pop\n      jump\t// out\n        /* \"#utility.yul\":12050:12168   */\n    tag_373:\n        /* \"#utility.yul\":12137:12161   */\n      tag_375\n        /* \"#utility.yul\":12155:12160   */\n      dup2\n        /* \"#utility.yul\":12137:12161   */\n      tag_372\n      jump\t// in\n    tag_375:\n        /* \"#utility.yul\":12132:12135   */\n      dup3\n        /* \"#utility.yul\":12125:12162   */\n      mstore\n        /* \"#utility.yul\":12050:12168   */\n      pop\n      pop\n      jump\t// out\n        /* \"#utility.yul\":12174:12396   */\n    tag_59:\n        /* \"#utility.yul\":12267:12271   */\n      0x00\n        /* \"#utility.yul\":12305:12307   */\n      0x20\n        /* \"#utility.yul\":12294:12303   */\n      dup3\n        /* \"#utility.yul\":12290:12308   */\n      add\n        /* \"#utility.yul\":12282:12308   */\n      swap1\n      pop\n        /* \"#utility.yul\":12318:12389   */\n      tag_377\n        /* \"#utility.yul\":12386:12387   */\n      0x00\n        /* \"#utility.yul\":12375:12384   */\n      dup4\n        /* \"#utility.yul\":12371:12388   */\n      add\n        /* \"#utility.yul\":12362:12368   */\n      dup5\n        /* \"#utility.yul\":12318:12389   */\n      tag_275\n      jump\t// in\n    tag_377:\n        /* \"#utility.yul\":12174:12396   */\n      swap3\n      swap2\n      pop\n      pop\n      jump\t// out\n        /* \"#utility.yul\":12402:12883   */\n    tag_74:\n        /* \"#utility.yul\":12599:12603   */\n      0x00\n        /* \"#utility.yul\":12637:12639   */\n      0x20\n        /* \"#utility.yul\":12626:12635   */\n      dup3\n        /* \"#utility.yul\":12622:12640   */\n      add\n        /* \"#utility.yul\":12614:12640   */\n      swap1\n      pop\n        /* \"#utility.yul\":12686:12695   */\n      dup2\n        /* \"#utility.yul\":12680:12684   */\n      dup2\n        /* \"#utility.yul\":12676:12696   */\n      sub\n        /* \"#utility.yul\":12672:12673   */\n      0x00\n        /* \"#utility.yul\":12661:12670   */\n      dup4\n        /* \"#utility.yul\":12657:12674   */\n      add\n        /* \"#utility.yul\":12650:12697   */\n      mstore\n        /* \"#utility.yul\":12714:12876   */\n      tag_379\n        /* \"#utility.yul\":12871:12875   */\n      dup2\n        /* \"#utility.yul\":12862:12868   */\n      dup5\n        /* \"#utility.yul\":12714:12876   */\n      tag_278\n      jump\t// in\n    tag_379:\n        /* \"#utility.yul\":12706:12876   */\n      swap1\n      pop\n        /* \"#utility.yul\":12402:12883   */\n      swap3\n      swap2\n      pop\n      pop\n      jump\t// out\n        /* \"#utility.yul\":12889:13362   */\n    tag_86:\n        /* \"#utility.yul\":13082:13086   */\n      0x00\n        /* \"#utility.yul\":13120:13122   */\n      0x20\n        /* \"#utility.yul\":13109:13118   */\n      dup3\n        /* \"#utility.yul\":13105:13123   */\n      add\n        /* \"#utility.yul\":13097:13123   */\n      swap1\n      pop\n        /* \"#utility.yul\":13169:13178   */\n      dup2\n        /* \"#utility.yul\":13163:13167   */\n      dup2\n        /* \"#utility.yul\":13159:13179   */\n      sub\n        /* \"#utility.yul\":13155:13156   */\n      0x00\n        /* \"#utility.yul\":13144:13153   */\n      dup4\n        /* \"#utility.yul\":13140:13157   */\n      add\n        /* \"#utility.yul\":13133:13180   */\n      mstore\n        /* \"#utility.yul\":13197:13355   */\n      tag_381\n        /* \"#utility.yul\":13350:13354   */\n      dup2\n        /* \"#utility.yul\":13341:13347   */\n      dup5\n        /* \"#utility.yul\":13197:13355   */\n      tag_292\n      jump\t// in\n    tag_381:\n        /* \"#utility.yul\":13189:13355   */\n      swap1\n      pop\n        /* \"#utility.yul\":12889:13362   */\n      swap3\n      swap2\n      pop\n      pop\n      jump\t// out\n        /* \"#utility.yul\":13368:13578   */\n    tag_55:\n        /* \"#utility.yul\":13455:13459   */\n      0x00\n        /* \"#utility.yul\":13493:13495   */\n      0x20\n        /* \"#utility.yul\":13482:13491   */\n      dup3\n        /* \"#utility.yul\":13478:13496   */\n      add\n        /* \"#utility.yul\":13470:13496   */\n      swap1\n      pop\n        /* \"#utility.yul\":13506:13571   */\n      tag_383\n        /* \"#utility.yul\":13568:13569   */\n      0x00\n        /* \"#utility.yul\":13557:13566   */\n      dup4\n        /* \"#utility.yul\":13553:13570   */\n      add\n        /* \"#utility.yul\":13544:13550   */\n      dup5\n        /* \"#utility.yul\":13506:13571   */\n      tag_310\n      jump\t// in\n    tag_383:\n        /* \"#utility.yul\":13368:13578   */\n      swap3\n      swap2\n      pop\n      pop\n      jump\t// out\n        /* \"#utility.yul\":13584:14307   */\n    tag_79:\n        /* \"#utility.yul\":13795:13799   */\n      0x00\n        /* \"#utility.yul\":13833:13836   */\n      0x80\n        /* \"#utility.yul\":13822:13831   */\n      dup3\n        /* \"#utility.yul\":13818:13837   */\n      add\n        /* \"#utility.yul\":13810:13837   */\n      swap1\n      pop\n        /* \"#utility.yul\":13883:13892   */\n      dup2\n        /* \"#utility.yul\":13877:13881   */\n      dup2\n        /* \"#utility.yul\":13873:13893   */\n      sub\n        /* \"#utility.yul\":13869:13870   */\n      0x00\n        /* \"#utility.yul\":13858:13867   */\n      dup4\n        /* \"#utility.yul\":13854:13871   */\n      add\n        /* \"#utility.yul\":13847:13894   */\n      mstore\n        /* \"#utility.yul\":13911:13989   */\n      tag_385\n        /* \"#utility.yul\":13984:13988   */\n      dup2\n        /* \"#utility.yul\":13975:13981   */\n      dup8\n        /* \"#utility.yul\":13911:13989   */\n      tag_323\n      jump\t// in\n    tag_385:\n        /* \"#utility.yul\":13903:13989   */\n      swap1\n      pop\n        /* \"#utility.yul\":14036:14045   */\n      dup2\n        /* \"#utility.yul\":14030:14034   */\n      dup2\n        /* \"#utility.yul\":14026:14046   */\n      sub\n        /* \"#utility.yul\":14021:14023   */\n      0x20\n        /* \"#utility.yul\":14010:14019   */\n      dup4\n        /* \"#utility.yul\":14006:14024   */\n      add\n        /* \"#utility.yul\":13999:14047   */\n      mstore\n        /* \"#utility.yul\":14064:14142   */\n      tag_386\n        /* \"#utility.yul\":14137:14141   */\n      dup2\n        /* \"#utility.yul\":14128:14134   */\n      dup7\n        /* \"#utility.yul\":14064:14142   */\n      tag_323\n      jump\t// in\n    tag_386:\n        /* \"#utility.yul\":14056:14142   */\n      swap1\n      pop\n        /* \"#utility.yul\":14152:14224   */\n      tag_387\n        /* \"#utility.yul\":14220:14222   */\n      0x40\n        /* \"#utility.yul\":14209:14218   */\n      dup4\n        /* \"#utility.yul\":14205:14223   */\n      add\n        /* \"#utility.yul\":14196:14202   */\n      dup6\n        /* \"#utility.yul\":14152:14224   */\n      tag_275\n      jump\t// in\n    tag_387:\n        /* \"#utility.yul\":14234:14300   */\n      tag_388\n        /* \"#utility.yul\":14296:14298   */\n      0x60\n        /* \"#utility.yul\":14285:14294   */\n      dup4\n        /* \"#utility.yul\":14281:14299   */\n      add\n        /* \"#utility.yul\":14272:14278   */\n      dup5\n        /* \"#utility.yul\":14234:14300   */\n      tag_310\n      jump\t// in\n    tag_388:\n        /* \"#utility.yul\":13584:14307   */\n      swap6\n      swap5\n      pop\n      pop\n      pop\n      pop\n      pop\n      jump\t// out\n        /* \"#utility.yul\":14313:14937   */\n    tag_49:\n        /* \"#utility.yul\":14502:14506   */\n      0x00\n        /* \"#utility.yul\":14540:14542   */\n      0x60\n        /* \"#utility.yul\":14529:14538   */\n      dup3\n        /* \"#utility.yul\":14525:14543   */\n      add\n        /* \"#utility.yul\":14517:14543   */\n      swap1\n      pop\n        /* \"#utility.yul\":14589:14598   */\n      dup2\n        /* \"#utility.yul\":14583:14587   */\n      dup2\n        /* \"#utility.yul\":14579:14599   */\n      sub\n        /* \"#utility.yul\":14575:14576   */\n      0x00\n        /* \"#utility.yul\":14564:14573   */\n      dup4\n        /* \"#utility.yul\":14560:14577   */\n      add\n        /* \"#utility.yul\":14553:14600   */\n      mstore\n        /* \"#utility.yul\":14617:14695   */\n      tag_390\n        /* \"#utility.yul\":14690:14694   */\n      dup2\n        /* \"#utility.yul\":14681:14687   */\n      dup7\n        /* \"#utility.yul\":14617:14695   */\n      tag_323\n      jump\t// in\n    tag_390:\n        /* \"#utility.yul\":14609:14695   */\n      swap1\n      pop\n        /* \"#utility.yul\":14742:14751   */\n      dup2\n        /* \"#utility.yul\":14736:14740   */\n      dup2\n        /* \"#utility.yul\":14732:14752   */\n      sub\n        /* \"#utility.yul\":14727:14729   */\n      0x20\n        /* \"#utility.yul\":14716:14725   */\n      dup4\n        /* \"#utility.yul\":14712:14730   */\n      add\n        /* \"#utility.yul\":14705:14753   */\n      mstore\n        /* \"#utility.yul\":14770:14848   */\n      tag_391\n        /* \"#utility.yul\":14843:14847   */\n      dup2\n        /* \"#utility.yul\":14834:14840   */\n      dup6\n        /* \"#utility.yul\":14770:14848   */\n      tag_323\n      jump\t// in\n    tag_391:\n        /* \"#utility.yul\":14762:14848   */\n      swap1\n      pop\n        /* \"#utility.yul\":14858:14930   */\n      tag_392\n        /* \"#utility.yul\":14926:14928   */\n      0x40\n        /* \"#utility.yul\":14915:14924   */\n      dup4\n        /* \"#utility.yul\":14911:14929   */\n      add\n        /* \"#utility.yul\":14902:14908   */\n      dup5\n        /* \"#utility.yul\":14858:14930   */\n      tag_373\n      jump\t// in\n    tag_392:\n        /* \"#utility.yul\":14313:14937   */\n      swap5\n      swap4\n      pop\n      pop\n      pop\n      pop\n      jump\t// out\n        /* \"#utility.yul\":14943:15362   */\n    tag_95:\n        /* \"#utility.yul\":15109:15113   */\n      0x00\n        /* \"#utility.yul\":15147:15149   */\n      0x20\n        /* \"#utility.yul\":15136:15145   */\n      dup3\n        /* \"#utility.yul\":15132:15150   */\n      add\n        /* \"#utility.yul\":15124:15150   */\n      swap1\n      pop\n        /* \"#utility.yul\":15196:15205   */\n      dup2\n        /* \"#utility.yul\":15190:15194   */\n      dup2\n        /* \"#utility.yul\":15186:15206   */\n      sub\n        /* \"#utility.yul\":15182:15183   */\n      0x00\n        /* \"#utility.yul\":15171:15180   */\n      dup4\n        /* \"#utility.yul\":15167:15184   */\n      add\n        /* \"#utility.yul\":15160:15207   */\n      mstore\n        /* \"#utility.yul\":15224:15355   */\n      tag_394\n        /* \"#utility.yul\":15350:15354   */\n      dup2\n        /* \"#utility.yul\":15224:15355   */\n      tag_330\n      jump\t// in\n    tag_394:\n        /* \"#utility.yul\":15216:15355   */\n      swap1\n      pop\n        /* \"#utility.yul\":14943:15362   */\n      swap2\n      swap1\n      pop\n      jump\t// out\n        /* \"#utility.yul\":15368:15787   */\n    tag_92:\n        /* \"#utility.yul\":15534:15538   */\n      0x00\n        /* \"#utility.yul\":15572:15574   */\n      0x20\n        /* \"#utility.yul\":15561:15570   */\n      dup3\n        /* \"#utility.yul\":15557:15575   */\n      add\n        /* \"#utility.yul\":15549:15575   */\n      swap1\n      pop\n        /* \"#utility.yul\":15621:15630   */\n      dup2\n        /* \"#utility.yul\":15615:15619   */\n      dup2\n        /* \"#utility.yul\":15611:15631   */\n      sub\n        /* \"#utility.yul\":15607:15608   */\n      0x00\n        /* \"#utility.yul\":15596:15605   */\n      dup4\n        /* \"#utility.yul\":15592:15609   */\n      add\n        /* \"#utility.yul\":15585:15632   */\n      mstore\n        /* \"#utility.yul\":15649:15780   */\n      tag_396\n        /* \"#utility.yul\":15775:15779   */\n      dup2\n        /* \"#utility.yul\":15649:15780   */\n      tag_335\n      jump\t// in\n    tag_396:\n        /* \"#utility.yul\":15641:15780   */\n      swap1\n      pop\n        /* \"#utility.yul\":15368:15787   */\n      swap2\n      swap1\n      pop\n      jump\t// out\n        /* \"#utility.yul\":15793:16212   */\n    tag_108:\n        /* \"#utility.yul\":15959:15963   */\n      0x00\n        /* \"#utility.yul\":15997:15999   */\n      0x20\n        /* \"#utility.yul\":15986:15995   */\n      dup3\n        /* \"#utility.yul\":15982:16000   */\n      add\n        /* \"#utility.yul\":15974:16000   */\n      swap1\n      pop\n        /* \"#utility.yul\":16046:16055   */\n      dup2\n        /* \"#utility.yul\":16040:16044   */\n      dup2\n        /* \"#utility.yul\":16036:16056   */\n      sub\n        /* \"#utility.yul\":16032:16033   */\n      0x00\n        /* \"#utility.yul\":16021:16030   */\n      dup4\n        /* \"#utility.yul\":16017:16034   */\n      add\n        /* \"#utility.yul\":16010:16057   */\n      mstore\n        /* \"#utility.yul\":16074:16205   */\n      tag_398\n        /* \"#utility.yul\":16200:16204   */\n      dup2\n        /* \"#utility.yul\":16074:16205   */\n      tag_340\n      jump\t// in\n    tag_398:\n        /* \"#utility.yul\":16066:16205   */\n      swap1\n      pop\n        /* \"#utility.yul\":15793:16212   */\n      swap2\n      swap1\n      pop\n      jump\t// out\n        /* \"#utility.yul\":16218:16637   */\n    tag_125:\n        /* \"#utility.yul\":16384:16388   */\n      0x00\n        /* \"#utility.yul\":16422:16424   */\n      0x20\n        /* \"#utility.yul\":16411:16420   */\n      dup3\n        /* \"#utility.yul\":16407:16425   */\n      add\n        /* \"#utility.yul\":16399:16425   */\n      swap1\n      pop\n        /* \"#utility.yul\":16471:16480   */\n      dup2\n        /* \"#utility.yul\":16465:16469   */\n      dup2\n        /* \"#utility.yul\":16461:16481   */\n      sub\n        /* \"#utility.yul\":16457:16458   */\n      0x00\n        /* \"#utility.yul\":16446:16455   */\n      dup4\n        /* \"#utility.yul\":16442:16459   */\n      add\n        /* \"#utility.yul\":16435:16482   */\n      mstore\n        /* \"#utility.yul\":16499:16630   */\n      tag_400\n        /* \"#utility.yul\":16625:16629   */\n      dup2\n        /* \"#utility.yul\":16499:16630   */\n      tag_345\n      jump\t// in\n    tag_400:\n        /* \"#utility.yul\":16491:16630   */\n      swap1\n      pop\n        /* \"#utility.yul\":16218:16637   */\n      swap2\n      swap1\n      pop\n      jump\t// out\n        /* \"#utility.yul\":16643:17062   */\n    tag_128:\n        /* \"#utility.yul\":16809:16813   */\n      0x00\n        /* \"#utility.yul\":16847:16849   */\n      0x20\n        /* \"#utility.yul\":16836:16845   */\n      dup3\n        /* \"#utility.yul\":16832:16850   */\n      add\n        /* \"#utility.yul\":16824:16850   */\n      swap1\n      pop\n        /* \"#utility.yul\":16896:16905   */\n      dup2\n        /* \"#utility.yul\":16890:16894   */\n      dup2\n        /* \"#utility.yul\":16886:16906   */\n      sub\n        /* \"#utility.yul\":16882:16883   */\n      0x00\n        /* \"#utility.yul\":16871:16880   */\n      dup4\n        /* \"#utility.yul\":16867:16884   */\n      add\n        /* \"#utility.yul\":16860:16907   */\n      mstore\n        /* \"#utility.yul\":16924:17055   */\n      tag_402\n        /* \"#utility.yul\":17050:17054   */\n      dup2\n        /* \"#utility.yul\":16924:17055   */\n      tag_350\n      jump\t// in\n    tag_402:\n        /* \"#utility.yul\":16916:17055   */\n      swap1\n      pop\n        /* \"#utility.yul\":16643:17062   */\n      swap2\n      swap1\n      pop\n      jump\t// out\n        /* \"#utility.yul\":17068:17487   */\n    tag_98:\n        /* \"#utility.yul\":17234:17238   */\n      0x00\n        /* \"#utility.yul\":17272:17274   */\n      0x20\n        /* \"#utility.yul\":17261:17270   */\n      dup3\n        /* \"#utility.yul\":17257:17275   */\n      add\n        /* \"#utility.yul\":17249:17275   */\n      swap1\n      pop\n        /* \"#utility.yul\":17321:17330   */\n      dup2\n        /* \"#utility.yul\":17315:17319   */\n      dup2\n        /* \"#utility.yul\":17311:17331   */\n      sub\n        /* \"#utility.yul\":17307:17308   */\n      0x00\n        /* \"#utility.yul\":17296:17305   */\n      dup4\n        /* \"#utility.yul\":17292:17309   */\n      add\n        /* \"#utility.yul\":17285:17332   */\n      mstore\n        /* \"#utility.yul\":17349:17480   */\n      tag_404\n        /* \"#utility.yul\":17475:17479   */\n      dup2\n        /* \"#utility.yul\":17349:17480   */\n      tag_355\n      jump\t// in\n    tag_404:\n        /* \"#utility.yul\":17341:17480   */\n      swap1\n      pop\n        /* \"#utility.yul\":17068:17487   */\n      swap2\n      swap1\n      pop\n      jump\t// out\n        /* \"#utility.yul\":17493:17715   */\n    tag_63:\n        /* \"#utility.yul\":17586:17590   */\n      0x00\n        /* \"#utility.yul\":17624:17626   */\n      0x20\n        /* \"#utility.yul\":17613:17622   */\n      dup3\n        /* \"#utility.yul\":17609:17627   */\n      add\n        /* \"#utility.yul\":17601:17627   */\n      swap1\n      pop\n        /* \"#utility.yul\":17637:17708   */\n      tag_406\n        /* \"#utility.yul\":17705:17706   */\n      0x00\n        /* \"#utility.yul\":17694:17703   */\n      dup4\n        /* \"#utility.yul\":17690:17707   */\n      add\n        /* \"#utility.yul\":17681:17687   */\n      dup5\n        /* \"#utility.yul\":17637:17708   */\n      tag_373\n      jump\t// in\n    tag_406:\n        /* \"#utility.yul\":17493:17715   */\n      swap3\n      swap2\n      pop\n      pop\n      jump\t// out\n        /* \"#utility.yul\":17721:17850   */\n    tag_214:\n        /* \"#utility.yul\":17755:17761   */\n      0x00\n        /* \"#utility.yul\":17782:17802   */\n      tag_408\n      tag_409\n      jump\t// in\n    tag_408:\n        /* \"#utility.yul\":17772:17802   */\n      swap1\n      pop\n        /* \"#utility.yul\":17811:17844   */\n      tag_410\n        /* \"#utility.yul\":17839:17843   */\n      dup3\n        /* \"#utility.yul\":17831:17837   */\n      dup3\n        /* \"#utility.yul\":17811:17844   */\n      tag_411\n      jump\t// in\n    tag_410:\n        /* \"#utility.yul\":17721:17850   */\n      swap2\n      swap1\n      pop\n      jump\t// out\n        /* \"#utility.yul\":17856:17931   */\n    tag_409:\n        /* \"#utility.yul\":17889:17895   */\n      0x00\n        /* \"#utility.yul\":17922:17924   */\n      0x40\n        /* \"#utility.yul\":17916:17925   */\n      mload\n        /* \"#utility.yul\":17906:17925   */\n      swap1\n      pop\n        /* \"#utility.yul\":17856:17931   */\n      swap1\n      jump\t// out\n        /* \"#utility.yul\":17937:18245   */\n    tag_213:\n        /* \"#utility.yul\":17999:18003   */\n      0x00\n        /* \"#utility.yul\":18089:18107   */\n      0xffffffffffffffff\n        /* \"#utility.yul\":18081:18087   */\n      dup3\n        /* \"#utility.yul\":18078:18108   */\n      gt\n        /* \"#utility.yul\":18075:18131   */\n      iszero\n      tag_414\n      jumpi\n        /* \"#utility.yul\":18111:18129   */\n      tag_415\n      tag_416\n      jump\t// in\n    tag_415:\n        /* \"#utility.yul\":18075:18131   */\n    tag_414:\n        /* \"#utility.yul\":18149:18178   */\n      tag_417\n        /* \"#utility.yul\":18171:18177   */\n      dup3\n        /* \"#utility.yul\":18149:18178   */\n      tag_322\n      jump\t// in\n    tag_417:\n        /* \"#utility.yul\":18141:18178   */\n      swap1\n      pop\n        /* \"#utility.yul\":18233:18237   */\n      0x20\n        /* \"#utility.yul\":18227:18231   */\n      dup2\n        /* \"#utility.yul\":18223:18238   */\n      add\n        /* \"#utility.yul\":18215:18238   */\n      swap1\n      pop\n        /* \"#utility.yul\":17937:18245   */\n      swap2\n      swap1\n      pop\n      jump\t// out\n        /* \"#utility.yul\":18251:18410   */\n    tag_285:\n        /* \"#utility.yul\":18345:18349   */\n      0x00\n        /* \"#utility.yul\":18368:18371   */\n      dup2\n        /* \"#utility.yul\":18360:18371   */\n      swap1\n      pop\n        /* \"#utility.yul\":18398:18402   */\n      0x20\n        /* \"#utility.yul\":18393:18396   */\n      dup3\n        /* \"#utility.yul\":18389:18403   */\n      add\n        /* \"#utility.yul\":18381:18403   */\n      swap1\n      pop\n        /* \"#utility.yul\":18251:18410   */\n      swap2\n      swap1\n      pop\n      jump\t// out\n        /* \"#utility.yul\":18416:18573   */\n    tag_299:\n        /* \"#utility.yul\":18508:18512   */\n      0x00\n        /* \"#utility.yul\":18531:18534   */\n      dup2\n        /* \"#utility.yul\":18523:18534   */\n      swap1\n      pop\n        /* \"#utility.yul\":18561:18565   */\n      0x20\n        /* \"#utility.yul\":18556:18559   */\n      dup3\n        /* \"#utility.yul\":18552:18566   */\n      add\n        /* \"#utility.yul\":18544:18566   */\n      swap1\n      pop\n        /* \"#utility.yul\":18416:18573   */\n      swap2\n      swap1\n      pop\n      jump\t// out\n        /* \"#utility.yul\":18579:18720   */\n    tag_281:\n        /* \"#utility.yul\":18673:18679   */\n      0x00\n        /* \"#utility.yul\":18707:18712   */\n      dup2\n        /* \"#utility.yul\":18701:18713   */\n      mload\n        /* \"#utility.yul\":18691:18713   */\n      swap1\n      pop\n        /* \"#utility.yul\":18579:18720   */\n      swap2\n      swap1\n      pop\n      jump\t// out\n        /* \"#utility.yul\":18726:18865   */\n    tag_295:\n        /* \"#utility.yul\":18818:18824   */\n      0x00\n        /* \"#utility.yul\":18852:18857   */\n      dup2\n        /* \"#utility.yul\":18846:18858   */\n      mload\n        /* \"#utility.yul\":18836:18858   */\n      swap1\n      pop\n        /* \"#utility.yul\":18726:18865   */\n      swap2\n      swap1\n      pop\n      jump\t// out\n        /* \"#utility.yul\":18871:18970   */\n    tag_316:\n        /* \"#utility.yul\":18923:18929   */\n      0x00\n        /* \"#utility.yul\":18957:18962   */\n      dup2\n        /* \"#utility.yul\":18951:18963   */\n      mload\n        /* \"#utility.yul\":18941:18963   */\n      swap1\n      pop\n        /* \"#utility.yul\":18871:18970   */\n      swap2\n      swap1\n      pop\n      jump\t// out\n        /* \"#utility.yul\":18976:19116   */\n    tag_291:\n        /* \"#utility.yul\":19073:19077   */\n      0x00\n        /* \"#utility.yul\":19105:19109   */\n      0x20\n        /* \"#utility.yul\":19100:19103   */\n      dup3\n        /* \"#utility.yul\":19096:19110   */\n      add\n        /* \"#utility.yul\":19088:19110   */\n      swap1\n      pop\n        /* \"#utility.yul\":18976:19116   */\n      swap2\n      swap1\n      pop\n      jump\t// out\n        /* \"#utility.yul\":19122:19260   */\n    tag_305:\n        /* \"#utility.yul\":19217:19221   */\n      0x00\n        /* \"#utility.yul\":19249:19253   */\n      0x20\n        /* \"#utility.yul\":19244:19247   */\n      dup3\n        /* \"#utility.yul\":19240:19254   */\n      add\n        /* \"#utility.yul\":19232:19254   */\n      swap1\n      pop\n        /* \"#utility.yul\":19122:19260   */\n      swap2\n      swap1\n      pop\n      jump\t// out\n        /* \"#utility.yul\":19266:19477   */\n    tag_283:\n        /* \"#utility.yul\":19392:19403   */\n      0x00\n        /* \"#utility.yul\":19426:19432   */\n      dup3\n        /* \"#utility.yul\":19421:19424   */\n      dup3\n        /* \"#utility.yul\":19414:19433   */\n      mstore\n        /* \"#utility.yul\":19466:19470   */\n      0x20\n        /* \"#utility.yul\":19461:19464   */\n      dup3\n        /* \"#utility.yul\":19457:19471   */\n      add\n        /* \"#utility.yul\":19442:19471   */\n      swap1\n      pop\n        /* \"#utility.yul\":19266:19477   */\n      swap3\n      swap2\n      pop\n      pop\n      jump\t// out\n        /* \"#utility.yul\":19483:19692   */\n    tag_297:\n        /* \"#utility.yul\":19607:19618   */\n      0x00\n        /* \"#utility.yul\":19641:19647   */\n      dup3\n        /* \"#utility.yul\":19636:19639   */\n      dup3\n        /* \"#utility.yul\":19629:19648   */\n      mstore\n        /* \"#utility.yul\":19681:19685   */\n      0x20\n        /* \"#utility.yul\":19676:19679   */\n      dup3\n        /* \"#utility.yul\":19672:19686   */\n      add\n        /* \"#utility.yul\":19657:19686   */\n      swap1\n      pop\n        /* \"#utility.yul\":19483:19692   */\n      swap3\n      swap2\n      pop\n      pop\n      jump\t// out\n        /* \"#utility.yul\":19698:19857   */\n    tag_318:\n        /* \"#utility.yul\":19772:19783   */\n      0x00\n        /* \"#utility.yul\":19806:19812   */\n      dup3\n        /* \"#utility.yul\":19801:19804   */\n      dup3\n        /* \"#utility.yul\":19794:19813   */\n      mstore\n        /* \"#utility.yul\":19846:19850   */\n      0x20\n        /* \"#utility.yul\":19841:19844   */\n      dup3\n        /* \"#utility.yul\":19837:19851   */\n      add\n        /* \"#utility.yul\":19822:19851   */\n      swap1\n      pop\n        /* \"#utility.yul\":19698:19857   */\n      swap3\n      swap2\n      pop\n      pop\n      jump\t// out\n        /* \"#utility.yul\":19863:20032   */\n    tag_327:\n        /* \"#utility.yul\":19947:19958   */\n      0x00\n        /* \"#utility.yul\":19981:19987   */\n      dup3\n        /* \"#utility.yul\":19976:19979   */\n      dup3\n        /* \"#utility.yul\":19969:19988   */\n      mstore\n        /* \"#utility.yul\":20021:20025   */\n      0x20\n        /* \"#utility.yul\":20016:20019   */\n      dup3\n        /* \"#utility.yul\":20012:20026   */\n      add\n        /* \"#utility.yul\":19997:20026   */\n      swap1\n      pop\n        /* \"#utility.yul\":19863:20032   */\n      swap3\n      swap2\n      pop\n      pop\n      jump\t// out\n        /* \"#utility.yul\":20038:20134   */\n    tag_274:\n        /* \"#utility.yul\":20075:20082   */\n      0x00\n        /* \"#utility.yul\":20104:20128   */\n      tag_430\n        /* \"#utility.yul\":20122:20127   */\n      dup3\n        /* \"#utility.yul\":20104:20128   */\n      tag_431\n      jump\t// in\n    tag_430:\n        /* \"#utility.yul\":20093:20128   */\n      swap1\n      pop\n        /* \"#utility.yul\":20038:20134   */\n      swap2\n      swap1\n      pop\n      jump\t// out\n        /* \"#utility.yul\":20140:20230   */\n    tag_309:\n        /* \"#utility.yul\":20174:20181   */\n      0x00\n        /* \"#utility.yul\":20217:20222   */\n      dup2\n        /* \"#utility.yul\":20210:20223   */\n      iszero\n        /* \"#utility.yul\":20203:20224   */\n      iszero\n        /* \"#utility.yul\":20192:20224   */\n      swap1\n      pop\n        /* \"#utility.yul\":20140:20230   */\n      swap2\n      swap1\n      pop\n      jump\t// out\n        /* \"#utility.yul\":20236:20362   */\n    tag_431:\n        /* \"#utility.yul\":20273:20280   */\n      0x00\n        /* \"#utility.yul\":20313:20355   */\n      0xffffffffffffffffffffffffffffffffffffffff\n        /* \"#utility.yul\":20306:20311   */\n      dup3\n        /* \"#utility.yul\":20302:20356   */\n      and\n        /* \"#utility.yul\":20291:20356   */\n      swap1\n      pop\n        /* \"#utility.yul\":20236:20362   */\n      swap2\n      swap1\n      pop\n      jump\t// out\n        /* \"#utility.yul\":20368:20445   */\n    tag_372:\n        /* \"#utility.yul\":20405:20412   */\n      0x00\n        /* \"#utility.yul\":20434:20439   */\n      dup2\n        /* \"#utility.yul\":20423:20439   */\n      swap1\n      pop\n        /* \"#utility.yul\":20368:20445   */\n      swap2\n      swap1\n      pop\n      jump\t// out\n        /* \"#utility.yul\":20451:20605   */\n    tag_219:\n        /* \"#utility.yul\":20535:20541   */\n      dup3\n        /* \"#utility.yul\":20530:20533   */\n      dup2\n        /* \"#utility.yul\":20525:20528   */\n      dup4\n        /* \"#utility.yul\":20512:20542   */\n      calldatacopy\n        /* \"#utility.yul\":20597:20598   */\n      0x00\n        /* \"#utility.yul\":20588:20594   */\n      dup4\n        /* \"#utility.yul\":20583:20586   */\n      dup4\n        /* \"#utility.yul\":20579:20595   */\n      add\n        /* \"#utility.yul\":20572:20599   */\n      mstore\n        /* \"#utility.yul\":20451:20605   */\n      pop\n      pop\n      pop\n      jump\t// out\n        /* \"#utility.yul\":20611:20918   */\n    tag_320:\n        /* \"#utility.yul\":20679:20680   */\n      0x00\n        /* \"#utility.yul\":20689:20802   */\n    tag_437:\n        /* \"#utility.yul\":20703:20709   */\n      dup4\n        /* \"#utility.yul\":20700:20701   */\n      dup2\n        /* \"#utility.yul\":20697:20710   */\n      lt\n        /* \"#utility.yul\":20689:20802   */\n      iszero\n      tag_439\n      jumpi\n        /* \"#utility.yul\":20788:20789   */\n      dup1\n        /* \"#utility.yul\":20783:20786   */\n      dup3\n        /* \"#utility.yul\":20779:20790   */\n      add\n        /* \"#utility.yul\":20773:20791   */\n      mload\n        /* \"#utility.yul\":20769:20770   */\n      dup2\n        /* \"#utility.yul\":20764:20767   */\n      dup5\n        /* \"#utility.yul\":20760:20771   */\n      add\n        /* \"#utility.yul\":20753:20792   */\n      mstore\n        /* \"#utility.yul\":20725:20727   */\n      0x20\n        /* \"#utility.yul\":20722:20723   */\n      dup2\n        /* \"#utility.yul\":20718:20728   */\n      add\n        /* \"#utility.yul\":20713:20728   */\n      swap1\n      pop\n        /* \"#utility.yul\":20689:20802   */\n      jump(tag_437)\n    tag_439:\n        /* \"#utility.yul\":20820:20826   */\n      dup4\n        /* \"#utility.yul\":20817:20818   */\n      dup2\n        /* \"#utility.yul\":20814:20827   */\n      gt\n        /* \"#utility.yul\":20811:20912   */\n      iszero\n      tag_440\n      jumpi\n        /* \"#utility.yul\":20900:20901   */\n      0x00\n        /* \"#utility.yul\":20891:20897   */\n      dup5\n        /* \"#utility.yul\":20886:20889   */\n      dup5\n        /* \"#utility.yul\":20882:20898   */\n      add\n        /* \"#utility.yul\":20875:20902   */\n      mstore\n        /* \"#utility.yul\":20811:20912   */\n    tag_440:\n        /* \"#utility.yul\":20660:20918   */\n      pop\n        /* \"#utility.yul\":20611:20918   */\n      pop\n      pop\n      pop\n      jump\t// out\n        /* \"#utility.yul\":20924:21244   */\n    tag_145:\n        /* \"#utility.yul\":20968:20974   */\n      0x00\n        /* \"#utility.yul\":21005:21006   */\n      0x02\n        /* \"#utility.yul\":20999:21003   */\n      dup3\n        /* \"#utility.yul\":20995:21007   */\n      div\n        /* \"#utility.yul\":20985:21007   */\n      swap1\n      pop\n        /* \"#utility.yul\":21052:21053   */\n      0x01\n        /* \"#utility.yul\":21046:21050   */\n      dup3\n        /* \"#utility.yul\":21042:21054   */\n      and\n        /* \"#utility.yul\":21073:21091   */\n      dup1\n        /* \"#utility.yul\":21063:21144   */\n      tag_442\n      jumpi\n        /* \"#utility.yul\":21129:21133   */\n      0x7f\n        /* \"#utility.yul\":21121:21127   */\n      dup3\n        /* \"#utility.yul\":21117:21134   */\n      and\n        /* \"#utility.yul\":21107:21134   */\n      swap2\n      pop\n        /* \"#utility.yul\":21063:21144   */\n    tag_442:\n        /* \"#utility.yul\":21191:21193   */\n      0x20\n        /* \"#utility.yul\":21183:21189   */\n      dup3\n        /* \"#utility.yul\":21180:21194   */\n      lt\n        /* \"#utility.yul\":21160:21178   */\n      dup2\n        /* \"#utility.yul\":21157:21195   */\n      eq\n        /* \"#utility.yul\":21154:21238   */\n      iszero\n      tag_443\n      jumpi\n        /* \"#utility.yul\":21210:21228   */\n      tag_444\n      tag_445\n      jump\t// in\n    tag_444:\n        /* \"#utility.yul\":21154:21238   */\n    tag_443:\n        /* \"#utility.yul\":20975:21244   */\n      pop\n        /* \"#utility.yul\":20924:21244   */\n      swap2\n      swap1\n      pop\n      jump\t// out\n        /* \"#utility.yul\":21250:21531   */\n    tag_411:\n        /* \"#utility.yul\":21333:21360   */\n      tag_447\n        /* \"#utility.yul\":21355:21359   */\n      dup3\n        /* \"#utility.yul\":21333:21360   */\n      tag_322\n      jump\t// in\n    tag_447:\n        /* \"#utility.yul\":21325:21331   */\n      dup2\n        /* \"#utility.yul\":21321:21361   */\n      add\n        /* \"#utility.yul\":21463:21469   */\n      dup2\n        /* \"#utility.yul\":21451:21461   */\n      dup2\n        /* \"#utility.yul\":21448:21470   */\n      lt\n        /* \"#utility.yul\":21427:21445   */\n      0xffffffffffffffff\n        /* \"#utility.yul\":21415:21425   */\n      dup3\n        /* \"#utility.yul\":21412:21446   */\n      gt\n        /* \"#utility.yul\":21409:21471   */\n      or\n        /* \"#utility.yul\":21406:21494   */\n      iszero\n      tag_448\n      jumpi\n        /* \"#utility.yul\":21474:21492   */\n      tag_449\n      tag_416\n      jump\t// in\n    tag_449:\n        /* \"#utility.yul\":21406:21494   */\n    tag_448:\n        /* \"#utility.yul\":21514:21524   */\n      dup1\n        /* \"#utility.yul\":21510:21512   */\n      0x40\n        /* \"#utility.yul\":21503:21525   */\n      mstore\n        /* \"#utility.yul\":21293:21531   */\n      pop\n        /* \"#utility.yul\":21250:21531   */\n      pop\n      pop\n      jump\t// out\n        /* \"#utility.yul\":21537:21770   */\n    tag_104:\n        /* \"#utility.yul\":21576:21579   */\n      0x00\n        /* \"#utility.yul\":21599:21623   */\n      tag_451\n        /* \"#utility.yul\":21617:21622   */\n      dup3\n        /* \"#utility.yul\":21599:21623   */\n      tag_372\n      jump\t// in\n    tag_451:\n        /* \"#utility.yul\":21590:21623   */\n      swap2\n      pop\n        /* \"#utility.yul\":21645:21711   */\n      0xffffffffffffffffffffffffffffffffffffffffffffffffffffffffffffffff\n        /* \"#utility.yul\":21638:21643   */\n      dup3\n        /* \"#utility.yul\":21635:21712   */\n      eq\n        /* \"#utility.yul\":21632:21735   */\n      iszero\n      tag_452\n      jumpi\n        /* \"#utility.yul\":21715:21733   */\n      tag_453\n      tag_454\n      jump\t// in\n    tag_453:\n        /* \"#utility.yul\":21632:21735   */\n    tag_452:\n        /* \"#utility.yul\":21762:21763   */\n      0x01\n        /* \"#utility.yul\":21755:21760   */\n      dup3\n        /* \"#utility.yul\":21751:21764   */\n      add\n        /* \"#utility.yul\":21744:21764   */\n      swap1\n      pop\n        /* \"#utility.yul\":21537:21770   */\n      swap2\n      swap1\n      pop\n      jump\t// out\n        /* \"#utility.yul\":21776:21956   */\n    tag_454:\n        /* \"#utility.yul\":21824:21901   */\n      0x4e487b7100000000000000000000000000000000000000000000000000000000\n        /* \"#utility.yul\":21821:21822   */\n      0x00\n        /* \"#utility.yul\":21814:21902   */\n      mstore\n        /* \"#utility.yul\":21921:21925   */\n      0x11\n        /* \"#utility.yul\":21918:21919   */\n      0x04\n        /* \"#utility.yul\":21911:21926   */\n      mstore\n        /* \"#utility.yul\":21945:21949   */\n      0x24\n        /* \"#utility.yul\":21942:21943   */\n      0x00\n        /* \"#utility.yul\":21935:21950   */\n      revert\n        /* \"#utility.yul\":21962:22142   */\n    tag_445:\n        /* \"#utility.yul\":22010:22087   */\n      0x4e487b7100000000000000000000000000000000000000000000000000000000\n        /* \"#utility.yul\":22007:22008   */\n      0x00\n        /* \"#utility.yul\":22000:22088   */\n      mstore\n        /* \"#utility.yul\":22107:22111   */\n      0x22\n        /* \"#utility.yul\":22104:22105   */\n      0x04\n        /* \"#utility.yul\":22097:22112   */\n      mstore\n        /* \"#utility.yul\":22131:22135   */\n      0x24\n        /* \"#utility.yul\":22128:22129   */\n      0x00\n        /* \"#utility.yul\":22121:22136   */\n      revert\n        /* \"#utility.yul\":22148:22328   */\n    tag_101:\n        /* \"#utility.yul\":22196:22273   */\n      0x4e487b7100000000000000000000000000000000000000000000000000000000\n        /* \"#utility.yul\":22193:22194   */\n      0x00\n        /* \"#utility.yul\":22186:22274   */\n      mstore\n        /* \"#utility.yul\":22293:22297   */\n      0x32\n        /* \"#utility.yul\":22290:22291   */\n      0x04\n        /* \"#utility.yul\":22283:22298   */\n      mstore\n        /* \"#utility.yul\":22317:22321   */\n      0x24\n        /* \"#utility.yul\":22314:22315   */\n      0x00\n        /* \"#utility.yul\":22307:22322   */\n      revert\n        /* \"#utility.yul\":22334:22514   */\n    tag_416:\n        /* \"#utility.yul\":22382:22459   */\n      0x4e487b7100000000000000000000000000000000000000000000000000000000\n        /* \"#utility.yul\":22379:22380   */\n      0x00\n        /* \"#utility.yul\":22372:22460   */\n      mstore\n        /* \"#utility.yul\":22479:22483   */\n      0x41\n        /* \"#utility.yul\":22476:22477   */\n      0x04\n        /* \"#utility.yul\":22469:22484   */\n      mstore\n        /* \"#utility.yul\":22503:22507   */\n      0x24\n        /* \"#utility.yul\":22500:22501   */\n      0x00\n        /* \"#utility.yul\":22493:22508   */\n      revert\n        /* \"#utility.yul\":22520:22637   */\n    tag_228:\n        /* \"#utility.yul\":22629:22630   */\n      0x00\n        /* \"#utility.yul\":22626:22627   */\n      dup1\n        /* \"#utility.yul\":22619:22631   */\n      revert\n        /* \"#utility.yul\":22643:22760   */\n    tag_217:\n        /* \"#utility.yul\":22752:22753   */\n      0x00\n        /* \"#utility.yul\":22749:22750   */\n      dup1\n        /* \"#utility.yul\":22742:22754   */\n      revert\n        /* \"#utility.yul\":22766:22883   */\n    tag_244:\n        /* \"#utility.yul\":22875:22876   */\n      0x00\n        /* \"#utility.yul\":22872:22873   */\n      dup1\n        /* \"#utility.yul\":22865:22877   */\n      revert\n        /* \"#utility.yul\":22889:23006   */\n    tag_237:\n        /* \"#utility.yul\":22998:22999   */\n      0x00\n        /* \"#utility.yul\":22995:22996   */\n      dup1\n        /* \"#utility.yul\":22988:23000   */\n      revert\n        /* \"#utility.yul\":23012:23114   */\n    tag_322:\n        /* \"#utility.yul\":23053:23059   */\n      0x00\n        /* \"#utility.yul\":23104:23106   */\n      0x1f\n        /* \"#utility.yul\":23100:23107   */\n      not\n        /* \"#utility.yul\":23095:23097   */\n      0x1f\n        /* \"#utility.yul\":23088:23093   */\n      dup4\n        /* \"#utility.yul\":23084:23098   */\n      add\n        /* \"#utility.yul\":23080:23108   */\n      and\n        /* \"#utility.yul\":23070:23108   */\n      swap1\n      pop\n        /* \"#utility.yul\":23012:23114   */\n      swap2\n      swap1\n      pop\n      jump\t// out\n        /* \"#utility.yul\":23120:23298   */\n    tag_334:\n        /* \"#utility.yul\":23260:23290   */\n      0x796f7520617265206e6f74206120726567697374657220766f74657200000000\n        /* \"#utility.yul\":23256:23257   */\n      0x00\n        /* \"#utility.yul\":23248:23254   */\n      dup3\n        /* \"#utility.yul\":23244:23258   */\n      add\n        /* \"#utility.yul\":23237:23291   */\n      mstore\n        /* \"#utility.yul\":23120:23298   */\n      pop\n      jump\t// out\n        /* \"#utility.yul\":23304:23472   */\n    tag_339:\n        /* \"#utility.yul\":23444:23464   */\n      0x766f7465206e6f74207374617274207965740000000000000000000000000000\n        /* \"#utility.yul\":23440:23441   */\n      0x00\n        /* \"#utility.yul\":23432:23438   */\n      dup3\n        /* \"#utility.yul\":23428:23442   */\n      add\n        /* \"#utility.yul\":23421:23465   */\n      mstore\n        /* \"#utility.yul\":23304:23472   */\n      pop\n      jump\t// out\n        /* \"#utility.yul\":23478:23648   */\n    tag_344:\n        /* \"#utility.yul\":23618:23640   */\n      0x796f7520617265206e6f7420616e2061646d696e000000000000000000000000\n        /* \"#utility.yul\":23614:23615   */\n      0x00\n        /* \"#utility.yul\":23606:23612   */\n      dup3\n        /* \"#utility.yul\":23602:23616   */\n      add\n        /* \"#utility.yul\":23595:23641   */\n      mstore\n        /* \"#utility.yul\":23478:23648   */\n      pop\n      jump\t// out\n        /* \"#utility.yul\":23654:23827   */\n    tag_349:\n        /* \"#utility.yul\":23794:23819   */\n      0x526567697374726174696f6e206e6f7420737461727420000000000000000000\n        /* \"#utility.yul\":23790:23791   */\n      0x00\n        /* \"#utility.yul\":23782:23788   */\n      dup3\n        /* \"#utility.yul\":23778:23792   */\n      add\n        /* \"#utility.yul\":23771:23820   */\n      mstore\n        /* \"#utility.yul\":23654:23827   */\n      pop\n      jump\t// out\n        /* \"#utility.yul\":23833:24053   */\n    tag_354:\n        /* \"#utility.yul\":23973:24007   */\n      0x596f7520616c7265616479207265676973746572207375636365737366756c6c\n        /* \"#utility.yul\":23969:23970   */\n      0x00\n        /* \"#utility.yul\":23961:23967   */\n      dup3\n        /* \"#utility.yul\":23957:23971   */\n      add\n        /* \"#utility.yul\":23950:24008   */\n      mstore\n        /* \"#utility.yul\":24042:24045   */\n      0x7900000000000000000000000000000000000000000000000000000000000000\n        /* \"#utility.yul\":24037:24039   */\n      0x20\n        /* \"#utility.yul\":24029:24035   */\n      dup3\n        /* \"#utility.yul\":24025:24040   */\n      add\n        /* \"#utility.yul\":24018:24046   */\n      mstore\n        /* \"#utility.yul\":23833:24053   */\n      pop\n      jump\t// out\n        /* \"#utility.yul\":24059:24238   */\n    tag_359:\n        /* \"#utility.yul\":24199:24230   */\n      0x796f757220766f746520697320616c726561647920636f6d706c657465000000\n        /* \"#utility.yul\":24195:24196   */\n      0x00\n        /* \"#utility.yul\":24187:24193   */\n      dup3\n        /* \"#utility.yul\":24183:24197   */\n      add\n        /* \"#utility.yul\":24176:24231   */\n      mstore\n        /* \"#utility.yul\":24059:24238   */\n      pop\n      jump\t// out\n        /* \"#utility.yul\":24244:24366   */\n    tag_223:\n        /* \"#utility.yul\":24317:24341   */\n      tag_471\n        /* \"#utility.yul\":24335:24340   */\n      dup2\n        /* \"#utility.yul\":24317:24341   */\n      tag_274\n      jump\t// in\n    tag_471:\n        /* \"#utility.yul\":24310:24315   */\n      dup2\n        /* \"#utility.yul\":24307:24342   */\n      eq\n        /* \"#utility.yul\":24297:24360   */\n      tag_472\n      jumpi\n        /* \"#utility.yul\":24356:24357   */\n      0x00\n        /* \"#utility.yul\":24353:24354   */\n      dup1\n        /* \"#utility.yul\":24346:24358   */\n      revert\n        /* \"#utility.yul\":24297:24360   */\n    tag_472:\n        /* \"#utility.yul\":24244:24366   */\n      pop\n      jump\t// out\n        /* \"#utility.yul\":24372:24494   */\n    tag_233:\n        /* \"#utility.yul\":24445:24469   */\n      tag_474\n        /* \"#utility.yul\":24463:24468   */\n      dup2\n        /* \"#utility.yul\":24445:24469   */\n      tag_372\n      jump\t// in\n    tag_474:\n        /* \"#utility.yul\":24438:24443   */\n      dup2\n        /* \"#utility.yul\":24435:24470   */\n      eq\n        /* \"#utility.yul\":24425:24488   */\n      tag_475\n      jumpi\n        /* \"#utility.yul\":24484:24485   */\n      0x00\n        /* \"#utility.yul\":24481:24482   */\n      dup1\n        /* \"#utility.yul\":24474:24486   */\n      revert\n        /* \"#utility.yul\":24425:24488   */\n    tag_475:\n        /* \"#utility.yul\":24372:24494   */\n      pop\n      jump\t// out\n\n    auxdata: 0xa2646970667358221220c599f4129ca9af735f54d62dced5b2c761845cb6883f10711d9b8f06ba0f048264736f6c63430008070033\n}\n","bytecode":{"linkReferences":{},"object":"608060405234801561001057600080fd5b50336000806101000a81548173ffffffffffffffffffffffffffffffffffffffff021916908373ffffffffffffffffffffffffffffffffffffffff16021790555060008060146101000a81548160ff02191690831515021790555060008060156101000a81548160ff021916908315150217905550611fad806100946000396000f3fe608060405234801561001057600080fd5b50600436106101165760003560e01c8063481c6a75116100a2578063b3124a9711610071578063b3124a9714610295578063dfefadff146102b3578063e031535b146102e6578063f43abeab14610304578063f56961651461032257610116565b8063481c6a751461020b57806374b25b8e14610229578063984fe4b4146102475780639d469c3b1461027757610116565b806323bf9f95116100e957806323bf9f951461016757806326541b56146101835780632d4982091461019f5780633477ee2e146101a957806338db6dd3146101db57610116565b80630121b93f1461011b57806310b86695146101375780631af3feea14610141578063213fbf1b1461014b575b600080fd5b61013560048036038101906101309190611596565b61032c565b005b61013f610536565b005b6101496105e1565b005b61016560048036038101906101609190611596565b61068b565b005b610181600480360381019061017c919061150b565b610814565b005b61019d60048036038101906101989190611493565b610a09565b005b6101a7610afc565b005b6101c360048036038101906101be9190611596565b610ba7565b6040516101d293929190611a01565b60405180910390f35b6101f560048036038101906101f09190611466565b610cf1565b6040516102029190611993565b60405180910390f35b610213610d11565b6040516102209190611934565b60405180910390f35b610231610d35565b60405161023e9190611b06565b60405180910390f35b610261600480360381019061025c9190611466565b610d3b565b60405161026e9190611993565b60405180910390f35b61027f610d5b565b60405161028c9190611993565b60405180910390f35b61029d610d6e565b6040516102aa919061194f565b60405180910390f35b6102cd60048036038101906102c89190611596565b610f62565b6040516102dd94939291906119ae565b60405180910390f35b6102ee6110df565b6040516102fb9190611993565b60405180910390f35b61030c6110f2565b6040516103199190611971565b60405180910390f35b61032a61127f565b005b600060149054906101000a900460ff1661037b576040517f08c379a000000000000000000000000000000000000000000000000000000000815260040161037290611a66565b60405180910390fd5b600160003373ffffffffffffffffffffffffffffffffffffffff1673ffffffffffffffffffffffffffffffffffffffff16815260200190815260200160002060009054906101000a900460ff16610407576040517f08c379a00000000000000000000000000000000000000000000000000000000081526004016103fe90611a46565b60405180910390fd5b60001515600460003373ffffffffffffffffffffffffffffffffffffffff1673ffffffffffffffffffffffffffffffffffffffff16815260200190815260200160002060009054906101000a900460ff1615151461049a576040517f08c379a000000000000000000000000000000000000000000000000000000000815260040161049190611ae6565b60405180910390fd5b6000600382815481106104b0576104af611daa565b5b906000526020600020906003020190508060020160008154809291906104d590611d03565b91905055506001600460003373ffffffffffffffffffffffffffffffffffffffff1673ffffffffffffffffffffffffffffffffffffffff16815260200190815260200160002060006101000a81548160ff0219169083151502179055505050565b60008054906101000a900473ffffffffffffffffffffffffffffffffffffffff1673ffffffffffffffffffffffffffffffffffffffff163373ffffffffffffffffffffffffffffffffffffffff16146105c4576040517f08c379a00000000000000000000000000000000000000000000000000000000081526004016105bb90611a86565b60405180910390fd5b6001600060156101000a81548160ff021916908315150217905550565b60008054906101000a900473ffffffffffffffffffffffffffffffffffffffff1673ffffffffffffffffffffffffffffffffffffffff163373ffffffffffffffffffffffffffffffffffffffff161461066f576040517f08c379a000000000000000000000000000000000000000000000000000000000815260040161066690611a86565b60405180910390fd5b60008060146101000a81548160ff021916908315150217905550565b60008054906101000a900473ffffffffffffffffffffffffffffffffffffffff1673ffffffffffffffffffffffffffffffffffffffff163373ffffffffffffffffffffffffffffffffffffffff1614610719576040517f08c379a000000000000000000000000000000000000000000000000000000000815260040161071090611a86565b60405180910390fd5b60006002828154811061072f5761072e611daa565b5b906000526020600020906003020160020160009054906101000a900473ffffffffffffffffffffffffffffffffffffffff16905060016002838154811061077957610778611daa565b5b906000526020600020906003020160020160146101000a81548160ff02191690831515021790555060018060008373ffffffffffffffffffffffffffffffffffffffff1673ffffffffffffffffffffffffffffffffffffffff16815260200190815260200160002060006101000a81548160ff0219169083151502179055506005600081548092919061080b90611d03565b91905055505050565b600060159054906101000a900460ff16610863576040517f08c379a000000000000000000000000000000000000000000000000000000000815260040161085a90611aa6565b60405180910390fd5b60001515600160008373ffffffffffffffffffffffffffffffffffffffff1673ffffffffffffffffffffffffffffffffffffffff16815260200190815260200160002060009054906101000a900460ff161515146108f6576040517f08c379a00000000000000000000000000000000000000000000000000000000081526004016108ed90611ac6565b60405180910390fd5b600060405180608001604052808581526020018481526020018373ffffffffffffffffffffffffffffffffffffffff1681526020016000151581525090506002819080600181540180825580915050600190039060005260206000209060030201600090919091909150600082015181600001908051906020019061097c929190611329565b506020820151816001019080519060200190610999929190611329565b5060408201518160020160006101000a81548173ffffffffffffffffffffffffffffffffffffffff021916908373ffffffffffffffffffffffffffffffffffffffff16021790555060608201518160020160146101000a81548160ff021916908315150217905550505050505050565b60008054906101000a900473ffffffffffffffffffffffffffffffffffffffff1673ffffffffffffffffffffffffffffffffffffffff163373ffffffffffffffffffffffffffffffffffffffff1614610a97576040517f08c379a0000000000000000000000000000000000000000000000000000000008152600401610a8e90611a86565b60405180910390fd5b60006003600181600181540180825580915050039060005260206000209060030201905082816000019080519060200190610ad3929190611329565b5081816001019080519060200190610aec929190611329565b5060008160020181905550505050565b60008054906101000a900473ffffffffffffffffffffffffffffffffffffffff1673ffffffffffffffffffffffffffffffffffffffff163373ffffffffffffffffffffffffffffffffffffffff1614610b8a576040517f08c379a0000000000000000000000000000000000000000000000000000000008152600401610b8190611a86565b60405180910390fd5b6001600060146101000a81548160ff021916908315150217905550565b60038181548110610bb757600080fd5b9060005260206000209060030201600091509050806000018054610bda90611ca0565b80601f0160208091040260200160405190810160405280929190818152602001828054610c0690611ca0565b8015610c535780601f10610c2857610100808354040283529160200191610c53565b820191906000526020600020905b815481529060010190602001808311610c3657829003601f168201915b505050505090806001018054610c6890611ca0565b80601f0160208091040260200160405190810160405280929190818152602001828054610c9490611ca0565b8015610ce15780601f10610cb657610100808354040283529160200191610ce1565b820191906000526020600020905b815481529060010190602001808311610cc457829003601f168201915b5050505050908060020154905083565b60016020528060005260406000206000915054906101000a900460ff1681565b60008054906101000a900473ffffffffffffffffffffffffffffffffffffffff1681565b60055481565b60046020528060005260406000206000915054906101000a900460ff1681565b600060159054906101000a900460ff1681565b60606002805480602002602001604051908101604052809291908181526020016000905b82821015610f595783829060005260206000209060030201604051806080016040529081600082018054610dc590611ca0565b80601f0160208091040260200160405190810160405280929190818152602001828054610df190611ca0565b8015610e3e5780601f10610e1357610100808354040283529160200191610e3e565b820191906000526020600020905b815481529060010190602001808311610e2157829003601f168201915b50505050508152602001600182018054610e5790611ca0565b80601f0160208091040260200160405190810160405280929190818152602001828054610e8390611ca0565b8015610ed05780601f10610ea557610100808354040283529160200191610ed0565b820191906000526020600020905b815481529060010190602001808311610eb357829003601f168201915b505050505081526020016002820160009054906101000a900473ffffffffffffffffffffffffffffffffffffffff1673ffffffffffffffffffffffffffffffffffffffff1673ffffffffffffffffffffffffffffffffffffffff1681526020016002820160149054906101000a900460ff16151515158152505081526020019060010190610d92565b50505050905090565b60028181548110610f7257600080fd5b9060005260206000209060030201600091509050806000018054610f9590611ca0565b80601f0160208091040260200160405190810160405280929190818152602001828054610fc190611ca0565b801561100e5780601f10610fe35761010080835404028352916020019161100e565b820191906000526020600020905b815481529060010190602001808311610ff157829003601f168201915b50505050509080600101805461102390611ca0565b80601f016020809104026020016040519081016040528092919081815260200182805461104f90611ca0565b801561109c5780601f106110715761010080835404028352916020019161109c565b820191906000526020600020905b81548152906001019060200180831161107f57829003601f168201915b5050505050908060020160009054906101000a900473ffffffffffffffffffffffffffffffffffffffff16908060020160149054906101000a900460ff16905084565b600060149054906101000a900460ff1681565b60606003805480602002602001604051908101604052809291908181526020016000905b82821015611276578382906000526020600020906003020160405180606001604052908160008201805461114990611ca0565b80601f016020809104026020016040519081016040528092919081815260200182805461117590611ca0565b80156111c25780601f10611197576101008083540402835291602001916111c2565b820191906000526020600020905b8154815290600101906020018083116111a557829003601f168201915b505050505081526020016001820180546111db90611ca0565b80601f016020809104026020016040519081016040528092919081815260200182805461120790611ca0565b80156112545780601f1061122957610100808354040283529160200191611254565b820191906000526020600020905b81548152906001019060200180831161123757829003601f168201915b5050505050815260200160028201548152505081526020019060010190611116565b50505050905090565b60008054906101000a900473ffffffffffffffffffffffffffffffffffffffff1673ffffffffffffffffffffffffffffffffffffffff163373ffffffffffffffffffffffffffffffffffffffff161461130d576040517f08c379a000000000000000000000000000000000000000000000000000000000815260040161130490611a86565b60405180910390fd5b60008060156101000a81548160ff021916908315150217905550565b82805461133590611ca0565b90600052602060002090601f016020900481019282611357576000855561139e565b82601f1061137057805160ff191683800117855561139e565b8280016001018555821561139e579182015b8281111561139d578251825591602001919060010190611382565b5b5090506113ab91906113af565b5090565b5b808211156113c85760008160009055506001016113b0565b5090565b60006113df6113da84611b46565b611b21565b9050828152602081018484840111156113fb576113fa611e0d565b5b611406848285611c5e565b509392505050565b60008135905061141d81611f49565b92915050565b600082601f83011261143857611437611e08565b5b81356114488482602086016113cc565b91505092915050565b60008135905061146081611f60565b92915050565b60006020828403121561147c5761147b611e17565b5b600061148a8482850161140e565b91505092915050565b600080604083850312156114aa576114a9611e17565b5b600083013567ffffffffffffffff8111156114c8576114c7611e12565b5b6114d485828601611423565b925050602083013567ffffffffffffffff8111156114f5576114f4611e12565b5b61150185828601611423565b9150509250929050565b60008060006060848603121561152457611523611e17565b5b600084013567ffffffffffffffff81111561154257611541611e12565b5b61154e86828701611423565b935050602084013567ffffffffffffffff81111561156f5761156e611e12565b5b61157b86828701611423565b925050604061158c8682870161140e565b9150509250925092565b6000602082840312156115ac576115ab611e17565b5b60006115ba84828501611451565b91505092915050565b60006115cf8383611855565b905092915050565b60006115e383836118bf565b905092915050565b6115f481611c16565b82525050565b61160381611c16565b82525050565b600061161482611b97565b61161e8185611bd2565b93508360208202850161163085611b77565b8060005b8581101561166c578484038952815161164d85826115c3565b945061165883611bb8565b925060208a01995050600181019050611634565b50829750879550505050505092915050565b600061168982611ba2565b6116938185611be3565b9350836020820285016116a585611b87565b8060005b858110156116e157848403895281516116c285826115d7565b94506116cd83611bc5565b925060208a019950506001810190506116a9565b50829750879550505050505092915050565b6116fc81611c28565b82525050565b61170b81611c28565b82525050565b600061171c82611bad565b6117268185611bf4565b9350611736818560208601611c6d565b61173f81611e1c565b840191505092915050565b600061175582611bad565b61175f8185611c05565b935061176f818560208601611c6d565b61177881611e1c565b840191505092915050565b6000611790601c83611c05565b915061179b82611e2d565b602082019050919050565b60006117b3601283611c05565b91506117be82611e56565b602082019050919050565b60006117d6601483611c05565b91506117e182611e7f565b602082019050919050565b60006117f9601783611c05565b915061180482611ea8565b602082019050919050565b600061181c602183611c05565b915061182782611ed1565b604082019050919050565b600061183f601d83611c05565b915061184a82611f20565b602082019050919050565b600060808301600083015184820360008601526118728282611711565b9150506020830151848203602086015261188c8282611711565b91505060408301516118a160408601826115eb565b5060608301516118b460608601826116f3565b508091505092915050565b600060608301600083015184820360008601526118dc8282611711565b915050602083015184820360208601526118f68282611711565b915050604083015161190b6040860182611916565b508091505092915050565b61191f81611c54565b82525050565b61192e81611c54565b82525050565b600060208201905061194960008301846115fa565b92915050565b600060208201905081810360008301526119698184611609565b905092915050565b6000602082019050818103600083015261198b818461167e565b905092915050565b60006020820190506119a86000830184611702565b92915050565b600060808201905081810360008301526119c8818761174a565b905081810360208301526119dc818661174a565b90506119eb60408301856115fa565b6119f86060830184611702565b95945050505050565b60006060820190508181036000830152611a1b818661174a565b90508181036020830152611a2f818561174a565b9050611a3e6040830184611925565b949350505050565b60006020820190508181036000830152611a5f81611783565b9050919050565b60006020820190508181036000830152611a7f816117a6565b9050919050565b60006020820190508181036000830152611a9f816117c9565b9050919050565b60006020820190508181036000830152611abf816117ec565b9050919050565b60006020820190508181036000830152611adf8161180f565b9050919050565b60006020820190508181036000830152611aff81611832565b9050919050565b6000602082019050611b1b6000830184611925565b92915050565b6000611b2b611b3c565b9050611b378282611cd2565b919050565b6000604051905090565b600067ffffffffffffffff821115611b6157611b60611dd9565b5b611b6a82611e1c565b9050602081019050919050565b6000819050602082019050919050565b6000819050602082019050919050565b600081519050919050565b600081519050919050565b600081519050919050565b6000602082019050919050565b6000602082019050919050565b600082825260208201905092915050565b600082825260208201905092915050565b600082825260208201905092915050565b600082825260208201905092915050565b6000611c2182611c34565b9050919050565b60008115159050919050565b600073ffffffffffffffffffffffffffffffffffffffff82169050919050565b6000819050919050565b82818337600083830152505050565b60005b83811015611c8b578082015181840152602081019050611c70565b83811115611c9a576000848401525b50505050565b60006002820490506001821680611cb857607f821691505b60208210811415611ccc57611ccb611d7b565b5b50919050565b611cdb82611e1c565b810181811067ffffffffffffffff82111715611cfa57611cf9611dd9565b5b80604052505050565b6000611d0e82611c54565b91507fffffffffffffffffffffffffffffffffffffffffffffffffffffffffffffffff821415611d4157611d40611d4c565b5b600182019050919050565b7f4e487b7100000000000000000000000000000000000000000000000000000000600052601160045260246000fd5b7f4e487b7100000000000000000000000000000000000000000000000000000000600052602260045260246000fd5b7f4e487b7100000000000000000000000000000000000000000000000000000000600052603260045260246000fd5b7f4e487b7100000000000000000000000000000000000000000000000000000000600052604160045260246000fd5b600080fd5b600080fd5b600080fd5b600080fd5b6000601f19601f8301169050919050565b7f796f7520617265206e6f74206120726567697374657220766f74657200000000600082015250565b7f766f7465206e6f74207374617274207965740000000000000000000000000000600082015250565b7f796f7520617265206e6f7420616e2061646d696e000000000000000000000000600082015250565b7f526567697374726174696f6e206e6f7420737461727420000000000000000000600082015250565b7f596f7520616c7265616479207265676973746572207375636365737366756c6c60008201527f7900000000000000000000000000000000000000000000000000000000000000602082015250565b7f796f757220766f746520697320616c726561647920636f6d706c657465000000600082015250565b611f5281611c16565b8114611f5d57600080fd5b50565b611f6981611c54565b8114611f7457600080fd5b5056fea2646970667358221220c599f4129ca9af735f54d62dced5b2c761845cb6883f10711d9b8f06ba0f048264736f6c63430008070033","opcodes":"PUSH1 0x80 PUSH1 0x40 MSTORE CALLVALUE DUP1 ISZERO PUSH2 0x10 JUMPI PUSH1 0x0 DUP1 REVERT JUMPDEST POP CALLER PUSH1 0x0 DUP1 PUSH2 0x100 EXP DUP2 SLOAD DUP2 PUSH20 0xFFFFFFFFFFFFFFFFFFFFFFFFFFFFFFFFFFFFFFFF MUL NOT AND SWAP1 DUP4 PUSH20 0xFFFFFFFFFFFFFFFFFFFFFFFFFFFFFFFFFFFFFFFF AND MUL OR SWAP1 SSTORE POP PUSH1 0x0 DUP1 PUSH1 0x14 PUSH2 0x100 EXP DUP2 SLOAD DUP2 PUSH1 0xFF MUL NOT AND SWAP1 DUP4 ISZERO ISZERO MUL OR SWAP1 SSTORE POP PUSH1 0x0 DUP1 PUSH1 0x15 PUSH2 0x100 EXP DUP2 SLOAD DUP2 PUSH1 0xFF MUL NOT AND SWAP1 DUP4 ISZERO ISZERO MUL OR SWAP1 SSTORE POP PUSH2 0x1FAD DUP1 PUSH2 0x94 PUSH1 0x0 CODECOPY PUSH1 0x0 RETURN INVALID PUSH1 0x80 PUSH1 0x40 MSTORE CALLVALUE DUP1 ISZERO PUSH2 0x10 JUMPI PUSH1 0x0 DUP1 REVERT JUMPDEST POP PUSH1 0x4 CALLDATASIZE LT PUSH2 0x116 JUMPI PUSH1 0x0 CALLDATALOAD PUSH1 0xE0 SHR DUP1 PUSH4 0x481C6A75 GT PUSH2 0xA2 JUMPI DUP1 PUSH4 0xB3124A97 GT PUSH2 0x71 JUMPI DUP1 PUSH4 0xB3124A97 EQ PUSH2 0x295 JUMPI DUP1 PUSH4 0xDFEFADFF EQ PUSH2 0x2B3 JUMPI DUP1 PUSH4 0xE031535B EQ PUSH2 0x2E6 JUMPI DUP1 PUSH4 0xF43ABEAB EQ PUSH2 0x304 JUMPI DUP1 PUSH4 0xF5696165 EQ PUSH2 0x322 JUMPI PUSH2 0x116 JUMP JUMPDEST DUP1 PUSH4 0x481C6A75 EQ PUSH2 0x20B JUMPI DUP1 PUSH4 0x74B25B8E EQ PUSH2 0x229 JUMPI DUP1 PUSH4 0x984FE4B4 EQ PUSH2 0x247 JUMPI DUP1 PUSH4 0x9D469C3B EQ PUSH2 0x277 JUMPI PUSH2 0x116 JUMP JUMPDEST DUP1 PUSH4 0x23BF9F95 GT PUSH2 0xE9 JUMPI DUP1 PUSH4 0x23BF9F95 EQ PUSH2 0x167 JUMPI DUP1 PUSH4 0x26541B56 EQ PUSH2 0x183 JUMPI DUP1 PUSH4 0x2D498209 EQ PUSH2 0x19F JUMPI DUP1 PUSH4 0x3477EE2E EQ PUSH2 0x1A9 JUMPI DUP1 PUSH4 0x38DB6DD3 EQ PUSH2 0x1DB JUMPI PUSH2 0x116 JUMP JUMPDEST DUP1 PUSH4 0x121B93F EQ PUSH2 0x11B JUMPI DUP1 PUSH4 0x10B86695 EQ PUSH2 0x137 JUMPI DUP1 PUSH4 0x1AF3FEEA EQ PUSH2 0x141 JUMPI DUP1 PUSH4 0x213FBF1B EQ PUSH2 0x14B JUMPI JUMPDEST PUSH1 0x0 DUP1 REVERT JUMPDEST PUSH2 0x135 PUSH1 0x4 DUP1 CALLDATASIZE SUB DUP2 ADD SWAP1 PUSH2 0x130 SWAP2 SWAP1 PUSH2 0x1596 JUMP JUMPDEST PUSH2 0x32C JUMP JUMPDEST STOP JUMPDEST PUSH2 0x13F PUSH2 0x536 JUMP JUMPDEST STOP JUMPDEST PUSH2 0x149 PUSH2 0x5E1 JUMP JUMPDEST STOP JUMPDEST PUSH2 0x165 PUSH1 0x4 DUP1 CALLDATASIZE SUB DUP2 ADD SWAP1 PUSH2 0x160 SWAP2 SWAP1 PUSH2 0x1596 JUMP JUMPDEST PUSH2 0x68B JUMP JUMPDEST STOP JUMPDEST PUSH2 0x181 PUSH1 0x4 DUP1 CALLDATASIZE SUB DUP2 ADD SWAP1 PUSH2 0x17C SWAP2 SWAP1 PUSH2 0x150B JUMP JUMPDEST PUSH2 0x814 JUMP JUMPDEST STOP JUMPDEST PUSH2 0x19D PUSH1 0x4 DUP1 CALLDATASIZE SUB DUP2 ADD SWAP1 PUSH2 0x198 SWAP2 SWAP1 PUSH2 0x1493 JUMP JUMPDEST PUSH2 0xA09 JUMP JUMPDEST STOP JUMPDEST PUSH2 0x1A7 PUSH2 0xAFC JUMP JUMPDEST STOP JUMPDEST PUSH2 0x1C3 PUSH1 0x4 DUP1 CALLDATASIZE SUB DUP2 ADD SWAP1 PUSH2 0x1BE SWAP2 SWAP1 PUSH2 0x1596 JUMP JUMPDEST PUSH2 0xBA7 JUMP JUMPDEST PUSH1 0x40 MLOAD PUSH2 0x1D2 SWAP4 SWAP3 SWAP2 SWAP1 PUSH2 0x1A01 JUMP JUMPDEST PUSH1 0x40 MLOAD DUP1 SWAP2 SUB SWAP1 RETURN JUMPDEST PUSH2 0x1F5 PUSH1 0x4 DUP1 CALLDATASIZE SUB DUP2 ADD SWAP1 PUSH2 0x1F0 SWAP2 SWAP1 PUSH2 0x1466 JUMP JUMPDEST PUSH2 0xCF1 JUMP JUMPDEST PUSH1 0x40 MLOAD PUSH2 0x202 SWAP2 SWAP1 PUSH2 0x1993 JUMP JUMPDEST PUSH1 0x40 MLOAD DUP1 SWAP2 SUB SWAP1 RETURN JUMPDEST PUSH2 0x213 PUSH2 0xD11 JUMP JUMPDEST PUSH1 0x40 MLOAD PUSH2 0x220 SWAP2 SWAP1 PUSH2 0x1934 JUMP JUMPDEST PUSH1 0x40 MLOAD DUP1 SWAP2 SUB SWAP1 RETURN JUMPDEST PUSH2 0x231 PUSH2 0xD35 JUMP JUMPDEST PUSH1 0x40 MLOAD PUSH2 0x23E SWAP2 SWAP1 PUSH2 0x1B06 JUMP JUMPDEST PUSH1 0x40 MLOAD DUP1 SWAP2 SUB SWAP1 RETURN JUMPDEST PUSH2 0x261 PUSH1 0x4 DUP1 CALLDATASIZE SUB DUP2 ADD SWAP1 PUSH2 0x25C SWAP2 SWAP1 PUSH2 0x1466 JUMP JUMPDEST PUSH2 0xD3B JUMP JUMPDEST PUSH1 0x40 MLOAD PUSH2 0x26E SWAP2 SWAP1 PUSH2 0x1993 JUMP JUMPDEST PUSH1 0x40 MLOAD DUP1 SWAP2 SUB SWAP1 RETURN JUMPDEST PUSH2 0x27F PUSH2 0xD5B JUMP JUMPDEST PUSH1 0x40 MLOAD PUSH2 0x28C SWAP2 SWAP1 PUSH2 0x1993 JUMP JUMPDEST PUSH1 0x40 MLOAD DUP1 SWAP2 SUB SWAP1 RETURN JUMPDEST PUSH2 0x29D PUSH2 0xD6E JUMP JUMPDEST PUSH1 0x40 MLOAD PUSH2 0x2AA SWAP2 SWAP1 PUSH2 0x194F JUMP JUMPDEST PUSH1 0x40 MLOAD DUP1 SWAP2 SUB SWAP1 RETURN JUMPDEST PUSH2 0x2CD PUSH1 0x4 DUP1 CALLDATASIZE SUB DUP2 ADD SWAP1 PUSH2 0x2C8 SWAP2 SWAP1 PUSH2 0x1596 JUMP JUMPDEST PUSH2 0xF62 JUMP JUMPDEST PUSH1 0x40 MLOAD PUSH2 0x2DD SWAP5 SWAP4 SWAP3 SWAP2 SWAP1 PUSH2 0x19AE JUMP JUMPDEST PUSH1 0x40 MLOAD DUP1 SWAP2 SUB SWAP1 RETURN JUMPDEST PUSH2 0x2EE PUSH2 0x10DF JUMP JUMPDEST PUSH1 0x40 MLOAD PUSH2 0x2FB SWAP2 SWAP1 PUSH2 0x1993 JUMP JUMPDEST PUSH1 0x40 MLOAD DUP1 SWAP2 SUB SWAP1 RETURN JUMPDEST PUSH2 0x30C PUSH2 0x10F2 JUMP JUMPDEST PUSH1 0x40 MLOAD PUSH2 0x319 SWAP2 SWAP1 PUSH2 0x1971 JUMP JUMPDEST PUSH1 0x40 MLOAD DUP1 SWAP2 SUB SWAP1 RETURN JUMPDEST PUSH2 0x32A PUSH2 0x127F JUMP JUMPDEST STOP JUMPDEST PUSH1 0x0 PUSH1 0x14 SWAP1 SLOAD SWAP1 PUSH2 0x100 EXP SWAP1 DIV PUSH1 0xFF AND PUSH2 0x37B JUMPI PUSH1 0x40 MLOAD PUSH32 0x8C379A000000000000000000000000000000000000000000000000000000000 DUP2 MSTORE PUSH1 0x4 ADD PUSH2 0x372 SWAP1 PUSH2 0x1A66 JUMP JUMPDEST PUSH1 0x40 MLOAD DUP1 SWAP2 SUB SWAP1 REVERT JUMPDEST PUSH1 0x1 PUSH1 0x0 CALLER PUSH20 0xFFFFFFFFFFFFFFFFFFFFFFFFFFFFFFFFFFFFFFFF AND PUSH20 0xFFFFFFFFFFFFFFFFFFFFFFFFFFFFFFFFFFFFFFFF AND DUP2 MSTORE PUSH1 0x20 ADD SWAP1 DUP2 MSTORE PUSH1 0x20 ADD PUSH1 0x0 KECCAK256 PUSH1 0x0 SWAP1 SLOAD SWAP1 PUSH2 0x100 EXP SWAP1 DIV PUSH1 0xFF AND PUSH2 0x407 JUMPI PUSH1 0x40 MLOAD PUSH32 0x8C379A000000000000000000000000000000000000000000000000000000000 DUP2 MSTORE PUSH1 0x4 ADD PUSH2 0x3FE SWAP1 PUSH2 0x1A46 JUMP JUMPDEST PUSH1 0x40 MLOAD DUP1 SWAP2 SUB SWAP1 REVERT JUMPDEST PUSH1 0x0 ISZERO ISZERO PUSH1 0x4 PUSH1 0x0 CALLER PUSH20 0xFFFFFFFFFFFFFFFFFFFFFFFFFFFFFFFFFFFFFFFF AND PUSH20 0xFFFFFFFFFFFFFFFFFFFFFFFFFFFFFFFFFFFFFFFF AND DUP2 MSTORE PUSH1 0x20 ADD SWAP1 DUP2 MSTORE PUSH1 0x20 ADD PUSH1 0x0 KECCAK256 PUSH1 0x0 SWAP1 SLOAD SWAP1 PUSH2 0x100 EXP SWAP1 DIV PUSH1 0xFF AND ISZERO ISZERO EQ PUSH2 0x49A JUMPI PUSH1 0x40 MLOAD PUSH32 0x8C379A000000000000000000000000000000000000000000000000000000000 DUP2 MSTORE PUSH1 0x4 ADD PUSH2 0x491 SWAP1 PUSH2 0x1AE6 JUMP JUMPDEST PUSH1 0x40 MLOAD DUP1 SWAP2 SUB SWAP1 REVERT JUMPDEST PUSH1 0x0 PUSH1 0x3 DUP3 DUP2 SLOAD DUP2 LT PUSH2 0x4B0 JUMPI PUSH2 0x4AF PUSH2 0x1DAA JUMP JUMPDEST JUMPDEST SWAP1 PUSH1 0x0 MSTORE PUSH1 0x20 PUSH1 0x0 KECCAK256 SWAP1 PUSH1 0x3 MUL ADD SWAP1 POP DUP1 PUSH1 0x2 ADD PUSH1 0x0 DUP2 SLOAD DUP1 SWAP3 SWAP2 SWAP1 PUSH2 0x4D5 SWAP1 PUSH2 0x1D03 JUMP JUMPDEST SWAP2 SWAP1 POP SSTORE POP PUSH1 0x1 PUSH1 0x4 PUSH1 0x0 CALLER PUSH20 0xFFFFFFFFFFFFFFFFFFFFFFFFFFFFFFFFFFFFFFFF AND PUSH20 0xFFFFFFFFFFFFFFFFFFFFFFFFFFFFFFFFFFFFFFFF AND DUP2 MSTORE PUSH1 0x20 ADD SWAP1 DUP2 MSTORE PUSH1 0x20 ADD PUSH1 0x0 KECCAK256 PUSH1 0x0 PUSH2 0x100 EXP DUP2 SLOAD DUP2 PUSH1 0xFF MUL NOT AND SWAP1 DUP4 ISZERO ISZERO MUL OR SWAP1 SSTORE POP POP POP JUMP JUMPDEST PUSH1 0x0 DUP1 SLOAD SWAP1 PUSH2 0x100 EXP SWAP1 DIV PUSH20 0xFFFFFFFFFFFFFFFFFFFFFFFFFFFFFFFFFFFFFFFF AND PUSH20 0xFFFFFFFFFFFFFFFFFFFFFFFFFFFFFFFFFFFFFFFF AND CALLER PUSH20 0xFFFFFFFFFFFFFFFFFFFFFFFFFFFFFFFFFFFFFFFF AND EQ PUSH2 0x5C4 JUMPI PUSH1 0x40 MLOAD PUSH32 0x8C379A000000000000000000000000000000000000000000000000000000000 DUP2 MSTORE PUSH1 0x4 ADD PUSH2 0x5BB SWAP1 PUSH2 0x1A86 JUMP JUMPDEST PUSH1 0x40 MLOAD DUP1 SWAP2 SUB SWAP1 REVERT JUMPDEST PUSH1 0x1 PUSH1 0x0 PUSH1 0x15 PUSH2 0x100 EXP DUP2 SLOAD DUP2 PUSH1 0xFF MUL NOT AND SWAP1 DUP4 ISZERO ISZERO MUL OR SWAP1 SSTORE POP JUMP JUMPDEST PUSH1 0x0 DUP1 SLOAD SWAP1 PUSH2 0x100 EXP SWAP1 DIV PUSH20 0xFFFFFFFFFFFFFFFFFFFFFFFFFFFFFFFFFFFFFFFF AND PUSH20 0xFFFFFFFFFFFFFFFFFFFFFFFFFFFFFFFFFFFFFFFF AND CALLER PUSH20 0xFFFFFFFFFFFFFFFFFFFFFFFFFFFFFFFFFFFFFFFF AND EQ PUSH2 0x66F JUMPI PUSH1 0x40 MLOAD PUSH32 0x8C379A000000000000000000000000000000000000000000000000000000000 DUP2 MSTORE PUSH1 0x4 ADD PUSH2 0x666 SWAP1 PUSH2 0x1A86 JUMP JUMPDEST PUSH1 0x40 MLOAD DUP1 SWAP2 SUB SWAP1 REVERT JUMPDEST PUSH1 0x0 DUP1 PUSH1 0x14 PUSH2 0x100 EXP DUP2 SLOAD DUP2 PUSH1 0xFF MUL NOT AND SWAP1 DUP4 ISZERO ISZERO MUL OR SWAP1 SSTORE POP JUMP JUMPDEST PUSH1 0x0 DUP1 SLOAD SWAP1 PUSH2 0x100 EXP SWAP1 DIV PUSH20 0xFFFFFFFFFFFFFFFFFFFFFFFFFFFFFFFFFFFFFFFF AND PUSH20 0xFFFFFFFFFFFFFFFFFFFFFFFFFFFFFFFFFFFFFFFF AND CALLER PUSH20 0xFFFFFFFFFFFFFFFFFFFFFFFFFFFFFFFFFFFFFFFF AND EQ PUSH2 0x719 JUMPI PUSH1 0x40 MLOAD PUSH32 0x8C379A000000000000000000000000000000000000000000000000000000000 DUP2 MSTORE PUSH1 0x4 ADD PUSH2 0x710 SWAP1 PUSH2 0x1A86 JUMP JUMPDEST PUSH1 0x40 MLOAD DUP1 SWAP2 SUB SWAP1 REVERT JUMPDEST PUSH1 0x0 PUSH1 0x2 DUP3 DUP2 SLOAD DUP2 LT PUSH2 0x72F JUMPI PUSH2 0x72E PUSH2 0x1DAA JUMP JUMPDEST JUMPDEST SWAP1 PUSH1 0x0 MSTORE PUSH1 0x20 PUSH1 0x0 KECCAK256 SWAP1 PUSH1 0x3 MUL ADD PUSH1 0x2 ADD PUSH1 0x0 SWAP1 SLOAD SWAP1 PUSH2 0x100 EXP SWAP1 DIV PUSH20 0xFFFFFFFFFFFFFFFFFFFFFFFFFFFFFFFFFFFFFFFF AND SWAP1 POP PUSH1 0x1 PUSH1 0x2 DUP4 DUP2 SLOAD DUP2 LT PUSH2 0x779 JUMPI PUSH2 0x778 PUSH2 0x1DAA JUMP JUMPDEST JUMPDEST SWAP1 PUSH1 0x0 MSTORE PUSH1 0x20 PUSH1 0x0 KECCAK256 SWAP1 PUSH1 0x3 MUL ADD PUSH1 0x2 ADD PUSH1 0x14 PUSH2 0x100 EXP DUP2 SLOAD DUP2 PUSH1 0xFF MUL NOT AND SWAP1 DUP4 ISZERO ISZERO MUL OR SWAP1 SSTORE POP PUSH1 0x1 DUP1 PUSH1 0x0 DUP4 PUSH20 0xFFFFFFFFFFFFFFFFFFFFFFFFFFFFFFFFFFFFFFFF AND PUSH20 0xFFFFFFFFFFFFFFFFFFFFFFFFFFFFFFFFFFFFFFFF AND DUP2 MSTORE PUSH1 0x20 ADD SWAP1 DUP2 MSTORE PUSH1 0x20 ADD PUSH1 0x0 KECCAK256 PUSH1 0x0 PUSH2 0x100 EXP DUP2 SLOAD DUP2 PUSH1 0xFF MUL NOT AND SWAP1 DUP4 ISZERO ISZERO MUL OR SWAP1 SSTORE POP PUSH1 0x5 PUSH1 0x0 DUP2 SLOAD DUP1 SWAP3 SWAP2 SWAP1 PUSH2 0x80B SWAP1 PUSH2 0x1D03 JUMP JUMPDEST SWAP2 SWAP1 POP SSTORE POP POP POP JUMP JUMPDEST PUSH1 0x0 PUSH1 0x15 SWAP1 SLOAD SWAP1 PUSH2 0x100 EXP SWAP1 DIV PUSH1 0xFF AND PUSH2 0x863 JUMPI PUSH1 0x40 MLOAD PUSH32 0x8C379A000000000000000000000000000000000000000000000000000000000 DUP2 MSTORE PUSH1 0x4 ADD PUSH2 0x85A SWAP1 PUSH2 0x1AA6 JUMP JUMPDEST PUSH1 0x40 MLOAD DUP1 SWAP2 SUB SWAP1 REVERT JUMPDEST PUSH1 0x0 ISZERO ISZERO PUSH1 0x1 PUSH1 0x0 DUP4 PUSH20 0xFFFFFFFFFFFFFFFFFFFFFFFFFFFFFFFFFFFFFFFF AND PUSH20 0xFFFFFFFFFFFFFFFFFFFFFFFFFFFFFFFFFFFFFFFF AND DUP2 MSTORE PUSH1 0x20 ADD SWAP1 DUP2 MSTORE PUSH1 0x20 ADD PUSH1 0x0 KECCAK256 PUSH1 0x0 SWAP1 SLOAD SWAP1 PUSH2 0x100 EXP SWAP1 DIV PUSH1 0xFF AND ISZERO ISZERO EQ PUSH2 0x8F6 JUMPI PUSH1 0x40 MLOAD PUSH32 0x8C379A000000000000000000000000000000000000000000000000000000000 DUP2 MSTORE PUSH1 0x4 ADD PUSH2 0x8ED SWAP1 PUSH2 0x1AC6 JUMP JUMPDEST PUSH1 0x40 MLOAD DUP1 SWAP2 SUB SWAP1 REVERT JUMPDEST PUSH1 0x0 PUSH1 0x40 MLOAD DUP1 PUSH1 0x80 ADD PUSH1 0x40 MSTORE DUP1 DUP6 DUP2 MSTORE PUSH1 0x20 ADD DUP5 DUP2 MSTORE PUSH1 0x20 ADD DUP4 PUSH20 0xFFFFFFFFFFFFFFFFFFFFFFFFFFFFFFFFFFFFFFFF AND DUP2 MSTORE PUSH1 0x20 ADD PUSH1 0x0 ISZERO ISZERO DUP2 MSTORE POP SWAP1 POP PUSH1 0x2 DUP2 SWAP1 DUP1 PUSH1 0x1 DUP2 SLOAD ADD DUP1 DUP3 SSTORE DUP1 SWAP2 POP POP PUSH1 0x1 SWAP1 SUB SWAP1 PUSH1 0x0 MSTORE PUSH1 0x20 PUSH1 0x0 KECCAK256 SWAP1 PUSH1 0x3 MUL ADD PUSH1 0x0 SWAP1 SWAP2 SWAP1 SWAP2 SWAP1 SWAP2 POP PUSH1 0x0 DUP3 ADD MLOAD DUP2 PUSH1 0x0 ADD SWAP1 DUP1 MLOAD SWAP1 PUSH1 0x20 ADD SWAP1 PUSH2 0x97C SWAP3 SWAP2 SWAP1 PUSH2 0x1329 JUMP JUMPDEST POP PUSH1 0x20 DUP3 ADD MLOAD DUP2 PUSH1 0x1 ADD SWAP1 DUP1 MLOAD SWAP1 PUSH1 0x20 ADD SWAP1 PUSH2 0x999 SWAP3 SWAP2 SWAP1 PUSH2 0x1329 JUMP JUMPDEST POP PUSH1 0x40 DUP3 ADD MLOAD DUP2 PUSH1 0x2 ADD PUSH1 0x0 PUSH2 0x100 EXP DUP2 SLOAD DUP2 PUSH20 0xFFFFFFFFFFFFFFFFFFFFFFFFFFFFFFFFFFFFFFFF MUL NOT AND SWAP1 DUP4 PUSH20 0xFFFFFFFFFFFFFFFFFFFFFFFFFFFFFFFFFFFFFFFF AND MUL OR SWAP1 SSTORE POP PUSH1 0x60 DUP3 ADD MLOAD DUP2 PUSH1 0x2 ADD PUSH1 0x14 PUSH2 0x100 EXP DUP2 SLOAD DUP2 PUSH1 0xFF MUL NOT AND SWAP1 DUP4 ISZERO ISZERO MUL OR SWAP1 SSTORE POP POP POP POP POP POP POP JUMP JUMPDEST PUSH1 0x0 DUP1 SLOAD SWAP1 PUSH2 0x100 EXP SWAP1 DIV PUSH20 0xFFFFFFFFFFFFFFFFFFFFFFFFFFFFFFFFFFFFFFFF AND PUSH20 0xFFFFFFFFFFFFFFFFFFFFFFFFFFFFFFFFFFFFFFFF AND CALLER PUSH20 0xFFFFFFFFFFFFFFFFFFFFFFFFFFFFFFFFFFFFFFFF AND EQ PUSH2 0xA97 JUMPI PUSH1 0x40 MLOAD PUSH32 0x8C379A000000000000000000000000000000000000000000000000000000000 DUP2 MSTORE PUSH1 0x4 ADD PUSH2 0xA8E SWAP1 PUSH2 0x1A86 JUMP JUMPDEST PUSH1 0x40 MLOAD DUP1 SWAP2 SUB SWAP1 REVERT JUMPDEST PUSH1 0x0 PUSH1 0x3 PUSH1 0x1 DUP2 PUSH1 0x1 DUP2 SLOAD ADD DUP1 DUP3 SSTORE DUP1 SWAP2 POP POP SUB SWAP1 PUSH1 0x0 MSTORE PUSH1 0x20 PUSH1 0x0 KECCAK256 SWAP1 PUSH1 0x3 MUL ADD SWAP1 POP DUP3 DUP2 PUSH1 0x0 ADD SWAP1 DUP1 MLOAD SWAP1 PUSH1 0x20 ADD SWAP1 PUSH2 0xAD3 SWAP3 SWAP2 SWAP1 PUSH2 0x1329 JUMP JUMPDEST POP DUP2 DUP2 PUSH1 0x1 ADD SWAP1 DUP1 MLOAD SWAP1 PUSH1 0x20 ADD SWAP1 PUSH2 0xAEC SWAP3 SWAP2 SWAP1 PUSH2 0x1329 JUMP JUMPDEST POP PUSH1 0x0 DUP2 PUSH1 0x2 ADD DUP2 SWAP1 SSTORE POP POP POP POP JUMP JUMPDEST PUSH1 0x0 DUP1 SLOAD SWAP1 PUSH2 0x100 EXP SWAP1 DIV PUSH20 0xFFFFFFFFFFFFFFFFFFFFFFFFFFFFFFFFFFFFFFFF AND PUSH20 0xFFFFFFFFFFFFFFFFFFFFFFFFFFFFFFFFFFFFFFFF AND CALLER PUSH20 0xFFFFFFFFFFFFFFFFFFFFFFFFFFFFFFFFFFFFFFFF AND EQ PUSH2 0xB8A JUMPI PUSH1 0x40 MLOAD PUSH32 0x8C379A000000000000000000000000000000000000000000000000000000000 DUP2 MSTORE PUSH1 0x4 ADD PUSH2 0xB81 SWAP1 PUSH2 0x1A86 JUMP JUMPDEST PUSH1 0x40 MLOAD DUP1 SWAP2 SUB SWAP1 REVERT JUMPDEST PUSH1 0x1 PUSH1 0x0 PUSH1 0x14 PUSH2 0x100 EXP DUP2 SLOAD DUP2 PUSH1 0xFF MUL NOT AND SWAP1 DUP4 ISZERO ISZERO MUL OR SWAP1 SSTORE POP JUMP JUMPDEST PUSH1 0x3 DUP2 DUP2 SLOAD DUP2 LT PUSH2 0xBB7 JUMPI PUSH1 0x0 DUP1 REVERT JUMPDEST SWAP1 PUSH1 0x0 MSTORE PUSH1 0x20 PUSH1 0x0 KECCAK256 SWAP1 PUSH1 0x3 MUL ADD PUSH1 0x0 SWAP2 POP SWAP1 POP DUP1 PUSH1 0x0 ADD DUP1 SLOAD PUSH2 0xBDA SWAP1 PUSH2 0x1CA0 JUMP JUMPDEST DUP1 PUSH1 0x1F ADD PUSH1 0x20 DUP1 SWAP2 DIV MUL PUSH1 0x20 ADD PUSH1 0x40 MLOAD SWAP1 DUP2 ADD PUSH1 0x40 MSTORE DUP1 SWAP3 SWAP2 SWAP1 DUP2 DUP2 MSTORE PUSH1 0x20 ADD DUP3 DUP1 SLOAD PUSH2 0xC06 SWAP1 PUSH2 0x1CA0 JUMP JUMPDEST DUP1 ISZERO PUSH2 0xC53 JUMPI DUP1 PUSH1 0x1F LT PUSH2 0xC28 JUMPI PUSH2 0x100 DUP1 DUP4 SLOAD DIV MUL DUP4 MSTORE SWAP2 PUSH1 0x20 ADD SWAP2 PUSH2 0xC53 JUMP JUMPDEST DUP3 ADD SWAP2 SWAP1 PUSH1 0x0 MSTORE PUSH1 0x20 PUSH1 0x0 KECCAK256 SWAP1 JUMPDEST DUP2 SLOAD DUP2 MSTORE SWAP1 PUSH1 0x1 ADD SWAP1 PUSH1 0x20 ADD DUP1 DUP4 GT PUSH2 0xC36 JUMPI DUP3 SWAP1 SUB PUSH1 0x1F AND DUP3 ADD SWAP2 JUMPDEST POP POP POP POP POP SWAP1 DUP1 PUSH1 0x1 ADD DUP1 SLOAD PUSH2 0xC68 SWAP1 PUSH2 0x1CA0 JUMP JUMPDEST DUP1 PUSH1 0x1F ADD PUSH1 0x20 DUP1 SWAP2 DIV MUL PUSH1 0x20 ADD PUSH1 0x40 MLOAD SWAP1 DUP2 ADD PUSH1 0x40 MSTORE DUP1 SWAP3 SWAP2 SWAP1 DUP2 DUP2 MSTORE PUSH1 0x20 ADD DUP3 DUP1 SLOAD PUSH2 0xC94 SWAP1 PUSH2 0x1CA0 JUMP JUMPDEST DUP1 ISZERO PUSH2 0xCE1 JUMPI DUP1 PUSH1 0x1F LT PUSH2 0xCB6 JUMPI PUSH2 0x100 DUP1 DUP4 SLOAD DIV MUL DUP4 MSTORE SWAP2 PUSH1 0x20 ADD SWAP2 PUSH2 0xCE1 JUMP JUMPDEST DUP3 ADD SWAP2 SWAP1 PUSH1 0x0 MSTORE PUSH1 0x20 PUSH1 0x0 KECCAK256 SWAP1 JUMPDEST DUP2 SLOAD DUP2 MSTORE SWAP1 PUSH1 0x1 ADD SWAP1 PUSH1 0x20 ADD DUP1 DUP4 GT PUSH2 0xCC4 JUMPI DUP3 SWAP1 SUB PUSH1 0x1F AND DUP3 ADD SWAP2 JUMPDEST POP POP POP POP POP SWAP1 DUP1 PUSH1 0x2 ADD SLOAD SWAP1 POP DUP4 JUMP JUMPDEST PUSH1 0x1 PUSH1 0x20 MSTORE DUP1 PUSH1 0x0 MSTORE PUSH1 0x40 PUSH1 0x0 KECCAK256 PUSH1 0x0 SWAP2 POP SLOAD SWAP1 PUSH2 0x100 EXP SWAP1 DIV PUSH1 0xFF AND DUP2 JUMP JUMPDEST PUSH1 0x0 DUP1 SLOAD SWAP1 PUSH2 0x100 EXP SWAP1 DIV PUSH20 0xFFFFFFFFFFFFFFFFFFFFFFFFFFFFFFFFFFFFFFFF AND DUP2 JUMP JUMPDEST PUSH1 0x5 SLOAD DUP2 JUMP JUMPDEST PUSH1 0x4 PUSH1 0x20 MSTORE DUP1 PUSH1 0x0 MSTORE PUSH1 0x40 PUSH1 0x0 KECCAK256 PUSH1 0x0 SWAP2 POP SLOAD SWAP1 PUSH2 0x100 EXP SWAP1 DIV PUSH1 0xFF AND DUP2 JUMP JUMPDEST PUSH1 0x0 PUSH1 0x15 SWAP1 SLOAD SWAP1 PUSH2 0x100 EXP SWAP1 DIV PUSH1 0xFF AND DUP2 JUMP JUMPDEST PUSH1 0x60 PUSH1 0x2 DUP1 SLOAD DUP1 PUSH1 0x20 MUL PUSH1 0x20 ADD PUSH1 0x40 MLOAD SWAP1 DUP2 ADD PUSH1 0x40 MSTORE DUP1 SWAP3 SWAP2 SWAP1 DUP2 DUP2 MSTORE PUSH1 0x20 ADD PUSH1 0x0 SWAP1 JUMPDEST DUP3 DUP3 LT ISZERO PUSH2 0xF59 JUMPI DUP4 DUP3 SWAP1 PUSH1 0x0 MSTORE PUSH1 0x20 PUSH1 0x0 KECCAK256 SWAP1 PUSH1 0x3 MUL ADD PUSH1 0x40 MLOAD DUP1 PUSH1 0x80 ADD PUSH1 0x40 MSTORE SWAP1 DUP2 PUSH1 0x0 DUP3 ADD DUP1 SLOAD PUSH2 0xDC5 SWAP1 PUSH2 0x1CA0 JUMP JUMPDEST DUP1 PUSH1 0x1F ADD PUSH1 0x20 DUP1 SWAP2 DIV MUL PUSH1 0x20 ADD PUSH1 0x40 MLOAD SWAP1 DUP2 ADD PUSH1 0x40 MSTORE DUP1 SWAP3 SWAP2 SWAP1 DUP2 DUP2 MSTORE PUSH1 0x20 ADD DUP3 DUP1 SLOAD PUSH2 0xDF1 SWAP1 PUSH2 0x1CA0 JUMP JUMPDEST DUP1 ISZERO PUSH2 0xE3E JUMPI DUP1 PUSH1 0x1F LT PUSH2 0xE13 JUMPI PUSH2 0x100 DUP1 DUP4 SLOAD DIV MUL DUP4 MSTORE SWAP2 PUSH1 0x20 ADD SWAP2 PUSH2 0xE3E JUMP JUMPDEST DUP3 ADD SWAP2 SWAP1 PUSH1 0x0 MSTORE PUSH1 0x20 PUSH1 0x0 KECCAK256 SWAP1 JUMPDEST DUP2 SLOAD DUP2 MSTORE SWAP1 PUSH1 0x1 ADD SWAP1 PUSH1 0x20 ADD DUP1 DUP4 GT PUSH2 0xE21 JUMPI DUP3 SWAP1 SUB PUSH1 0x1F AND DUP3 ADD SWAP2 JUMPDEST POP POP POP POP POP DUP2 MSTORE PUSH1 0x20 ADD PUSH1 0x1 DUP3 ADD DUP1 SLOAD PUSH2 0xE57 SWAP1 PUSH2 0x1CA0 JUMP JUMPDEST DUP1 PUSH1 0x1F ADD PUSH1 0x20 DUP1 SWAP2 DIV MUL PUSH1 0x20 ADD PUSH1 0x40 MLOAD SWAP1 DUP2 ADD PUSH1 0x40 MSTORE DUP1 SWAP3 SWAP2 SWAP1 DUP2 DUP2 MSTORE PUSH1 0x20 ADD DUP3 DUP1 SLOAD PUSH2 0xE83 SWAP1 PUSH2 0x1CA0 JUMP JUMPDEST DUP1 ISZERO PUSH2 0xED0 JUMPI DUP1 PUSH1 0x1F LT PUSH2 0xEA5 JUMPI PUSH2 0x100 DUP1 DUP4 SLOAD DIV MUL DUP4 MSTORE SWAP2 PUSH1 0x20 ADD SWAP2 PUSH2 0xED0 JUMP JUMPDEST DUP3 ADD SWAP2 SWAP1 PUSH1 0x0 MSTORE PUSH1 0x20 PUSH1 0x0 KECCAK256 SWAP1 JUMPDEST DUP2 SLOAD DUP2 MSTORE SWAP1 PUSH1 0x1 ADD SWAP1 PUSH1 0x20 ADD DUP1 DUP4 GT PUSH2 0xEB3 JUMPI DUP3 SWAP1 SUB PUSH1 0x1F AND DUP3 ADD SWAP2 JUMPDEST POP POP POP POP POP DUP2 MSTORE PUSH1 0x20 ADD PUSH1 0x2 DUP3 ADD PUSH1 0x0 SWAP1 SLOAD SWAP1 PUSH2 0x100 EXP SWAP1 DIV PUSH20 0xFFFFFFFFFFFFFFFFFFFFFFFFFFFFFFFFFFFFFFFF AND PUSH20 0xFFFFFFFFFFFFFFFFFFFFFFFFFFFFFFFFFFFFFFFF AND PUSH20 0xFFFFFFFFFFFFFFFFFFFFFFFFFFFFFFFFFFFFFFFF AND DUP2 MSTORE PUSH1 0x20 ADD PUSH1 0x2 DUP3 ADD PUSH1 0x14 SWAP1 SLOAD SWAP1 PUSH2 0x100 EXP SWAP1 DIV PUSH1 0xFF AND ISZERO ISZERO ISZERO ISZERO DUP2 MSTORE POP POP DUP2 MSTORE PUSH1 0x20 ADD SWAP1 PUSH1 0x1 ADD SWAP1 PUSH2 0xD92 JUMP JUMPDEST POP POP POP POP SWAP1 POP SWAP1 JUMP JUMPDEST PUSH1 0x2 DUP2 DUP2 SLOAD DUP2 LT PUSH2 0xF72 JUMPI PUSH1 0x0 DUP1 REVERT JUMPDEST SWAP1 PUSH1 0x0 MSTORE PUSH1 0x20 PUSH1 0x0 KECCAK256 SWAP1 PUSH1 0x3 MUL ADD PUSH1 0x0 SWAP2 POP SWAP1 POP DUP1 PUSH1 0x0 ADD DUP1 SLOAD PUSH2 0xF95 SWAP1 PUSH2 0x1CA0 JUMP JUMPDEST DUP1 PUSH1 0x1F ADD PUSH1 0x20 DUP1 SWAP2 DIV MUL PUSH1 0x20 ADD PUSH1 0x40 MLOAD SWAP1 DUP2 ADD PUSH1 0x40 MSTORE DUP1 SWAP3 SWAP2 SWAP1 DUP2 DUP2 MSTORE PUSH1 0x20 ADD DUP3 DUP1 SLOAD PUSH2 0xFC1 SWAP1 PUSH2 0x1CA0 JUMP JUMPDEST DUP1 ISZERO PUSH2 0x100E JUMPI DUP1 PUSH1 0x1F LT PUSH2 0xFE3 JUMPI PUSH2 0x100 DUP1 DUP4 SLOAD DIV MUL DUP4 MSTORE SWAP2 PUSH1 0x20 ADD SWAP2 PUSH2 0x100E JUMP JUMPDEST DUP3 ADD SWAP2 SWAP1 PUSH1 0x0 MSTORE PUSH1 0x20 PUSH1 0x0 KECCAK256 SWAP1 JUMPDEST DUP2 SLOAD DUP2 MSTORE SWAP1 PUSH1 0x1 ADD SWAP1 PUSH1 0x20 ADD DUP1 DUP4 GT PUSH2 0xFF1 JUMPI DUP3 SWAP1 SUB PUSH1 0x1F AND DUP3 ADD SWAP2 JUMPDEST POP POP POP POP POP SWAP1 DUP1 PUSH1 0x1 ADD DUP1 SLOAD PUSH2 0x1023 SWAP1 PUSH2 0x1CA0 JUMP JUMPDEST DUP1 PUSH1 0x1F ADD PUSH1 0x20 DUP1 SWAP2 DIV MUL PUSH1 0x20 ADD PUSH1 0x40 MLOAD SWAP1 DUP2 ADD PUSH1 0x40 MSTORE DUP1 SWAP3 SWAP2 SWAP1 DUP2 DUP2 MSTORE PUSH1 0x20 ADD DUP3 DUP1 SLOAD PUSH2 0x104F SWAP1 PUSH2 0x1CA0 JUMP JUMPDEST DUP1 ISZERO PUSH2 0x109C JUMPI DUP1 PUSH1 0x1F LT PUSH2 0x1071 JUMPI PUSH2 0x100 DUP1 DUP4 SLOAD DIV MUL DUP4 MSTORE SWAP2 PUSH1 0x20 ADD SWAP2 PUSH2 0x109C JUMP JUMPDEST DUP3 ADD SWAP2 SWAP1 PUSH1 0x0 MSTORE PUSH1 0x20 PUSH1 0x0 KECCAK256 SWAP1 JUMPDEST DUP2 SLOAD DUP2 MSTORE SWAP1 PUSH1 0x1 ADD SWAP1 PUSH1 0x20 ADD DUP1 DUP4 GT PUSH2 0x107F JUMPI DUP3 SWAP1 SUB PUSH1 0x1F AND DUP3 ADD SWAP2 JUMPDEST POP POP POP POP POP SWAP1 DUP1 PUSH1 0x2 ADD PUSH1 0x0 SWAP1 SLOAD SWAP1 PUSH2 0x100 EXP SWAP1 DIV PUSH20 0xFFFFFFFFFFFFFFFFFFFFFFFFFFFFFFFFFFFFFFFF AND SWAP1 DUP1 PUSH1 0x2 ADD PUSH1 0x14 SWAP1 SLOAD SWAP1 PUSH2 0x100 EXP SWAP1 DIV PUSH1 0xFF AND SWAP1 POP DUP5 JUMP JUMPDEST PUSH1 0x0 PUSH1 0x14 SWAP1 SLOAD SWAP1 PUSH2 0x100 EXP SWAP1 DIV PUSH1 0xFF AND DUP2 JUMP JUMPDEST PUSH1 0x60 PUSH1 0x3 DUP1 SLOAD DUP1 PUSH1 0x20 MUL PUSH1 0x20 ADD PUSH1 0x40 MLOAD SWAP1 DUP2 ADD PUSH1 0x40 MSTORE DUP1 SWAP3 SWAP2 SWAP1 DUP2 DUP2 MSTORE PUSH1 0x20 ADD PUSH1 0x0 SWAP1 JUMPDEST DUP3 DUP3 LT ISZERO PUSH2 0x1276 JUMPI DUP4 DUP3 SWAP1 PUSH1 0x0 MSTORE PUSH1 0x20 PUSH1 0x0 KECCAK256 SWAP1 PUSH1 0x3 MUL ADD PUSH1 0x40 MLOAD DUP1 PUSH1 0x60 ADD PUSH1 0x40 MSTORE SWAP1 DUP2 PUSH1 0x0 DUP3 ADD DUP1 SLOAD PUSH2 0x1149 SWAP1 PUSH2 0x1CA0 JUMP JUMPDEST DUP1 PUSH1 0x1F ADD PUSH1 0x20 DUP1 SWAP2 DIV MUL PUSH1 0x20 ADD PUSH1 0x40 MLOAD SWAP1 DUP2 ADD PUSH1 0x40 MSTORE DUP1 SWAP3 SWAP2 SWAP1 DUP2 DUP2 MSTORE PUSH1 0x20 ADD DUP3 DUP1 SLOAD PUSH2 0x1175 SWAP1 PUSH2 0x1CA0 JUMP JUMPDEST DUP1 ISZERO PUSH2 0x11C2 JUMPI DUP1 PUSH1 0x1F LT PUSH2 0x1197 JUMPI PUSH2 0x100 DUP1 DUP4 SLOAD DIV MUL DUP4 MSTORE SWAP2 PUSH1 0x20 ADD SWAP2 PUSH2 0x11C2 JUMP JUMPDEST DUP3 ADD SWAP2 SWAP1 PUSH1 0x0 MSTORE PUSH1 0x20 PUSH1 0x0 KECCAK256 SWAP1 JUMPDEST DUP2 SLOAD DUP2 MSTORE SWAP1 PUSH1 0x1 ADD SWAP1 PUSH1 0x20 ADD DUP1 DUP4 GT PUSH2 0x11A5 JUMPI DUP3 SWAP1 SUB PUSH1 0x1F AND DUP3 ADD SWAP2 JUMPDEST POP POP POP POP POP DUP2 MSTORE PUSH1 0x20 ADD PUSH1 0x1 DUP3 ADD DUP1 SLOAD PUSH2 0x11DB SWAP1 PUSH2 0x1CA0 JUMP JUMPDEST DUP1 PUSH1 0x1F ADD PUSH1 0x20 DUP1 SWAP2 DIV MUL PUSH1 0x20 ADD PUSH1 0x40 MLOAD SWAP1 DUP2 ADD PUSH1 0x40 MSTORE DUP1 SWAP3 SWAP2 SWAP1 DUP2 DUP2 MSTORE PUSH1 0x20 ADD DUP3 DUP1 SLOAD PUSH2 0x1207 SWAP1 PUSH2 0x1CA0 JUMP JUMPDEST DUP1 ISZERO PUSH2 0x1254 JUMPI DUP1 PUSH1 0x1F LT PUSH2 0x1229 JUMPI PUSH2 0x100 DUP1 DUP4 SLOAD DIV MUL DUP4 MSTORE SWAP2 PUSH1 0x20 ADD SWAP2 PUSH2 0x1254 JUMP JUMPDEST DUP3 ADD SWAP2 SWAP1 PUSH1 0x0 MSTORE PUSH1 0x20 PUSH1 0x0 KECCAK256 SWAP1 JUMPDEST DUP2 SLOAD DUP2 MSTORE SWAP1 PUSH1 0x1 ADD SWAP1 PUSH1 0x20 ADD DUP1 DUP4 GT PUSH2 0x1237 JUMPI DUP3 SWAP1 SUB PUSH1 0x1F AND DUP3 ADD SWAP2 JUMPDEST POP POP POP POP POP DUP2 MSTORE PUSH1 0x20 ADD PUSH1 0x2 DUP3 ADD SLOAD DUP2 MSTORE POP POP DUP2 MSTORE PUSH1 0x20 ADD SWAP1 PUSH1 0x1 ADD SWAP1 PUSH2 0x1116 JUMP JUMPDEST POP POP POP POP SWAP1 POP SWAP1 JUMP JUMPDEST PUSH1 0x0 DUP1 SLOAD SWAP1 PUSH2 0x100 EXP SWAP1 DIV PUSH20 0xFFFFFFFFFFFFFFFFFFFFFFFFFFFFFFFFFFFFFFFF AND PUSH20 0xFFFFFFFFFFFFFFFFFFFFFFFFFFFFFFFFFFFFFFFF AND CALLER PUSH20 0xFFFFFFFFFFFFFFFFFFFFFFFFFFFFFFFFFFFFFFFF AND EQ PUSH2 0x130D JUMPI PUSH1 0x40 MLOAD PUSH32 0x8C379A000000000000000000000000000000000000000000000000000000000 DUP2 MSTORE PUSH1 0x4 ADD PUSH2 0x1304 SWAP1 PUSH2 0x1A86 JUMP JUMPDEST PUSH1 0x40 MLOAD DUP1 SWAP2 SUB SWAP1 REVERT JUMPDEST PUSH1 0x0 DUP1 PUSH1 0x15 PUSH2 0x100 EXP DUP2 SLOAD DUP2 PUSH1 0xFF MUL NOT AND SWAP1 DUP4 ISZERO ISZERO MUL OR SWAP1 SSTORE POP JUMP JUMPDEST DUP3 DUP1 SLOAD PUSH2 0x1335 SWAP1 PUSH2 0x1CA0 JUMP JUMPDEST SWAP1 PUSH1 0x0 MSTORE PUSH1 0x20 PUSH1 0x0 KECCAK256 SWAP1 PUSH1 0x1F ADD PUSH1 0x20 SWAP1 DIV DUP2 ADD SWAP3 DUP3 PUSH2 0x1357 JUMPI PUSH1 0x0 DUP6 SSTORE PUSH2 0x139E JUMP JUMPDEST DUP3 PUSH1 0x1F LT PUSH2 0x1370 JUMPI DUP1 MLOAD PUSH1 0xFF NOT AND DUP4 DUP1 ADD OR DUP6 SSTORE PUSH2 0x139E JUMP JUMPDEST DUP3 DUP1 ADD PUSH1 0x1 ADD DUP6 SSTORE DUP3 ISZERO PUSH2 0x139E JUMPI SWAP2 DUP3 ADD JUMPDEST DUP3 DUP2 GT ISZERO PUSH2 0x139D JUMPI DUP3 MLOAD DUP3 SSTORE SWAP2 PUSH1 0x20 ADD SWAP2 SWAP1 PUSH1 0x1 ADD SWAP1 PUSH2 0x1382 JUMP JUMPDEST JUMPDEST POP SWAP1 POP PUSH2 0x13AB SWAP2 SWAP1 PUSH2 0x13AF JUMP JUMPDEST POP SWAP1 JUMP JUMPDEST JUMPDEST DUP1 DUP3 GT ISZERO PUSH2 0x13C8 JUMPI PUSH1 0x0 DUP2 PUSH1 0x0 SWAP1 SSTORE POP PUSH1 0x1 ADD PUSH2 0x13B0 JUMP JUMPDEST POP SWAP1 JUMP JUMPDEST PUSH1 0x0 PUSH2 0x13DF PUSH2 0x13DA DUP5 PUSH2 0x1B46 JUMP JUMPDEST PUSH2 0x1B21 JUMP JUMPDEST SWAP1 POP DUP3 DUP2 MSTORE PUSH1 0x20 DUP2 ADD DUP5 DUP5 DUP5 ADD GT ISZERO PUSH2 0x13FB JUMPI PUSH2 0x13FA PUSH2 0x1E0D JUMP JUMPDEST JUMPDEST PUSH2 0x1406 DUP5 DUP3 DUP6 PUSH2 0x1C5E JUMP JUMPDEST POP SWAP4 SWAP3 POP POP POP JUMP JUMPDEST PUSH1 0x0 DUP2 CALLDATALOAD SWAP1 POP PUSH2 0x141D DUP2 PUSH2 0x1F49 JUMP JUMPDEST SWAP3 SWAP2 POP POP JUMP JUMPDEST PUSH1 0x0 DUP3 PUSH1 0x1F DUP4 ADD SLT PUSH2 0x1438 JUMPI PUSH2 0x1437 PUSH2 0x1E08 JUMP JUMPDEST JUMPDEST DUP2 CALLDATALOAD PUSH2 0x1448 DUP5 DUP3 PUSH1 0x20 DUP7 ADD PUSH2 0x13CC JUMP JUMPDEST SWAP2 POP POP SWAP3 SWAP2 POP POP JUMP JUMPDEST PUSH1 0x0 DUP2 CALLDATALOAD SWAP1 POP PUSH2 0x1460 DUP2 PUSH2 0x1F60 JUMP JUMPDEST SWAP3 SWAP2 POP POP JUMP JUMPDEST PUSH1 0x0 PUSH1 0x20 DUP3 DUP5 SUB SLT ISZERO PUSH2 0x147C JUMPI PUSH2 0x147B PUSH2 0x1E17 JUMP JUMPDEST JUMPDEST PUSH1 0x0 PUSH2 0x148A DUP5 DUP3 DUP6 ADD PUSH2 0x140E JUMP JUMPDEST SWAP2 POP POP SWAP3 SWAP2 POP POP JUMP JUMPDEST PUSH1 0x0 DUP1 PUSH1 0x40 DUP4 DUP6 SUB SLT ISZERO PUSH2 0x14AA JUMPI PUSH2 0x14A9 PUSH2 0x1E17 JUMP JUMPDEST JUMPDEST PUSH1 0x0 DUP4 ADD CALLDATALOAD PUSH8 0xFFFFFFFFFFFFFFFF DUP2 GT ISZERO PUSH2 0x14C8 JUMPI PUSH2 0x14C7 PUSH2 0x1E12 JUMP JUMPDEST JUMPDEST PUSH2 0x14D4 DUP6 DUP3 DUP7 ADD PUSH2 0x1423 JUMP JUMPDEST SWAP3 POP POP PUSH1 0x20 DUP4 ADD CALLDATALOAD PUSH8 0xFFFFFFFFFFFFFFFF DUP2 GT ISZERO PUSH2 0x14F5 JUMPI PUSH2 0x14F4 PUSH2 0x1E12 JUMP JUMPDEST JUMPDEST PUSH2 0x1501 DUP6 DUP3 DUP7 ADD PUSH2 0x1423 JUMP JUMPDEST SWAP2 POP POP SWAP3 POP SWAP3 SWAP1 POP JUMP JUMPDEST PUSH1 0x0 DUP1 PUSH1 0x0 PUSH1 0x60 DUP5 DUP7 SUB SLT ISZERO PUSH2 0x1524 JUMPI PUSH2 0x1523 PUSH2 0x1E17 JUMP JUMPDEST JUMPDEST PUSH1 0x0 DUP5 ADD CALLDATALOAD PUSH8 0xFFFFFFFFFFFFFFFF DUP2 GT ISZERO PUSH2 0x1542 JUMPI PUSH2 0x1541 PUSH2 0x1E12 JUMP JUMPDEST JUMPDEST PUSH2 0x154E DUP7 DUP3 DUP8 ADD PUSH2 0x1423 JUMP JUMPDEST SWAP4 POP POP PUSH1 0x20 DUP5 ADD CALLDATALOAD PUSH8 0xFFFFFFFFFFFFFFFF DUP2 GT ISZERO PUSH2 0x156F JUMPI PUSH2 0x156E PUSH2 0x1E12 JUMP JUMPDEST JUMPDEST PUSH2 0x157B DUP7 DUP3 DUP8 ADD PUSH2 0x1423 JUMP JUMPDEST SWAP3 POP POP PUSH1 0x40 PUSH2 0x158C DUP7 DUP3 DUP8 ADD PUSH2 0x140E JUMP JUMPDEST SWAP2 POP POP SWAP3 POP SWAP3 POP SWAP3 JUMP JUMPDEST PUSH1 0x0 PUSH1 0x20 DUP3 DUP5 SUB SLT ISZERO PUSH2 0x15AC JUMPI PUSH2 0x15AB PUSH2 0x1E17 JUMP JUMPDEST JUMPDEST PUSH1 0x0 PUSH2 0x15BA DUP5 DUP3 DUP6 ADD PUSH2 0x1451 JUMP JUMPDEST SWAP2 POP POP SWAP3 SWAP2 POP POP JUMP JUMPDEST PUSH1 0x0 PUSH2 0x15CF DUP4 DUP4 PUSH2 0x1855 JUMP JUMPDEST SWAP1 POP SWAP3 SWAP2 POP POP JUMP JUMPDEST PUSH1 0x0 PUSH2 0x15E3 DUP4 DUP4 PUSH2 0x18BF JUMP JUMPDEST SWAP1 POP SWAP3 SWAP2 POP POP JUMP JUMPDEST PUSH2 0x15F4 DUP2 PUSH2 0x1C16 JUMP JUMPDEST DUP3 MSTORE POP POP JUMP JUMPDEST PUSH2 0x1603 DUP2 PUSH2 0x1C16 JUMP JUMPDEST DUP3 MSTORE POP POP JUMP JUMPDEST PUSH1 0x0 PUSH2 0x1614 DUP3 PUSH2 0x1B97 JUMP JUMPDEST PUSH2 0x161E DUP2 DUP6 PUSH2 0x1BD2 JUMP JUMPDEST SWAP4 POP DUP4 PUSH1 0x20 DUP3 MUL DUP6 ADD PUSH2 0x1630 DUP6 PUSH2 0x1B77 JUMP JUMPDEST DUP1 PUSH1 0x0 JUMPDEST DUP6 DUP2 LT ISZERO PUSH2 0x166C JUMPI DUP5 DUP5 SUB DUP10 MSTORE DUP2 MLOAD PUSH2 0x164D DUP6 DUP3 PUSH2 0x15C3 JUMP JUMPDEST SWAP5 POP PUSH2 0x1658 DUP4 PUSH2 0x1BB8 JUMP JUMPDEST SWAP3 POP PUSH1 0x20 DUP11 ADD SWAP10 POP POP PUSH1 0x1 DUP2 ADD SWAP1 POP PUSH2 0x1634 JUMP JUMPDEST POP DUP3 SWAP8 POP DUP8 SWAP6 POP POP POP POP POP POP SWAP3 SWAP2 POP POP JUMP JUMPDEST PUSH1 0x0 PUSH2 0x1689 DUP3 PUSH2 0x1BA2 JUMP JUMPDEST PUSH2 0x1693 DUP2 DUP6 PUSH2 0x1BE3 JUMP JUMPDEST SWAP4 POP DUP4 PUSH1 0x20 DUP3 MUL DUP6 ADD PUSH2 0x16A5 DUP6 PUSH2 0x1B87 JUMP JUMPDEST DUP1 PUSH1 0x0 JUMPDEST DUP6 DUP2 LT ISZERO PUSH2 0x16E1 JUMPI DUP5 DUP5 SUB DUP10 MSTORE DUP2 MLOAD PUSH2 0x16C2 DUP6 DUP3 PUSH2 0x15D7 JUMP JUMPDEST SWAP5 POP PUSH2 0x16CD DUP4 PUSH2 0x1BC5 JUMP JUMPDEST SWAP3 POP PUSH1 0x20 DUP11 ADD SWAP10 POP POP PUSH1 0x1 DUP2 ADD SWAP1 POP PUSH2 0x16A9 JUMP JUMPDEST POP DUP3 SWAP8 POP DUP8 SWAP6 POP POP POP POP POP POP SWAP3 SWAP2 POP POP JUMP JUMPDEST PUSH2 0x16FC DUP2 PUSH2 0x1C28 JUMP JUMPDEST DUP3 MSTORE POP POP JUMP JUMPDEST PUSH2 0x170B DUP2 PUSH2 0x1C28 JUMP JUMPDEST DUP3 MSTORE POP POP JUMP JUMPDEST PUSH1 0x0 PUSH2 0x171C DUP3 PUSH2 0x1BAD JUMP JUMPDEST PUSH2 0x1726 DUP2 DUP6 PUSH2 0x1BF4 JUMP JUMPDEST SWAP4 POP PUSH2 0x1736 DUP2 DUP6 PUSH1 0x20 DUP7 ADD PUSH2 0x1C6D JUMP JUMPDEST PUSH2 0x173F DUP2 PUSH2 0x1E1C JUMP JUMPDEST DUP5 ADD SWAP2 POP POP SWAP3 SWAP2 POP POP JUMP JUMPDEST PUSH1 0x0 PUSH2 0x1755 DUP3 PUSH2 0x1BAD JUMP JUMPDEST PUSH2 0x175F DUP2 DUP6 PUSH2 0x1C05 JUMP JUMPDEST SWAP4 POP PUSH2 0x176F DUP2 DUP6 PUSH1 0x20 DUP7 ADD PUSH2 0x1C6D JUMP JUMPDEST PUSH2 0x1778 DUP2 PUSH2 0x1E1C JUMP JUMPDEST DUP5 ADD SWAP2 POP POP SWAP3 SWAP2 POP POP JUMP JUMPDEST PUSH1 0x0 PUSH2 0x1790 PUSH1 0x1C DUP4 PUSH2 0x1C05 JUMP JUMPDEST SWAP2 POP PUSH2 0x179B DUP3 PUSH2 0x1E2D JUMP JUMPDEST PUSH1 0x20 DUP3 ADD SWAP1 POP SWAP2 SWAP1 POP JUMP JUMPDEST PUSH1 0x0 PUSH2 0x17B3 PUSH1 0x12 DUP4 PUSH2 0x1C05 JUMP JUMPDEST SWAP2 POP PUSH2 0x17BE DUP3 PUSH2 0x1E56 JUMP JUMPDEST PUSH1 0x20 DUP3 ADD SWAP1 POP SWAP2 SWAP1 POP JUMP JUMPDEST PUSH1 0x0 PUSH2 0x17D6 PUSH1 0x14 DUP4 PUSH2 0x1C05 JUMP JUMPDEST SWAP2 POP PUSH2 0x17E1 DUP3 PUSH2 0x1E7F JUMP JUMPDEST PUSH1 0x20 DUP3 ADD SWAP1 POP SWAP2 SWAP1 POP JUMP JUMPDEST PUSH1 0x0 PUSH2 0x17F9 PUSH1 0x17 DUP4 PUSH2 0x1C05 JUMP JUMPDEST SWAP2 POP PUSH2 0x1804 DUP3 PUSH2 0x1EA8 JUMP JUMPDEST PUSH1 0x20 DUP3 ADD SWAP1 POP SWAP2 SWAP1 POP JUMP JUMPDEST PUSH1 0x0 PUSH2 0x181C PUSH1 0x21 DUP4 PUSH2 0x1C05 JUMP JUMPDEST SWAP2 POP PUSH2 0x1827 DUP3 PUSH2 0x1ED1 JUMP JUMPDEST PUSH1 0x40 DUP3 ADD SWAP1 POP SWAP2 SWAP1 POP JUMP JUMPDEST PUSH1 0x0 PUSH2 0x183F PUSH1 0x1D DUP4 PUSH2 0x1C05 JUMP JUMPDEST SWAP2 POP PUSH2 0x184A DUP3 PUSH2 0x1F20 JUMP JUMPDEST PUSH1 0x20 DUP3 ADD SWAP1 POP SWAP2 SWAP1 POP JUMP JUMPDEST PUSH1 0x0 PUSH1 0x80 DUP4 ADD PUSH1 0x0 DUP4 ADD MLOAD DUP5 DUP3 SUB PUSH1 0x0 DUP7 ADD MSTORE PUSH2 0x1872 DUP3 DUP3 PUSH2 0x1711 JUMP JUMPDEST SWAP2 POP POP PUSH1 0x20 DUP4 ADD MLOAD DUP5 DUP3 SUB PUSH1 0x20 DUP7 ADD MSTORE PUSH2 0x188C DUP3 DUP3 PUSH2 0x1711 JUMP JUMPDEST SWAP2 POP POP PUSH1 0x40 DUP4 ADD MLOAD PUSH2 0x18A1 PUSH1 0x40 DUP7 ADD DUP3 PUSH2 0x15EB JUMP JUMPDEST POP PUSH1 0x60 DUP4 ADD MLOAD PUSH2 0x18B4 PUSH1 0x60 DUP7 ADD DUP3 PUSH2 0x16F3 JUMP JUMPDEST POP DUP1 SWAP2 POP POP SWAP3 SWAP2 POP POP JUMP JUMPDEST PUSH1 0x0 PUSH1 0x60 DUP4 ADD PUSH1 0x0 DUP4 ADD MLOAD DUP5 DUP3 SUB PUSH1 0x0 DUP7 ADD MSTORE PUSH2 0x18DC DUP3 DUP3 PUSH2 0x1711 JUMP JUMPDEST SWAP2 POP POP PUSH1 0x20 DUP4 ADD MLOAD DUP5 DUP3 SUB PUSH1 0x20 DUP7 ADD MSTORE PUSH2 0x18F6 DUP3 DUP3 PUSH2 0x1711 JUMP JUMPDEST SWAP2 POP POP PUSH1 0x40 DUP4 ADD MLOAD PUSH2 0x190B PUSH1 0x40 DUP7 ADD DUP3 PUSH2 0x1916 JUMP JUMPDEST POP DUP1 SWAP2 POP POP SWAP3 SWAP2 POP POP JUMP JUMPDEST PUSH2 0x191F DUP2 PUSH2 0x1C54 JUMP JUMPDEST DUP3 MSTORE POP POP JUMP JUMPDEST PUSH2 0x192E DUP2 PUSH2 0x1C54 JUMP JUMPDEST DUP3 MSTORE POP POP JUMP JUMPDEST PUSH1 0x0 PUSH1 0x20 DUP3 ADD SWAP1 POP PUSH2 0x1949 PUSH1 0x0 DUP4 ADD DUP5 PUSH2 0x15FA JUMP JUMPDEST SWAP3 SWAP2 POP POP JUMP JUMPDEST PUSH1 0x0 PUSH1 0x20 DUP3 ADD SWAP1 POP DUP2 DUP2 SUB PUSH1 0x0 DUP4 ADD MSTORE PUSH2 0x1969 DUP2 DUP5 PUSH2 0x1609 JUMP JUMPDEST SWAP1 POP SWAP3 SWAP2 POP POP JUMP JUMPDEST PUSH1 0x0 PUSH1 0x20 DUP3 ADD SWAP1 POP DUP2 DUP2 SUB PUSH1 0x0 DUP4 ADD MSTORE PUSH2 0x198B DUP2 DUP5 PUSH2 0x167E JUMP JUMPDEST SWAP1 POP SWAP3 SWAP2 POP POP JUMP JUMPDEST PUSH1 0x0 PUSH1 0x20 DUP3 ADD SWAP1 POP PUSH2 0x19A8 PUSH1 0x0 DUP4 ADD DUP5 PUSH2 0x1702 JUMP JUMPDEST SWAP3 SWAP2 POP POP JUMP JUMPDEST PUSH1 0x0 PUSH1 0x80 DUP3 ADD SWAP1 POP DUP2 DUP2 SUB PUSH1 0x0 DUP4 ADD MSTORE PUSH2 0x19C8 DUP2 DUP8 PUSH2 0x174A JUMP JUMPDEST SWAP1 POP DUP2 DUP2 SUB PUSH1 0x20 DUP4 ADD MSTORE PUSH2 0x19DC DUP2 DUP7 PUSH2 0x174A JUMP JUMPDEST SWAP1 POP PUSH2 0x19EB PUSH1 0x40 DUP4 ADD DUP6 PUSH2 0x15FA JUMP JUMPDEST PUSH2 0x19F8 PUSH1 0x60 DUP4 ADD DUP5 PUSH2 0x1702 JUMP JUMPDEST SWAP6 SWAP5 POP POP POP POP POP JUMP JUMPDEST PUSH1 0x0 PUSH1 0x60 DUP3 ADD SWAP1 POP DUP2 DUP2 SUB PUSH1 0x0 DUP4 ADD MSTORE PUSH2 0x1A1B DUP2 DUP7 PUSH2 0x174A JUMP JUMPDEST SWAP1 POP DUP2 DUP2 SUB PUSH1 0x20 DUP4 ADD MSTORE PUSH2 0x1A2F DUP2 DUP6 PUSH2 0x174A JUMP JUMPDEST SWAP1 POP PUSH2 0x1A3E PUSH1 0x40 DUP4 ADD DUP5 PUSH2 0x1925 JUMP JUMPDEST SWAP5 SWAP4 POP POP POP POP JUMP JUMPDEST PUSH1 0x0 PUSH1 0x20 DUP3 ADD SWAP1 POP DUP2 DUP2 SUB PUSH1 0x0 DUP4 ADD MSTORE PUSH2 0x1A5F DUP2 PUSH2 0x1783 JUMP JUMPDEST SWAP1 POP SWAP2 SWAP1 POP JUMP JUMPDEST PUSH1 0x0 PUSH1 0x20 DUP3 ADD SWAP1 POP DUP2 DUP2 SUB PUSH1 0x0 DUP4 ADD MSTORE PUSH2 0x1A7F DUP2 PUSH2 0x17A6 JUMP JUMPDEST SWAP1 POP SWAP2 SWAP1 POP JUMP JUMPDEST PUSH1 0x0 PUSH1 0x20 DUP3 ADD SWAP1 POP DUP2 DUP2 SUB PUSH1 0x0 DUP4 ADD MSTORE PUSH2 0x1A9F DUP2 PUSH2 0x17C9 JUMP JUMPDEST SWAP1 POP SWAP2 SWAP1 POP JUMP JUMPDEST PUSH1 0x0 PUSH1 0x20 DUP3 ADD SWAP1 POP DUP2 DUP2 SUB PUSH1 0x0 DUP4 ADD MSTORE PUSH2 0x1ABF DUP2 PUSH2 0x17EC JUMP JUMPDEST SWAP1 POP SWAP2 SWAP1 POP JUMP JUMPDEST PUSH1 0x0 PUSH1 0x20 DUP3 ADD SWAP1 POP DUP2 DUP2 SUB PUSH1 0x0 DUP4 ADD MSTORE PUSH2 0x1ADF DUP2 PUSH2 0x180F JUMP JUMPDEST SWAP1 POP SWAP2 SWAP1 POP JUMP JUMPDEST PUSH1 0x0 PUSH1 0x20 DUP3 ADD SWAP1 POP DUP2 DUP2 SUB PUSH1 0x0 DUP4 ADD MSTORE PUSH2 0x1AFF DUP2 PUSH2 0x1832 JUMP JUMPDEST SWAP1 POP SWAP2 SWAP1 POP JUMP JUMPDEST PUSH1 0x0 PUSH1 0x20 DUP3 ADD SWAP1 POP PUSH2 0x1B1B PUSH1 0x0 DUP4 ADD DUP5 PUSH2 0x1925 JUMP JUMPDEST SWAP3 SWAP2 POP POP JUMP JUMPDEST PUSH1 0x0 PUSH2 0x1B2B PUSH2 0x1B3C JUMP JUMPDEST SWAP1 POP PUSH2 0x1B37 DUP3 DUP3 PUSH2 0x1CD2 JUMP JUMPDEST SWAP2 SWAP1 POP JUMP JUMPDEST PUSH1 0x0 PUSH1 0x40 MLOAD SWAP1 POP SWAP1 JUMP JUMPDEST PUSH1 0x0 PUSH8 0xFFFFFFFFFFFFFFFF DUP3 GT ISZERO PUSH2 0x1B61 JUMPI PUSH2 0x1B60 PUSH2 0x1DD9 JUMP JUMPDEST JUMPDEST PUSH2 0x1B6A DUP3 PUSH2 0x1E1C JUMP JUMPDEST SWAP1 POP PUSH1 0x20 DUP2 ADD SWAP1 POP SWAP2 SWAP1 POP JUMP JUMPDEST PUSH1 0x0 DUP2 SWAP1 POP PUSH1 0x20 DUP3 ADD SWAP1 POP SWAP2 SWAP1 POP JUMP JUMPDEST PUSH1 0x0 DUP2 SWAP1 POP PUSH1 0x20 DUP3 ADD SWAP1 POP SWAP2 SWAP1 POP JUMP JUMPDEST PUSH1 0x0 DUP2 MLOAD SWAP1 POP SWAP2 SWAP1 POP JUMP JUMPDEST PUSH1 0x0 DUP2 MLOAD SWAP1 POP SWAP2 SWAP1 POP JUMP JUMPDEST PUSH1 0x0 DUP2 MLOAD SWAP1 POP SWAP2 SWAP1 POP JUMP JUMPDEST PUSH1 0x0 PUSH1 0x20 DUP3 ADD SWAP1 POP SWAP2 SWAP1 POP JUMP JUMPDEST PUSH1 0x0 PUSH1 0x20 DUP3 ADD SWAP1 POP SWAP2 SWAP1 POP JUMP JUMPDEST PUSH1 0x0 DUP3 DUP3 MSTORE PUSH1 0x20 DUP3 ADD SWAP1 POP SWAP3 SWAP2 POP POP JUMP JUMPDEST PUSH1 0x0 DUP3 DUP3 MSTORE PUSH1 0x20 DUP3 ADD SWAP1 POP SWAP3 SWAP2 POP POP JUMP JUMPDEST PUSH1 0x0 DUP3 DUP3 MSTORE PUSH1 0x20 DUP3 ADD SWAP1 POP SWAP3 SWAP2 POP POP JUMP JUMPDEST PUSH1 0x0 DUP3 DUP3 MSTORE PUSH1 0x20 DUP3 ADD SWAP1 POP SWAP3 SWAP2 POP POP JUMP JUMPDEST PUSH1 0x0 PUSH2 0x1C21 DUP3 PUSH2 0x1C34 JUMP JUMPDEST SWAP1 POP SWAP2 SWAP1 POP JUMP JUMPDEST PUSH1 0x0 DUP2 ISZERO ISZERO SWAP1 POP SWAP2 SWAP1 POP JUMP JUMPDEST PUSH1 0x0 PUSH20 0xFFFFFFFFFFFFFFFFFFFFFFFFFFFFFFFFFFFFFFFF DUP3 AND SWAP1 POP SWAP2 SWAP1 POP JUMP JUMPDEST PUSH1 0x0 DUP2 SWAP1 POP SWAP2 SWAP1 POP JUMP JUMPDEST DUP3 DUP2 DUP4 CALLDATACOPY PUSH1 0x0 DUP4 DUP4 ADD MSTORE POP POP POP JUMP JUMPDEST PUSH1 0x0 JUMPDEST DUP4 DUP2 LT ISZERO PUSH2 0x1C8B JUMPI DUP1 DUP3 ADD MLOAD DUP2 DUP5 ADD MSTORE PUSH1 0x20 DUP2 ADD SWAP1 POP PUSH2 0x1C70 JUMP JUMPDEST DUP4 DUP2 GT ISZERO PUSH2 0x1C9A JUMPI PUSH1 0x0 DUP5 DUP5 ADD MSTORE JUMPDEST POP POP POP POP JUMP JUMPDEST PUSH1 0x0 PUSH1 0x2 DUP3 DIV SWAP1 POP PUSH1 0x1 DUP3 AND DUP1 PUSH2 0x1CB8 JUMPI PUSH1 0x7F DUP3 AND SWAP2 POP JUMPDEST PUSH1 0x20 DUP3 LT DUP2 EQ ISZERO PUSH2 0x1CCC JUMPI PUSH2 0x1CCB PUSH2 0x1D7B JUMP JUMPDEST JUMPDEST POP SWAP2 SWAP1 POP JUMP JUMPDEST PUSH2 0x1CDB DUP3 PUSH2 0x1E1C JUMP JUMPDEST DUP2 ADD DUP2 DUP2 LT PUSH8 0xFFFFFFFFFFFFFFFF DUP3 GT OR ISZERO PUSH2 0x1CFA JUMPI PUSH2 0x1CF9 PUSH2 0x1DD9 JUMP JUMPDEST JUMPDEST DUP1 PUSH1 0x40 MSTORE POP POP POP JUMP JUMPDEST PUSH1 0x0 PUSH2 0x1D0E DUP3 PUSH2 0x1C54 JUMP JUMPDEST SWAP2 POP PUSH32 0xFFFFFFFFFFFFFFFFFFFFFFFFFFFFFFFFFFFFFFFFFFFFFFFFFFFFFFFFFFFFFFFF DUP3 EQ ISZERO PUSH2 0x1D41 JUMPI PUSH2 0x1D40 PUSH2 0x1D4C JUMP JUMPDEST JUMPDEST PUSH1 0x1 DUP3 ADD SWAP1 POP SWAP2 SWAP1 POP JUMP JUMPDEST PUSH32 0x4E487B7100000000000000000000000000000000000000000000000000000000 PUSH1 0x0 MSTORE PUSH1 0x11 PUSH1 0x4 MSTORE PUSH1 0x24 PUSH1 0x0 REVERT JUMPDEST PUSH32 0x4E487B7100000000000000000000000000000000000000000000000000000000 PUSH1 0x0 MSTORE PUSH1 0x22 PUSH1 0x4 MSTORE PUSH1 0x24 PUSH1 0x0 REVERT JUMPDEST PUSH32 0x4E487B7100000000000000000000000000000000000000000000000000000000 PUSH1 0x0 MSTORE PUSH1 0x32 PUSH1 0x4 MSTORE PUSH1 0x24 PUSH1 0x0 REVERT JUMPDEST PUSH32 0x4E487B7100000000000000000000000000000000000000000000000000000000 PUSH1 0x0 MSTORE PUSH1 0x41 PUSH1 0x4 MSTORE PUSH1 0x24 PUSH1 0x0 REVERT JUMPDEST PUSH1 0x0 DUP1 REVERT JUMPDEST PUSH1 0x0 DUP1 REVERT JUMPDEST PUSH1 0x0 DUP1 REVERT JUMPDEST PUSH1 0x0 DUP1 REVERT JUMPDEST PUSH1 0x0 PUSH1 0x1F NOT PUSH1 0x1F DUP4 ADD AND SWAP1 POP SWAP2 SWAP1 POP JUMP JUMPDEST PUSH32 0x796F7520617265206E6F74206120726567697374657220766F74657200000000 PUSH1 0x0 DUP3 ADD MSTORE POP JUMP JUMPDEST PUSH32 0x766F7465206E6F74207374617274207965740000000000000000000000000000 PUSH1 0x0 DUP3 ADD MSTORE POP JUMP JUMPDEST PUSH32 0x796F7520617265206E6F7420616E2061646D696E000000000000000000000000 PUSH1 0x0 DUP3 ADD MSTORE POP JUMP JUMPDEST PUSH32 0x526567697374726174696F6E206E6F7420737461727420000000000000000000 PUSH1 0x0 DUP3 ADD MSTORE POP JUMP JUMPDEST PUSH32 0x596F7520616C7265616479207265676973746572207375636365737366756C6C PUSH1 0x0 DUP3 ADD MSTORE PUSH32 0x7900000000000000000000000000000000000000000000000000000000000000 PUSH1 0x20 DUP3 ADD MSTORE POP JUMP JUMPDEST PUSH32 0x796F757220766F746520697320616C726561647920636F6D706C657465000000 PUSH1 0x0 DUP3 ADD MSTORE POP JUMP JUMPDEST PUSH2 0x1F52 DUP2 PUSH2 0x1C16 JUMP JUMPDEST DUP2 EQ PUSH2 0x1F5D JUMPI PUSH1 0x0 DUP1 REVERT JUMPDEST POP JUMP JUMPDEST PUSH2 0x1F69 DUP2 PUSH2 0x1C54 JUMP JUMPDEST DUP2 EQ PUSH2 0x1F74 JUMPI PUSH1 0x0 DUP1 REVERT JUMPDEST POP JUMP INVALID LOG2 PUSH5 0x6970667358 0x22 SLT KECCAK256 0xC5 SWAP10 DELEGATECALL SLT SWAP13 0xA9 0xAF PUSH20 0x5F54D62DCED5B2C761845CB6883F10711D9B8F06 0xBA 0xF DIV DUP3 PUSH5 0x736F6C6343 STOP ADDMOD SMOD STOP CALLER "},"gasEstimates":{"creation":{"codeDepositCost":"1621800","executionCost":"74601","totalCost":"1696401"},"external":{"Register(string,string,address)":"infinite","addCandidate(string,string)":"infinite","applications(uint256)":"infinite","approveApplication(uint256)":"infinite","candidates(uint256)":"infinite","completeVoters(address)":"2912","getAllapplications()":"infinite","getAllcandidates()":"infinite","manager()":"2534","registerStart()":"2610","registerVoter(address)":"2956","startRegistration()":"26674","startVoteing()":"26695","stopRegistration()":"26738","stopVoteing()":"26696","totalApprovers()":"2474","vote(uint256)":"infinite","voteStart()":"2587"}},"methodIdentifiers":{"Register(string,string,address)":"23bf9f95","addCandidate(string,string)":"26541b56","applications(uint256)":"dfefadff","approveApplication(uint256)":"213fbf1b","candidates(uint256)":"3477ee2e","completeVoters(address)":"984fe4b4","getAllapplications()":"b3124a97","getAllcandidates()":"f43abeab","manager()":"481c6a75","registerStart()":"9d469c3b","registerVoter(address)":"38db6dd3","startRegistration()":"10b86695","startVoteing()":"2d498209","stopRegistration()":"f5696165","stopVoteing()":"1af3feea","totalApprovers()":"74b25b8e","vote(uint256)":"0121b93f","voteStart()":"e031535b"}},"storageLayout":{"storage":[{"astId":36,"contract":"voteing.sol:Voteing","label":"manager","offset":0,"slot":"0","type":"t_address"},{"astId":38,"contract":"voteing.sol:Voteing","label":"voteStart","offset":20,"slot":"0","type":"t_bool"},{"astId":40,"contract":"voteing.sol:Voteing","label":"registerStart","offset":21,"slot":"0","type":"t_bool"},{"astId":44,"contract":"voteing.sol:Voteing","label":"registerVoter","offset":0,"slot":"1","type":"t_mapping(t_address,t_bool)"},{"astId":48,"contract":"voteing.sol:Voteing","label":"applications","offset":0,"slot":"2","type":"t_array(t_struct(Application)27_storage)dyn_storage"},{"astId":52,"contract":"voteing.sol:Voteing","label":"candidates","offset":0,"slot":"3","type":"t_array(t_struct(Candidate)34_storage)dyn_storage"},{"astId":56,"contract":"voteing.sol:Voteing","label":"completeVoters","offset":0,"slot":"4","type":"t_mapping(t_address,t_bool)"},{"astId":58,"contract":"voteing.sol:Voteing","label":"totalApprovers","offset":0,"slot":"5","type":"t_uint256"}],"types":{"t_address":{"encoding":"inplace","label":"address","numberOfBytes":"20"},"t_array(t_struct(Application)27_storage)dyn_storage":{"base":"t_struct(Application)27_storage","encoding":"dynamic_array","label":"struct Voteing.Application[]","numberOfBytes":"32"},"t_array(t_struct(Candidate)34_storage)dyn_storage":{"base":"t_struct(Candidate)34_storage","encoding":"dynamic_array","label":"struct Voteing.Candidate[]","numberOfBytes":"32"},"t_bool":{"encoding":"inplace","label":"bool","numberOfBytes":"1"},"t_mapping(t_address,t_bool)":{"encoding":"mapping","key":"t_address","label":"mapping(address => bool)","numberOfBytes":"32","value":"t_bool"},"t_string_storage":{"encoding":"bytes","label":"string","numberOfBytes":"32"},"t_struct(Application)27_storage":{"encoding":"inplace","label":"struct Voteing.Application","members":[{"astId":20,"contract":"voteing.sol:Voteing","label":"votercardNumber","offset":0,"slot":"0","type":"t_string_storage"},{"astId":22,"contract":"voteing.sol:Voteing","label":"AdarcardNumber","offset":0,"slot":"1","type":"t_string_storage"},{"astId":24,"contract":"voteing.sol:Voteing","label":"govtRegisterAddress","offset":0,"slot":"2","type":"t_address"},{"astId":26,"contract":"voteing.sol:Voteing","label":"isApproved","offset":20,"slot":"2","type":"t_bool"}],"numberOfBytes":"96"},"t_struct(Candidate)34_storage":{"encoding":"inplace","label":"struct Voteing.Candidate","members":[{"astId":29,"contract":"voteing.sol:Voteing","label":"name","offset":0,"slot":"0","type":"t_string_storage"},{"astId":31,"contract":"voteing.sol:Voteing","label":"partyName","offset":0,"slot":"1","type":"t_string_storage"},{"astId":33,"contract":"voteing.sol:Voteing","label":"voteCount","offset":0,"slot":"2","type":"t_uint256"}],"numberOfBytes":"96"},"t_uint256":{"encoding":"inplace","label":"uint256","numberOfBytes":"32"}}},"userdoc":{"kind":"user","methods":{},"version":1}}